:100000000C9464000C948C000C948C000C948C0068
:100010000C948C000C948C000C948C000C948C0030
:100020000C948C000C948C000C948C000C9478072D
:100030000C948C000C948C000C948C000C948C0010
:100040000C94F00C0C948C000C94FB090C942D0A6D
:100050000C948C000C948C000C948C000C948C00F0
:100060000C947D030C948C00000000080002010039
:100070000003040700000000000000000102040863
:100080001020408001020408102001020408102002
:10009000040404040404040402020202020203032E
:1000A00003030303000000002300260029000000D2
:1000B0000000250028002B0000000000240027007D
:1000C0002A007C01D1055D0A11241FBECFEFD8E0C4
:1000D000DEBFCDBF11E0A0E0B1E0E4E3F4E202C096
:1000E00005900D92AC37B107D9F723E0ACE7B1E04A
:1000F00001C01D92A230B207E1F710E0C8ECD0E0D9
:1001000004C02297FE010E94DE10C23CD107C9F74D
:100110000E94DF0C0C9418120C940000CF92DF9216
:10012000EF92FF920F931F93E82FF92F05C0015014
:1001300011092109310961F1908196239417B9F3CE
:1001400005C0015011092109310911F1908196234F
:100150009413F7CFC12CD12CE12CF12C0AC08FEFD6
:10016000C81AD80AE80AF80A0C151D052E053F051D
:1001700079F080818623841791F36C2D7D2D8E2D4F
:100180009F2D1F910F91FF90EF90DF90CF900895DA
:1001900060E070E080E090E01F910F91FF90EF90A1
:1001A000DF90CF900895EF92FF920F931F93CF931C
:1001B000DF9326E040E855E260E070E088E592E0F9
:1001C0000E94990985E092E00E94410562E370E097
:1001D0008CE791E00E946B0787E190E00E94EE0CB3
:1001E000EC01E12CF12C08EC12E426E649E050E0A9
:1001F0006AE070E0CE010E944802E881F981019036
:10020000F081E02D62E370E0CE010995BE018CE73C
:1002100091E00E94130787E190E00E94EE0CEC0150
:1002200022E74BE050E06CE070E00E944802E88179
:10023000F9810190F081E02D62E370E0CE01099533
:10024000BE018CE791E00E94130787E190E00E94D5
:10025000EE0CEC012CE647E050E068E070E00E9414
:100260004802E881F9810190F081E02D62E370E0BD
:10027000CE010995BE018CE791E00E94130782E14F
:1002800090E00E94EE0CEC0128E730E04EE050E0F8
:100290006DE070E00E94EB01E881F9810190F0814E
:1002A000E02D64EF71E0CE010995BE018CE791E08D
:1002B0000E9413078AE090E00E94EE0C8C0168E433
:1002C00070E00E948F02D801ED91FC910190F081C5
:1002D000E02D68EE73E0C8010995BE018CE791E05E
:1002E000DF91CF911F910F91FF90EF900C94130726
:1002F0008CE791E00C942A0781E591E090937D01D1
:1003000080937C0186E991E00C9487070F931F93FB
:10031000CF93DF93EC017B836A831D821C8284E090
:1003200090E00E94EE0C8C016E817F810E941B0682
:100330001D870C8788E090E00E94EE0C8C014A85B6
:100340005B85688579850E948C081F870E8781E010
:1003500090E0998B888BDF91CF911F910F91089539
:10036000CF93DF93EC01888999890097C9F00197B1
:1003700079F58E859F85DC01ED91FC910190F081EE
:10038000E02D0995882321F18C859D85DC01ED9177
:10039000FC910190F081E02D0995198A188A18C006
:1003A0008E859F85DC01ED91FC910190F081E02D1F
:1003B000099581110DC08C859D85DC01ED91FC9125
:1003C0000280F381E02D099581E090E0998B888B84
:1003D000DF91CF910895FC018FE091E091838083BC
:1003E00077836683518740873387228708950F93E9
:1003F0001F93CF93DF93EC017B836A831D821C8262
:100400001C861B8688E090E00E94EE0C8C014885DB
:1004100059856E817F810E94BE071E8B0D8BDF91F7
:10042000CF911F910F9108950F931F93CF93DF9357
:10043000EC018B859C85009719F00197A1F023C0F2
:1004400009891A892B893C894D855E856F85788954
:100450008D899E890E94EB07811115C081E090E093
:100460009C878B8710C009891A892B893C894D8507
:100470005E856F8578898D899E890E94EB07882328
:1004800011F01C861B86DF91CF911F910F9108956B
:100490008F929F92AF92BF92EF92FF920F931F9312
:1004A000FC0187E191E091838083812C912C80EA8B
:1004B000A82E81E4B82E818A928AA38AB48A77838F
:1004C0006683518740872287E586F6860787108BEB
:1004D0001F910F91FF90EF90BF90AF909F908F90E2
:1004E00008950F931F93CF93DF93EC017B836A836F
:1004F0001D821C8284E090E00E94EE0C8C016E81D3
:100500007F810E94310819870887DF91CF911F9161
:100510000F910895FC01808591850C9452082FE17C
:1005200031E0FC0131832083778366830895109244
:10053000040281E0809302021092010261E082E1F4
:100540000E94FF0D61E083E10E94FF0DE9EBF0E006
:1005500080818E7F808380818D7F808388E48093FB
:10056000B80085E48093BC000895413208F043C090
:10057000909104029111FCCF91E09093040220939A
:1005800002022FEF209397011092DC01240F209399
:10059000DB019093030290910302880F892B8093D3
:1005A000030280910102813061F410920102809176
:1005B00003028093BB008091BC0083FDF8CF85ECE3
:1005C00001C085EE8093BC00809104028130E1F38C
:1005D0008091DC01841710F44091DC012DED31E0B5
:1005E000FB01D9018A2F821B841718F48D91819306
:1005F000F9CF842F089580E008950F93413208F0D9
:100600004AC0909104029111FCCF92E090930402B1
:10061000009302029FEF909397011092DC014093A8
:10062000DB01FB016DED71E0DB019A2F961B941746
:1006300018F491919D93F9CF1092030290910302C7
:10064000880F892B8093030280910102813061F42D
:1006500010920102809103028093BB008091BC0044
:1006600083FDF8CF85EC01C085EE8093BC0022238A
:1006700021F0809104028230E1F3809197018F3F55
:1006800061F080919701803251F080919701803321
:1006900041F483E007C081E005C080E003C082E050
:1006A00001C084E00F910895613298F42091040212
:1006B000243089F46093B901FC018BEB91E0DC01FB
:1006C0002A2F281B261718F421912D93F9CF80E0AB
:1006D000089581E0089582E0089585ED8093BC003F
:1006E0008091BC0084FDFCCF10920402089585EC3B
:1006F0008093BC001092040208951F920F920FB6CF
:100700000F9211242F933F934F935F936F937F9397
:100710008F939F93AF93BF93EF93FF938091B90013
:10072000887F803609F49EC078F5883209F45DC070
:1007300090F4803109F456C038F4882309F4F5C0E8
:10074000883009F44FC0F5C0883109F44EC08032BA
:1007500009F45FC0EEC0803409F46AC058F48033F5
:1007600009F457C0883309F0E4C0809397010E94D0
:100770007703DFC0803509F44FC0883509F45DC0C8
:10078000883409F0D6C0D3C0883909F4C4C0A8F4AD
:10079000883709F467C038F4883609F463C08037B5
:1007A00009F460C0C6C0883809F4B5C0803909F4BE
:1007B0005FC0803809F0BDC05BC0803B09F483C0D6
:1007C00038F4803A09F466C0883A09F47CC0B1C0B4
:1007D000803C09F4A4C0883C09F4A1C0883B09F41A
:1007E00087C0A7C08091030210C09091DC01809166
:1007F000DB01981770F5E091DC0181E08E0F8093AA
:10080000DC01F0E0E352FE4F80818093BB0085EC79
:1008100083C0809397018BC0E091DC0181E08E0F53
:100820008093DC018091BB00F0E0E352FE4F8083B7
:100830009091DC018091DB016BC0E091DC0181E0F3
:100840008E0F8093DC018091BB00F0E0E352FE4FFD
:1008500080838091020281116AC081E0809301024D
:1008600084EA5EC083E08093040210929801CFCFA7
:1008700080919801803208F04EC0E091980181E0AB
:100880008E0F809398018091BB00F0E0E756FE4FF9
:100890008083BDCF0E94770380919801803230F42D
:1008A000E0919801F0E0E756FE4F108260919801C8
:1008B00070E0E091FD01F091FE0189E991E0099578
:1008C0001092980136C084E0809304021092BA011D
:1008D0001092B901E091FF01F09100020995809119
:1008E000B901811105C081E08093B9011092BB016B
:1008F000E091BA0181E08E0F8093BA01F0E0E554F7
:10090000FE4F80818093BB009091BA018091B90124
:10091000981708F47CCF85E88093BC000AC085EC6A
:100920008093BC001092040204C0109297010E94B0
:100930006D03FF91EF91BF91AF919F918F917F9147
:100940006F915F914F913F912F910F900FBE0F903C
:100950001F9018958091350290E020913602821BFD
:10096000910908952091360280913502281750F49C
:10097000E22FF0E0E95CFD4F808190E02F5F209353
:10098000360208958FEF9FEF0895E091360280912F
:100990003502E81730F4F0E0E95CFD4F808190E02B
:1009A00008958FEF9FEF08950895CF92DF92EF9211
:1009B000FF920F931F93CF93DF937C01CB018A01AA
:1009C00020911102222389F0EB016B01C40ED51E88
:1009D000CC15DD0569F06991D701ED91FC9101908D
:1009E000F081E02DC7010995F3CF642F0E945403D5
:1009F000C801DF91CF911F910F91FF90EF90DF9091
:100A0000CF900895CF93DF931F92CDB7DEB7698360
:100A1000209111022223D1F020911202203240F0C5
:100A200021E030E0FC013383228380E090E015C0B8
:100A300080911302E82FF0E0EC5EFD4F99819083E6
:100A40008F5F809313028093120205C061E0CE0194
:100A500001960E94540381E090E00F90DF91CF91C6
:100A60000895FC011382128248EE53E060E070E0CA
:100A7000448355836683778387E291E09183808303
:100A800008951092360210923502109213021092BD
:100A900012020C94970281E0809311026093340259
:100AA000109213021092120208950C944B050F93AA
:100AB000062F21E04091120264E172E0809134023D
:100AC0000E94FD0210921302109212021092110263
:100AD0000F9108958F929F92AF92BF92CF92DF9223
:100AE000EF92FF920F931F93CF93DF93EC01F62EBB
:100AF000D42E48015901EE2019F10E944B051E2DFC
:100B0000143008F013E01150B8F0E881F98128E0C2
:100B1000129FB0011124A501940104C05695479578
:100B2000379527956A95D2F7CA01B9010190F081EE
:100B3000E02DCE010995E7CF60E0CE010E94570578
:100B40004D2D413208F040E22C2D67E372E08F2DED
:100B50000E94B5021092360280933502DF91CF9148
:100B60001F910F91FF90EF90DF90CF90BF90AF90CB
:100B70009F908F900895CF92EF920F931F93C22E64
:100B8000E12C00E010E098010E946A051F910F918E
:100B9000EF90CF90089521E00C94BB0561E00C9498
:100BA000570585E092E00C94310527E331E0FC0124
:100BB00031832083738362830895CF93DF93EC01A5
:100BC0006A817B8185E092E00E945505E0910502F3
:100BD000F09106020190F081E02D60E085E092E066
:100BE000099585E092E00E94CE056A817B8141E013
:100BF00050E085E092E00E94CB0585E092E00E9403
:100C0000AA04892BD1F385E092E00E94B204BC01D2
:100C1000882777FD8095982F0E94650FDF91CF91EF
:100C2000089561E0FC0182810C94FF0D60E0FC01FD
:100C300082810C94FF0DFC01862F2DE331E031837E
:100C400020836283738361E00C94C60DAF92BF92E0
:100C5000CF92DF92EF92FF920F931F93FC0182815C
:100C60000E94800DBC01882777FD8095982F1F92E8
:100C70001F921F922FEF2F93A12CB12C6501EE2410
:100C8000EA9413E0F12E00E010E020E030E0A9014A
:100C90000E94970C0F900F900F900F90CB011F9117
:100CA0000F91FF90EF90DF90CF90BF90AF9008959D
:100CB00025E431E0FC01318320837383628308954E
:100CC0008F929F92AF92BF92CF92DF92EF92FF925C
:100CD000CF93DF93EC016A017B014E835F836887CA
:100CE000798760E08A810E94FF0D83E090E00E9496
:100CF0003A0D61E08A810E94FF0D85E090E00E943C
:100D00003A0D60E08A810E94FF0D20E432E44FE05A
:100D100050E061E08C810E94350E0E94630F20E05C
:100D200030E04AE754E40E94CA0E20E030E04AE78F
:100D300054E40E94CA0E20E030E040E05FE30E94ED
:100D400019104B015C012AE939E949E15FE3C70168
:100D5000B6010E94191020E030EC45EA53E40E94ED
:100D6000620E9B01AC01C501B4010E9419106B0118
:100D70007C0122E030E0AB01BC0188E592E00E94FA
:100D8000850CC701B601DF91CF91FF90EF90DF9006
:100D9000CF90BF90AF909F908F900895AF92BF92E9
:100DA000DF92EF92FF920F931F93CF93DF931F92E7
:100DB000CDB7DEB75C01E62EF42ED52E2BE431E064
:100DC000FC0131832083628373834483558361E014
:100DD0008E2D79830E94C60D60E08F2D0E94C60D76
:100DE00000E010E020EA31E4F50106831783208754
:100DF00031874AE050E06E2D798188E592E00E94CB
:100E0000820B4AE050E06F2D7D2D88E592E00F9037
:100E1000DF91CF911F910F91FF90EF90DF90BF90E6
:100E2000AF900C94820BFC0124813581293031056F
:100E30007CF4F9013396EE0FFF1FE80FF91F718361
:100E400060832F5F3F4FFC013583248381E0089549
:100E500080E00895EF92FF920F931F93CF93DF935B
:100E6000EC014A960E94B7077E0100E010E08C81F9
:100E70009D810817190744F5F701A681B7811496DB
:100E80008D919C9115972A813B81820F931F159616
:100E90009C938E93149712962D913C9113978217E1
:100EA000930764F015961C921E921497ED91FC9195
:100EB00011970280F381E02DCD0109950F5F1F4F3F
:100EC000F2E0EF0EF11CD3CFDF91CF911F910F9184
:100ED000FF90EF900895CF93DF93EC017B836A83BB
:100EE0004A960E948A071D821C82DF91CF91089545
:100EF0001F920F920FB60F9211248F9381E080936F
:100F000057028F910F900FBE0F901F90189510925F
:100F100057020895CF93DF93F89410928000C1E8B0
:100F2000D0E018821092850010928400882777FD07
:100F30008095982F0E94650F2FE632E143E851E437
:100F40000E9419100E94370F7093890060938800E7
:100F5000888188608883888185608883EFE6F0E0F7
:100F60008081826080837894DF91CF910895809111
:100F700057028823E1F3109257020895EF92FF92EF
:100F80000F931F93CF93DF9300D000D0CDB7DEB780
:100F90007C01FC0171836083538342838AE090E08B
:100FA0004B835C8369837A830E94EE0C8C014B81B6
:100FB0005C8169817A810E94CE06F70117830683DE
:100FC0000F900F900F900F90DF91CF911F910F9185
:100FD000FF90EF9008958F929F92AF92BF92CF9221
:100FE000DF92EF92FF920F931F93CF93DF93EC0169
:100FF0004A015B01680179018E819F81DC01ED91DD
:10100000FC910190F081E02DB901A8010995AB0197
:10101000BC0122E030E088E592E00E94850C8E81E0
:101020009F81DC01ED91FC910190F081E02DB701F1
:10103000A6010995C1E0A50194010E94C60E1816EB
:101040000CF4C0E081E08C27DF91CF911F910F91CC
:10105000FF90EF90DF90CF90BF90AF909F908F90D8
:101060000895EF92FF920F931F93CF93DF9300D0D9
:10107000CDB7DEB78C0184E090E069837A830E946B
:10108000EE0C7C0169817A810E94D505F801F3821A
:10109000E2820F900F90DF91CF911F910F91FF90FF
:1010A000EF900895CF93DF93EC018A819B81DC015F
:1010B000ED91FC910190F081E02D09950E94320F95
:1010C00079836883DF91CF910895CF93DF93EC010B
:1010D0008A819B81DC01ED91FC910190F081E02DF2
:1010E00009954AE050E0BC0188E592E00E94820B3D
:1010F0008A819B81DC01ED91FC910190F081E02DD2
:10110000099541E02E813F81281739070CF440E012
:10111000842FDF91CF910895EF92FF920F931F9349
:10112000CF93DF9300D0CDB7DEB77C0189E591E0A6
:10113000F70191838083758364835783468384E0BA
:1011400090E069837A830E94EE0C8C0169817A8138
:101150000E945806F701138302830F900F90DF91CE
:10116000CF911F910F91FF90EF900895FC01818D19
:10117000228D90E0805C9F4F821B91098F7399278D
:101180000895FC01918D828D981731F0828DE80FC2
:10119000F11D858D90E008958FEF9FEF0895FC017C
:1011A000918D828D981761F0828DDF01A80FB11D9E
:1011B0005D968C91928D9F5F9F73928F90E00895C2
:1011C0008FEF9FEF089583E59AE0892B49F080E047
:1011D00090E0892B29F00E94530A81110C940000A1
:1011E0000895FC01848DDF01A80FB11DA35ABF4FE4
:1011F0002C91848D90E001968F739927848FA68916
:10120000B7892C93A089B1898C9180648C93938D3C
:10121000848D981306C00288F389E02D80818F7D2C
:1012200080830895CF93DF93EC01888D8823C9F0E4
:10123000EA89FB89808185FD05C0A889B9898C91DF
:1012400086FD0FC00FB607FCF5CF808185FFF2CF7A
:10125000A889B9898C9185FFEDCFCE010E94F10854
:10126000E7CFDF91CF910895CF92DF92FF920F9356
:101270001F93CF93DF931F92CDB7DEB76C0181E050
:10128000D60158968C9358975B969C915B975C9689
:101290008C915C97981307C05096ED91FC915197F3
:1012A000808185FD2EC0F601038D10E00F5F1F4F7A
:1012B0000F731127F02EF601848DF81211C00FB6AE
:1012C00007FCF9CFD6015096ED91FC9151978081A2
:1012D00085FFF1CFC60169830E94F1086981EBCFD8
:1012E000838DE80FF11DE35AFF4F6083D6015B96B3
:1012F0000C935B975296ED91FC915397808180629D
:101300000CC0D6015696ED91FC915797608350968C
:10131000ED91FC91519780818064808381E090E021
:101320000F90DF91CF911F910F91FF90DF90CF90A1
:101330000895BF92CF92DF92EF92FF92CF93DF9307
:10134000EC016A017B01B22EE889F98982E0808391
:10135000411581EE580761057105A1F060E079E063
:101360008DE390E0A70196010E9490102150310971
:10137000410951095695479537952795211580E1E3
:10138000380798F0E889F989108260E874E88EE1FE
:1013900090E0A70196010E94901021503109410967
:1013A00051095695479537952795EC85FD853083EE
:1013B000EE85FF852083188EEC89FD89B082EA894D
:1013C000FB89808180618083EA89FB8980818860D4
:1013D0008083EA89FB89808180688083EA89FB8930
:1013E00080818F7D8083DF91CF91FF90EF90DF90A0
:1013F000CF90BF9008951F920F920FB60F921124B5
:101400002F938F939F93EF93FF93E0916802F09156
:1014100069028081E0916E02F0916F0282FD12C03C
:101420009081809171028F5F8F7320917202821779
:1014300051F0E0917102F0E0E85AFD4F958F8093F2
:10144000710201C08081FF91EF919F918F912F9147
:101450000F900FBE0F901F9018951F920F920FB60E
:101460000F9211242F933F934F935F936F937F932A
:101470008F939F93AF93BF93EF93FF9388E592E091
:101480000E94F108FF91EF91BF91AF919F918F91D1
:101490007F916F915F914F913F912F910F900FBE70
:1014A0000F901F90189588E592E00E94B60821E001
:1014B000892B09F420E0822F089510925B0210928C
:1014C0005A0288EE93E0A0E0B0E080935C02909333
:1014D0005D02A0935E02B0935F028FE591E090936E
:1014E00059028093580285EC90E0909365028093B6
:1014F000640284EC90E0909367028093660280EC33
:1015000090E0909369028093680281EC90E0909360
:101510006B0280936A0282EC90E090936D0280935C
:101520006C0286EC90E090936F0280936E021092B2
:101530007102109272021092730210927402089556
:10154000CF92DF92EF92FF920F931F93CF93DF938F
:101550007C016A01EB0100E010E00C151D0571F043
:101560006991D701ED91FC910190F081E02DC701C7
:101570000995892B19F00F5F1F4FEFCFC801DF913D
:10158000CF911F910F91FF90EF90DF90CF90089532
:101590006115710581F0DB010D900020E9F7AD01C7
:1015A00041505109461B570BDC01ED91FC91028023
:1015B000F381E02D099480E090E00895DC01ED9145
:1015C000FC910190F081E02D09946BE671E00C94A0
:1015D000C80A8F929F92AF92BF92DF92EF92FF92D2
:1015E0000F931F93CF93DF93CDB7DEB7A1970FB6BD
:1015F000F894DEBF0FBECDBF7C01F42FD52ECB01FA
:1016000019A2223008F42AE08E010F5D1F4F822EAE
:10161000912CA12CB12C6F2F7D2DA50194010E943E
:101620009010F22FD32ECA01015011096A3014F420
:10163000E0E301C0E7E3E60FD801EC93232B242B72
:10164000252B49F7B801C7010E94C80AA1960FB619
:10165000F894DEBF0FBECDBFDF91CF911F910F91E8
:10166000FF90EF90DF90BF90AF909F908F90089584
:10167000CF92DF92EF92FF920F931F93CF93DF935E
:10168000EC016A017B012115310579F4E881F981CA
:101690000190F081E02D642FDF91CF911F910F9188
:1016A000FF90EF90DF90CF9009942A303105E9F454
:1016B00077FF1AC06DE20E94DE0A8C01442755278D
:1016C000BA014C195D096E097F092AE0CE010E941A
:1016D000E90A800F911FDF91CF911F910F91FF9029
:1016E000EF90DF90CF9008952AE0B701A601CE01D8
:1016F000DF91CF911F910F91FF90EF90DF90CF90EE
:101700000C94E90A0F931F93CF93DF93EC019A0196
:10171000AB01662757FD6095762F0E94380B8C0130
:10172000CE010E94E50A800F911FDF91CF911F919A
:101730000F9108954F925F926F927F928F929F9236
:10174000AF92BF92CF92DF92EF92FF920F931F93CF
:10175000CF93DF93EC016A017B01B22E9A01AB01BA
:10176000C701B6010E947C10882319F06EE671E073
:1017700027C026013701E89477F82FEF3FEF4FE7B6
:101780005FE7C301B2010E947C1081110DC02FEFF1
:101790003FEF4FE75FE7C301B2010E94C60E181684
:1017A0001CF462E771E00CC02FEF3FEF4FE75FE4FE
:1017B000C701B6010E9415101816ACF466E771E077
:1017C000CE01DF91CF911F910F91FF90EF90DF90AD
:1017D000CF90BF90AF909F908F907F906F905F90D1
:1017E0004F900C94C80A2FEF3FEF4FE75FECC70113
:1017F000B6010E94C60E87FDE1CF20E030E0A901CE
:10180000C701B6010E94C60E87FF0AC06DE2CE0175
:101810000E94DE0A8C01F7FAF094F7F8F09402C007
:1018200000E010E0A12C60E070E080E09FE3AB14EA
:1018300041F020E030E040E251E40E94CA0EA3945F
:10184000F6CF9B01AC01C701B6010E94620E6B018D
:101850007C010E94370F2B013C010E94630F9B010A
:10186000AC01C701B6010E94610E6B017C012AE048
:10187000B301A201CE010E94E90A080F191FBB2083
:1018800039F06AE771E0CE010E94C80A080F191FFB
:101890007B2C772041F120E030E040E251E4C701A9
:1018A000B6010E9419106B017C010E94320F4B019E
:1018B000AA2497FCA094BA2C2AE030E0B501A40138
:1018C000CE010E94380B080F191FC501B4010E94F8
:1018D000650F9B01AC01C701B6010E94610E6B014F
:1018E0007C017A94D6CFC801DF91CF911F910F91DF
:1018F000FF90EF90DF90CF90BF90AF909F908F9030
:101900007F906F905F904F9008950F931F93CF93A8
:10191000DF93EC010E949A0B8C01CE010E94E50A34
:10192000800F911FDF91CF911F910F9108954F92DA
:101930005F926F927F92AF92BF92CF92DF92EF92BF
:10194000FF920F931F93CF93DF93CDB7DEB729019B
:101950003A01621B730B840B950B29893A894B89D9
:101960005C892A193B094C095D09298B3A8B4B8B01
:101970005C8B9B01AC0169897A898B899C890E9467
:101980008010E418F50806091709A80197010E94BC
:10199000B2102A0D3B1D4C1D5D1DCA01B901DF911E
:1019A000CF911F910F91FF90EF90DF90CF90BF905C
:1019B000AF907F906F905F904F90089508950E9430
:1019C000450D0E94DE0C0E94D300C3EED8E00E94B9
:1019D00078012097E1F30E94E308F9CF0C94F1100D
:1019E0001F920F920FB60F9211242F933F938F9354
:1019F0009F93AF93BF938091F6029091F702A091CD
:101A0000F802B091F9023091F50223E0230F2D374F
:101A100020F40196A11DB11D05C026E8230F0296F2
:101A2000A11DB11D2093F5028093F6029093F70259
:101A3000A093F802B093F9028091FA029091FB0210
:101A4000A091FC02B091FD020196A11DB11D8093F1
:101A5000FA029093FB02A093FC02B093FD02BF91A7
:101A6000AF919F918F913F912F910F900FBE0F904B
:101A70001F9018958230910538F0880F991F880FB4
:101A8000991F05970197F1F70895789484B58260BE
:101A900084BD84B5816084BD85B5826085BD85B512
:101AA000816085BDEEE6F0E0808181608083E1E8C1
:101AB000F0E01082808182608083808181608083F9
:101AC000E0E8F0E0808181608083E1EBF0E08081FC
:101AD00084608083E0EBF0E0808181608083EAE7CE
:101AE000F0E0808184608083808182608083808157
:101AF000816080838081806880831092C100089516
:101B00008E3008F08E50877020910A0190E4299F52
:101B100090011124822B80937C0080917A00806454
:101B200080937A0080917A0086FDFCCF80917800C6
:101B30002091790090E0922B0895833081F028F471
:101B4000813099F08230A1F008958730A9F0883073
:101B5000B9F08430D1F4809180008F7D03C08091F2
:101B600080008F7780938000089584B58F7702C0BE
:101B700084B58F7D84BD08958091B0008F7703C0B8
:101B80008091B0008F7D8093B0000895CF93DF9354
:101B900090E0FC01E458FF4F2491FC01E057FF4F17
:101BA0008491882349F190E0880F991FFC01E85443
:101BB000FF4FA591B49182559F4FFC01C591D491DF
:101BC0009FB7611108C0F8948C91209582238C9363
:101BD000888182230AC0623051F4F8948C91322FAC
:101BE000309583238C938881822B888304C0F8945A
:101BF0008C91822B8C939FBFDF91CF9108950F938F
:101C00001F93CF93DF931F92CDB7DEB7282F30E01D
:101C1000F901E859FF4F8491F901E458FF4F1491FD
:101C2000F901E057FF4F04910023C9F0882321F008
:101C300069830E949D0D6981E02FF0E0EE0FFF1F88
:101C4000E255FF4FA591B4919FB7F8948C91611123
:101C500003C01095812301C0812B8C939FBF0F90EF
:101C6000DF91CF911F910F9108950F931F93762FBE
:101C700090E0FC01E458FF4F6491FC01E057FF4FF6
:101C8000E4917111762FF0E0EE0FFF1FEC55FF4F3E
:101C90008591949189019A013F70472F0E948E008F
:101CA000611571058105910531F06F5F7F4F8F4F91
:101CB0009F4F9F7003C060E070E0CB011F910F91B8
:101CC00008955058BB27AA270ED075C166D130F0B1
:101CD0006BD120F031F49F3F11F41EF45BC10EF480
:101CE000E095E7FB51C1E92F77D180F3BA1762077E
:101CF00073078407950718F071F49EF58FC10EF4F1
:101D0000E0950B2EBA2FA02D0B01B90190010C010B
:101D1000CA01A0011124FF27591B99F0593F50F423
:101D2000503E68F11A16F040A22F232F342F44277B
:101D3000585FF3CF469537952795A795F040539573
:101D4000C9F77EF41F16BA0B620B730B840BBAF043
:101D50009150A1F0FF0FBB1F661F771F881FC2F7AE
:101D60000EC0BA0F621F731F841F48F487957795C2
:101D70006795B795F7959E3F08F0B3CF9395880F79
:101D800008F09927EE0F979587950895D9D008F414
:101D900081E008950CD00FC107D140F0FED030F0A3
:101DA00021F45F3F19F0F0C0511139C1F3C014D1D3
:101DB00098F39923C9F35523B1F3951B550BBB2712
:101DC000AA2762177307840738F09F5F5F4F220FBF
:101DD000331F441FAA1FA9F333D00E2E3AF0E0E8B8
:101DE00030D091505040E695001CCAF729D0FE2F04
:101DF00027D0660F771F881FBB1F26173707480796
:101E0000AB07B0E809F0BB0B802DBF01FF2793584B
:101E10005F4F2AF09E3F510568F0B6C000C15F3F9A
:101E2000ECF3983EDCF3869577956795B795F79533
:101E30009F5FC9F7880F911D9695879597F908952B
:101E4000E1E0660F771F881FBB1F621773078407C7
:101E5000BA0720F0621B730B840BBA0BEE1F88F7D6
:101E6000E095089504D06894B111D9C00895BCD00C
:101E700088F09F5790F0B92F9927B751A0F0D1F073
:101E8000660F771F881F991F1AF0BA95C9F712C0FD
:101E9000B13081F0C3D0B1E00895C0C0672F782F72
:101EA0008827B85F39F0B93FCCF386957795679569
:101EB000B395D9F73EF490958095709561957F4FD5
:101EC0008F4F9F4F0895E89409C097FB3EF490957B
:101ED0008095709561957F4F8F4F9F4F9923A9F003
:101EE000F92F96E9BB279395F69587957795679592
:101EF000B795F111F8CFFAF4BB0F11F460FF1BC0D6
:101F00006F5F7F4F8F4F9F4F16C0882311F096E968
:101F100011C0772321F09EE8872F762F05C0662316
:101F200071F096E8862F70E060E02AF09A95660FCF
:101F3000771F881FDAF7880F9695879597F9089588
:101F4000990F0008550FAA0BE0E8FEEF16161706CA
:101F5000E807F907C0F012161306E407F50798F032
:101F6000621B730B840B950B39F40A2661F0232B4B
:101F7000242B252B21F408950A2609F4A140A695C7
:101F80008FEF811D811D089597F99F6780E870E0AC
:101F900060E008959FEF80EC089500240A941616DF
:101FA000170618060906089500240A941216130647
:101FB000140605060895092E0394000C11F48823D5
:101FC00052F0BB0F40F4BF2B11F460FF04C06F5FF1
:101FD0007F4F8F4F9F4F089557FD9058440F551FC7
:101FE00059F05F3F71F04795880F97FB991F61F09B
:101FF0009F3F79F087950895121613061406551F12
:10200000F2CF4695F1DF08C0161617061806991F7D
:10201000F1CF86957105610508940895E894BB2772
:1020200066277727CB0197F908958ADF08F48FEFA9
:1020300008950BD0C0CFB1DF28F0B6DF18F095239C
:1020400009F0A2CFA7CF1124EACFC6DFA0F3959F56
:10205000D1F3950F50E0551F629FF001729FBB278F
:10206000F00DB11D639FAA27F00DB11DAA1F649F3B
:102070006627B00DA11D661F829F2227B00DA11DEE
:10208000621F739FB00DA11D621F839FA00D611D74
:10209000221F749F3327A00D611D231F849F600D95
:1020A000211D822F762F6A2F11249F5750408AF0CE
:1020B000E1F088234AF0EE0FFF1FBB1F661F771F5A
:1020C000881F91505040A9F79E3F510570F05CCF9A
:1020D000A6CF5F3FECF3983EDCF386957795679546
:1020E000B795F795E7959F5FC1F7FE2B880F911D78
:1020F0009695879597F9089523DF880B990B089596
:10210000DB018F939F930E94D110BF91AF91A29F4B
:10211000800D911DA39F900DB29F900D11240895E5
:10212000A1E21A2EAA1BBB1BFD010DC0AA1FBB1FDB
:10213000EE1FFF1FA217B307E407F50720F0A21B4D
:10214000B30BE40BF50B661F771F881F991F1A94BA
:1021500069F760957095809590959B01AC01BD01E4
:10216000CF010895052E97FB1EF400940E94C9101C
:1021700057FD07D00E94901007FC03D04EF40C943A
:10218000C91050954095309521953F4F4F4F5F4F67
:10219000089590958095709561957F4F8F4F9F4FD3
:1021A00008950E94E210A59F900DB49F900DA49FEA
:1021B000800D911D11240895EE0FFF1F0590F491DD
:1021C000E02D0994A29FB001B39FC001A39F700DA1
:1021D000811D1124911DB29F700D811D1124911D2F
:1021E0000895CF93DF938230910510F482E090E060
:1021F000E0910003F091010320E030E0A0E0B0E0C6
:10220000309739F14081518148175907B8F0481784
:10221000590771F482819381109729F013969C934A
:102220008E9312972CC0909301038093000327C0D4
:102230002115310531F04217530718F0A901DB01D0
:1022400001C0EF019A01BD01DF010280F381E02DA1
:10225000D7CF21153105F9F0281B390B2430310572
:1022600080F48A819B816115710521F0FB019383C4
:10227000828304C09093010380930003FE01329691
:1022800044C0FE01E20FF31F819391932250310964
:10229000398328833AC02091FE023091FF02232B1C
:1022A00041F420910201309103013093FF02209309
:1022B000FE0220910001309101012115310541F408
:1022C0002DB73EB74091040150910501241B350BF9
:1022D000E091FE02F091FF02E217F307A0F42E1B3B
:1022E0003F0B2817390778F0AC014E5F5F4F24177A
:1022F000350748F04E0F5F1F5093FF024093FE02D8
:102300008193919302C0E0E0F0E0CF01DF91CF91A3
:102310000895CF93DF93009709F487C0FC013297AB
:1023200013821282C0910003D0910103209781F49F
:1023300020813181280F391F8091FE029091FF0288
:102340008217930779F5F093FF02E093FE026DC0C8
:10235000DE0120E030E0AE17BF0750F412964D9139
:102360005C9113979D014115510509F1DA01F3CFF5
:10237000B383A28340815181840F951F8A179B07E5
:1023800071F48D919C911197840F951F0296918302
:10239000808312968D919C9113979383828321154C
:1023A000310529F4F0930103E09300033EC0D90105
:1023B0001396FC93EE9312974D915D91A40FB51F68
:1023C000EA17FB0779F480819181840F951F0296AB
:1023D000D90111969C938E938281938113969C933D
:1023E0008E931297E0E0F0E08A819B81009719F0CC
:1023F000FE01EC01F9CFCE01029628813981820FCE
:10240000931F2091FE023091FF022817390769F4CB
:10241000309729F4109201031092000302C0138236
:102420001282D093FF02C093FE02DF91CF910895F4
:04243000F894FFCF4E
:10243400000002038000010000000100000000868B
:1024440001B00100000000F7011402000000007157
:10245400028A02000000000205D504AA04B204C5E1
:1024640004D40400000000DD05000000001106167D
:1024740006000000002606000000006006000000C0
:102484000013072A0700000000650800000000345C
:1024940009A00AB608CF08C10812090D0A006E6126
:0C24A4006E00696E66006F7666002E0008
:00000001FF
