:100000000C94E3000C940B010C940B010C940B0169
:100010000C940B010C940B010C940B010C940B0130
:100020000C940B010C940B010C940B010C942805FF
:100030000C940B010C940B010C940B010C940B0110
:100040000C9437100C940B010C94E90B0C941B0CC2
:100050000C940B010C940B010C940B010C940B01F0
:100060000C9406070C940B0100000008000201002C
:100070000003040700000000000000000102040863
:100080001020408001020408102001020408102002
:10009000040404040404040402020202020203032E
:1000A00003030303000000002300260029000000D2
:1000B0000000250028002B0000000000240027007D
:1000C0002A0000407A10F35A00A0724E180900105E
:1000D000A5D4E80000E87648170000E40B540200BD
:1000E00000CA9A3B000000E1F505000080969800E8
:1000F000000040420F000000A08601000000102711
:1001000000000000E80300000000640000000000A0
:100110000A00000000000100000000002C76D888D2
:10012000DC674F0823DFC1DFAE59E1B1B796E5E3E5
:10013000E453C63AE651997696E8E6C28426EB89FE
:100140008C9B62ED407C6FFCEFBC9C9F40F2BAA59B
:100150006FA5F490055A2AF75C936B6CF9676DC133
:100160001BFCE0E40D47FEF520E6B500D0ED902E37
:100170000300943577050080841E080000204E0A95
:10018000000000C80C333333330F986E12831141D3
:10019000EF8D2114893BE65516CFFEE6DB18D1849E
:1001A0004B381BF77C1D901DA4BBE42420328472C5
:1001B0005E228100C9F124ECA1E53D273202CC0585
:1001C0005A094B0CD20511241FBECFEFD8E0DEBF79
:1001D000CDBF11E0A0E0B1E0E4EEF2E302C0059093
:1001E0000D92A438B107D9F723E0A4E8B1E001C02B
:1001F0001D92A032B207E1F711E0C4ECD1E004C0D7
:100200002297FE010E947D14CC3BD107C9F70E94C2
:1002100024100C9465190C940000CF92DF92EF9299
:10022000FF920F931F93E82FF92F05C0015011097A
:100230002109310961F1908196239417B9F305C022
:10024000015011092109310911F19081962394136C
:10025000F7CFC12CD12CE12CF12C0AC08FEFC81A9A
:10026000D80AE80AF80A0C151D052E053F0579F095
:1002700080818623841791F36C2D7D2D8E2D9F2DEB
:100280001F910F91FF90EF90DF90CF90089560E065
:1002900070E080E090E01F910F91FF90EF90DF9071
:1002A000CF900895EF92FF920F931F93CF93DF9318
:1002B00026E040E855E260E070E086E792E00E94C8
:1002C000870B84E292E00E94CA088DEA91E00E94C6
:1002D000AA0562E370E08AE891E00E94070587E1E1
:1002E00090E00E943310EC01E12CF12C08EC12E4B8
:1002F00026E649E050E06AE070E0CE010E94470344
:10030000E881F9810190F081E02D64E670E0CE0192
:100310000995BE018AE891E00E94A00487E190E07F
:100320000E943310EC0122E74BE050E06CE070E0FB
:100330000E944703E881F9810190F081E02D64E695
:1003400070E0CE010995BE018AE891E00E94A00408
:1003500087E190E00E943310EC012CE647E050E08A
:1003600068E070E00E944703E881F9810190F08124
:10037000E02D64E670E0CE010995BE018AE891E0C7
:100380000E94A00482E190E00E943310EC0128E773
:1003900030E04EE050E06DE070E00E949E02E881A7
:1003A000F9810190F081E02D6AEF70E0CE010995AE
:1003B000BE018AE891E00E94A0048AE090E00E94D9
:1003C0003310EC0168E470E00E94C903D093890106
:1003D000C0938801E881F9810190F081E02D66E900
:1003E00070E0CE01DF91CF911F910F91FF90EF90C0
:1003F00009940F931F938AE891E00E94F6040E94EB
:100400008110009184011091850120918601309125
:100410008701601B710B820B930B643F7140810558
:100420009105E8F00E94811060938401709385012A
:1004300080938601909387016BE071E086E792E0FC
:100440000E94DA0C8091880190918901DC01ED9184
:10045000FC910280F381E02D1F910F9109941F916F
:100460000F91089582E391E090938B0180938A012C
:1004700008950F931F93CF93DF93EC017B836A83DF
:100480001D821C8284E090E00E9433108C016E81FA
:100490007F810E94B8091D870C8788E090E00E9448
:1004A00033108C014A855B85688579850E947604C6
:1004B0001F870E8781E090E0998B888BDF91CF9129
:1004C0001F910F910895CF93DF93EC01888999894B
:1004D0000097C9F0019779F58E859F85DC01ED9134
:1004E000FC910190F081E02D0995882321F18C8504
:1004F0009D85DC01ED91FC910190F081E02D099545
:10050000198A188A18C08E859F85DC01ED91FC91AF
:100510000190F081E02D099581110DC08C859D859C
:10052000DC01ED91FC910280F381E02D099581E0E1
:1005300090E0998B888BDF91CF910895FC0184E145
:1005400091E09183808377836683518740873387E7
:10055000228708950F931F93CF93DF93EC017B8342
:100560006A831D821C821C861B8688E090E00E94A4
:1005700033108C01488559856E817F810E94D1039B
:100580001E8B0D8BDF91CF911F910F910895EF92EC
:10059000FF920F931F93CF93DF9300D000D000D032
:1005A000CDB7DEB77C018DEA91E00E948E058823ED
:1005B00091F18DEA91E00E9491058C01BC01CE0180
:1005C00001960E94930F89819A810E94A216BC0114
:1005D000882777FD8095982F0E940413F701618B7F
:1005E000728B838B948B0115110531F0C8010E9429
:1005F000F80EC8010E943510F701418952896389BC
:10060000748922E030E086E792E00E949F0ECE01DE
:1006100001960E94F80EF70183859485009719F0E2
:100620000197B1F027C0F701018912892389348924
:100630004585568567857089858996890E94FE0360
:10064000811118C081E090E0F7019487838712C080
:10065000F701018912892389348945855685678583
:100660007089858996890E94FE03882319F0F70115
:100670001486138626960FB6F894DEBF0FBECDBF44
:10068000DF91CF911F910F91FF90EF9008958F927E
:100690009F92AF92BF92EF92FF920F931F93FC0134
:1006A0008CE191E091838083812C912C80EAA82EAB
:1006B00081E4B82E818A928AA38AB48A778366837A
:1006C000518740872287E586F6860787108B1F9122
:1006D0000F91FF90EF90BF90AF909F908F900895F3
:1006E0000F931F93CF93DF93EC017B836A831D826B
:1006F0001C8284E090E00E9433108C016E817F8127
:100700000E94270419870887DF91CF911F910F91CD
:1007100008950F931F93CF93DF9300D000D000D0A4
:10072000CDB7DEB78C01FC01808591850E9448041D
:10073000F801808591850E945B04BC01882777FDC4
:100740008095982F0E940413AB01BC014093A60131
:100750005093A7016093A8017093A90122E0CE01F4
:1007600001960E94B40FBE016F5F7F4F8DEA91E04A
:100770000E94C805CE0101960E94F80E26960FB67B
:10078000F894DEBF0FBECDBFDF91CF911F910F91C7
:10079000089524E231E0FC0131832083778366836E
:1007A0000895EF92FF920F931F93CF93DF9300D0A2
:1007B00000D0CDB7DEB77C01FC0171836083538329
:1007C00042838AE090E04B835C8369837A830E9452
:1007D00033108C014B815C8169817A810E945F0AB0
:1007E000F701178306830F900F900F900F90DF9102
:1007F000CF911F910F91FF90EF900895CF92DF92CC
:10080000EF92FF920F931F93CF936A017B01B9017F
:10081000A801DC0116968D919C911797DC01ED9152
:10082000FC910190F081E02D0995C1E0A7019601AE
:100830000E94651218160CF4C0E081E08C27CF915D
:100840001F910F91FF90EF90DF90CF900895EF925E
:10085000FF920F931F93CF93DF9300D0CDB7DEB7F6
:100860008C0184E090E069837A830E9433107C01DC
:1008700069817A810E945E09F801F382E2820F9019
:100880000F90DF91CF911F910F91FF90EF900895FE
:10089000CF93DF93EC018A819B81DC01ED91FC9188
:1008A0000190F081E02D09950E94D112798368832F
:1008B000DF91CF910895FC01808191810895CF93BC
:1008C000DF93EC018A819B81DC01ED91FC91019029
:1008D000F081E02D099541E02E813F8128173907ED
:1008E0000CF440E0842FDF91CF910895EF92FF92B6
:1008F0000F931F93CF93DF9300D0CDB7DEB77C016A
:100900008CE291E0F7019183808375836483578340
:10091000468384E090E069837A830E9433108C01DF
:1009200069817A810E94F509F701138302830F9090
:100930000F90DF91CF911F910F91FF90EF9008954D
:10094000FC0124813581293031057CF4F90133968D
:10095000EE0FFF1FE80FF91F718360832F5F3F4F7A
:10096000FC013583248381E0089580E00895EF92AF
:10097000FF920F931F93CF93DF938C017C01C0E014
:10098000D0E0F80184819581C817D90744F5F701B3
:10099000A681B78114962D913C911597F80182811B
:1009A0009381280F391F15963C932E931497129616
:1009B0008D919C9113972817390764F015961C9216
:1009C0001E921497ED91FC9111970280F381E02D16
:1009D000CD0109952196F2E0EF0EF11CD2CFDF9107
:1009E000CF911F910F91FF90EF90089583B7817F72
:1009F00083BF83B7816083BF83B7816083BF8895DE
:100A000083B78E7F83BF83B78E7F83BF0895EF92B6
:100A1000FF920F931F93CF93DF93EC017B017B83B6
:100A20006A8381E090E00E9433108C01BE010E9435
:100A30005A051B8F0A8FB701C8010E9461051D82EC
:100A40001C82DF91CF911F910F91FF90EF9008953D
:100A50001F920F920FB60F9211242F933F934F9333
:100A60005F936F937F938F939F93AF93BF93EF9316
:100A7000FF9381E08093AC018091AA019091AB013A
:100A8000009739F0DC01ED91FC910190F081E02DAF
:100A90000995FF91EF91BF91AF919F918F917F91B8
:100AA0006F915F914F913F912F910F900FBE0F90DB
:100AB0001F9018951092AC017093AB016093AA013E
:100AC0000895CF93DF93F89410928000C1E8D0E0AE
:100AD00018821092850010928400882777FD8095F7
:100AE000982F0E9404132FE632E143E851E40E945C
:100AF000B8130E94D6127093890060938800888191
:100B000088608883888185608883EFE6F0E0808153
:100B1000826080837894DF91CF910895FC01828177
:100B20000895CF93DF93FC018281882371F0D081F7
:100B3000C18112821182108264E771E080EB91E042
:100B40000E949C0F8D2F9C2F02C080E090E0DF91CF
:100B5000CF910895CF93DF93EC0126E040E855E272
:100B600060E070E086E792E00E94870B60E071E051
:100B700080EB91E00E94290F64E771E080EB91E047
:100B80000E949C0F198218821A82DF91CF910895DA
:100B900086E792E00C94E70C64E771E080EB91E06B
:100BA0000C94660F80EB91E00C94F80E0F931F935A
:100BB000CF93DF9300D000D000D0CDB7DEB762E393
:100BC00070E080E090E00E94B01086E792E00E9422
:100BD000A40A892B51F086E792E00E94BD0A682F93
:100BE00080EB91E00E941010F0CF60EB71E0CE013D
:100BF00001960E94930F86E090E00E9433108C01D2
:100C000064E771E00E94660FBE016F5F7F4FC8010D
:100C10000E947C0F1093AE010093AD01CE010196AE
:100C20000E94F80E81E08093AF0126960FB6F894EB
:100C3000DEBF0FBECDBFDF91CF911F910F91089501
:100C40001092230281E0809321021092200261E041
:100C500082E10E949D1161E083E10E949D11E9EB18
:100C6000F0E080818E7F808380818D7F808388E427
:100C70008093B80085E48093BC000895413208F069
:100C800043C0909123029111FCCF91E090932302F5
:100C9000209321022FEF2093B6011092FB01240F25
:100CA0002093FA019093220290912202880F892BBF
:100CB0008093220280912002813061F41092200200
:100CC000809122028093BB008091BC0083FDF8CF0D
:100CD00085EC01C085EE8093BC00809123028130B9
:100CE000E1F38091FB01841710F44091FB012CEF9C
:100CF00031E0FB01D9018A2F821B841718F48D91F2
:100D00008193F9CF842F089580E008950F934132A5
:100D100008F04AC0909123029111FCCF92E0909389
:100D20002302009321029FEF9093B6011092FB01E2
:100D30004093FA01FB016CEF71E0DB019A2F961BE7
:100D4000941718F491919D93F9CF109222029091EB
:100D50002202880F892B8093220280912002813009
:100D600061F410922002809122028093BB00809156
:100D7000BC0083FDF8CF85EC01C085EE8093BC00FC
:100D8000222321F0809123028230E1F38091B60189
:100D90008F3F61F08091B601803251F08091B601B1
:100DA000803341F483E007C081E005C080E003C0E8
:100DB00082E001C084E00F910895613298F420919F
:100DC0002302243089F46093D801FC018AED91E07C
:100DD000DC012A2F281B261718F421912D93F9CF17
:100DE00080E0089581E0089582E0089585ED809384
:100DF000BC008091BC0084FDFCCF109223020895BA
:100E000085EC8093BC001092230208951F920F92EC
:100E10000FB60F9211242F933F934F935F936F93CD
:100E20007F938F939F93AF93BF93EF93FF938091A3
:100E3000B900887F803609F49EC078F5883209F4BD
:100E40005DC090F4803109F456C038F4882309F469
:100E5000F5C0883009F44FC0F5C0883109F44EC0A0
:100E6000803209F45FC0EEC0803409F46AC058F4DF
:100E7000803309F457C0883309F0E4C08093B60189
:100E80000E940007DFC0803509F44FC0883509F49F
:100E90005DC0883409F0D6C0D3C0883909F4C4C015
:100EA000A8F4883709F467C038F4883609F463C0B9
:100EB000803709F460C0C6C0883809F4B5C08039ED
:100EC00009F45FC0803809F0BDC05BC0803B09F405
:100ED00083C038F4803A09F466C0883A09F47CC0CB
:100EE000B1C0803C09F4A4C0883C09F4A1C0883B8F
:100EF00009F487C0A7C08091220210C09091FB0125
:100F00008091FA01981770F5E091FB0181E08E0F56
:100F10008093FB01F0E0E450FE4F80818093BB00A2
:100F200085EC83C08093B6018BC0E091FB0181E02A
:100F30008E0F8093FB018091BB00F0E0E450FE4FE8
:100F400080839091FB018091FA016BC0E091FB01DD
:100F500081E08E0F8093FB018091BB00F0E0E450B4
:100F6000FE4F80838091210281116AC081E08093CD
:100F7000200284EA5EC083E0809323021092B701CE
:100F8000CFCF8091B701803208F04EC0E091B70119
:100F900081E08E0F8093B7018091BB00F0E0E854B0
:100FA000FE4F8083BDCF0E9400078091B701803241
:100FB00030F4E091B701F0E0E854FE4F1082609108
:100FC000B70170E0E0911C02F0911D0288EB91E006
:100FD00009951092B70136C084E0809323021092E5
:100FE000D9011092D801E0911E02F0911F020995DB
:100FF0008091D801811105C081E08093D8011092C1
:10100000DA01E091D90181E08E0F8093D901F0E0FF
:10101000E652FE4F80818093BB009091D901809170
:10102000D801981708F47CCF85E88093BC000AC0EB
:1010300085EC8093BC001092230204C01092B6018C
:101040000E94F606FF91EF91BF91AF919F918F9112
:101050007F916F915F914F913F912F910F900FBEB4
:101060000F901F9018958091540290E020915502A6
:10107000821B9109089520915502809154022817EE
:1010800050F4E22FF0E0EA5AFD4F808190E02F5FAC
:101090002093550208958FEF9FEF0895E091550238
:1010A00080915402E81730F4F0E0EA5AFD4F808155
:1010B00090E008958FEF9FEF08950895CF92DF920B
:1010C000EF92FF920F931F93CF93DF937C01CB019D
:1010D0008A0120913002222389F0EB016B01C40EBA
:1010E000D51ECC15DD0569F06991D701ED91FC9114
:1010F0000190F081E02DC7010995F3CF642F0E9484
:10110000DD06C801DF91CF911F910F91FF90EF9005
:10111000DF90CF900895CF93DF931F92CDB7DEB7C6
:101120006983209130022223D1F0209131022032B4
:1011300040F021E030E0FC013383228380E090E046
:1011400015C080913202E82FF0E0ED5CFD4F9981EF
:1011500090838F5F809332028093310205C061E0FB
:10116000CE0101960E94DD0681E090E00F90DF91B4
:10117000CF910895FC011382128248EE53E060E0A3
:1011800070E044835583668377838CE391E0918399
:1011900080830895109255021092540210923202E8
:1011A000109231020C94200681E08093300260930B
:1011B0005302109232021092310208950C94D40816
:1011C0000F93062F21E04091310263E372E080919A
:1011D00053020E948606109232021092310210923F
:1011E00030020F9108958F929F92AF92BF92CF924B
:1011F000DF92EF92FF920F931F93CF93DF93EC0157
:10120000F62ED42E48015901EE2019F10E94D4087F
:101210001E2D143008F013E01150B8F0E881F98168
:1012200028E0129FB0011124A501940104C0569535
:101230004795379527956A95D2F7CA01B90101906C
:10124000F081E02DCE010995E7CF60E0CE010E944C
:10125000E0084D2D413208F040E22C2D66E572E0A9
:101260008F2D0E943E061092550280935402DF910A
:10127000CF911F910F91FF90EF90DF90CF90BF9093
:10128000AF909F908F900895CF92EF920F931F93FE
:10129000C22EE12C00E010E098010E94F3081F919B
:1012A0000F91EF90CF90089521E00C94440961E0F4
:1012B0000C94E00884E292E00C94BA082CE431E04B
:1012C000FC0131832083738362830895CF92DF9280
:1012D000EF92FF92CF93DF93EC016A817B8184E2EE
:1012E00092E00E94DE08E0912402F0912502019034
:1012F000F081E02D60E084E292E0099584E292E0E2
:101300000E9457096A817B8141E050E084E292E0CB
:101310000E94540984E292E00E943308892BD1F3A1
:1013200084E292E00E943B08BC01882777FD80950B
:10133000982F0E9404136B017C0122E030E0AB0186
:10134000BC0186E792E00E949F0EC701B601DF91C3
:10135000CF91FF90EF90DF90CF90089561E0FC0176
:1013600082810C949D1160E0FC0182810C949D119E
:10137000FC01862F22E531E0318320836283738371
:1013800061E00C946411AF92BF92CF92DF92EF9222
:10139000FF920F931F93FC0182810E941E11BC01DA
:1013A000882777FD8095982F1F921F921F922FEF0D
:1013B0002F93A12CB12C6501EE24EA9413E0F12EB9
:1013C00000E010E020E030E0A9010E94B10E0F9093
:1013D0000F900F900F90CB011F910F91FF90EF9006
:1013E000DF90CF90BF90AF9008952AE531E0FC01E7
:1013F000318320837383628308958F929F92AF928B
:10140000BF92CF92DF92EF92FF92CF93DF93EC01E6
:101410006A017B014E835F836887798760E08A81F8
:101420000E949D1183E090E00E94D81061E08A81C3
:101430000E949D1185E090E00E94D81060E08A81B2
:101440000E949D1120E432E44FE050E061E08C8185
:101450000E94D3110E94021320E030E04AE754E4D6
:101460000E94691220E030E04AE754E40E946912C9
:1014700020E030E040E05FE30E94B8134B015C01E4
:101480002AE939E949E15FE3C701B6010E94B813CF
:1014900020E030EC45EA53E40E9401129B01AC01CC
:1014A000C501B4010E94B813DF91CF91FF90EF9076
:1014B000DF90CF90BF90AF909F908F900895AF92A4
:1014C000BF92DF92EF92FF920F931F93CF93DF9320
:1014D0001F92CDB7DEB75C01E62EF42ED52E20E6A6
:1014E00031E0FC013183208362837383448355831D
:1014F00061E08E2D79830E94641160E08F2D0E943F
:10150000641100E010E020EA31E4F501068317835E
:10151000208731874AE050E06E2D798186E792E09E
:101520000E949C0D4AE050E06F2D7D2D86E792E0F1
:101530000F90DF91CF911F910F91FF90EF90DF906F
:10154000BF90AF900C949C0DFC01818D228D90E09A
:10155000805C9F4F821B91098F7399270895FC012E
:10156000918D828D981731F0828DE80FF11D858D58
:1015700090E008958FEF9FEF0895FC01918D828D8B
:10158000981761F0828DDF01A80FB11D5D968C91D7
:10159000928D9F5F9F73928F90E008958FEF9FEFE2
:1015A000089581E49CE0892B49F086ED95E0892B34
:1015B00029F00E94410C81110C94D6050895FC017C
:1015C000848DDF01A80FB11DA35ABF4F2C91848DCC
:1015D00090E001968F739927848FA689B7892C9301
:1015E000A089B1898C9180648C93938D848D98139C
:1015F00006C00288F389E02D80818F7D8083089565
:10160000CF93DF93EC01888D8823C9F0EA89FB89A9
:10161000808185FD05C0A889B9898C9186FD0FC0A0
:101620000FB607FCF5CF808185FFF2CFA889B98975
:101630008C9185FFEDCFCE010E94DF0AE7CFDF91CD
:10164000CF910895CF92DF92FF920F931F93CF9384
:10165000DF931F92CDB7DEB76C0181E0D6015896BB
:101660008C9358975B969C915B975C968C915C975A
:10167000981307C05096ED91FC915197808185FD9C
:101680002EC0F601038D10E00F5F1F4F0F7311275F
:10169000F02EF601848DF81211C00FB607FCF9CFB9
:1016A000D6015096ED91FC915197808185FFF1CF45
:1016B000C60169830E94DF0A6981EBCF838DE80F41
:1016C000F11DE35AFF4F6083D6015B960C935B9745
:1016D0005296ED91FC915397808180620CC0D601A7
:1016E0005696ED91FC91579760835096ED91FC9141
:1016F000519780818064808381E090E00F90DF913A
:10170000CF911F910F91FF90DF90CF900895BF92DE
:10171000CF92DF92EF92FF92CF93DF93EC016A01B9
:101720007B01B22EE889F98982E08083411581EE40
:10173000580761057105A1F060E079E08DE390E064
:10174000A70196010E942F14215031094109510926
:101750005695479537952795211580E1380798F0DC
:10176000E889F989108260E874E88EE190E0A701C9
:1017700096010E942F1421503109410951095695B3
:10178000479537952795EC85FD853083EE85FF8558
:101790002083188EEC89FD89B082EA89FB898081DB
:1017A00080618083EA89FB89808188608083EA89FF
:1017B000FB89808180688083EA89FB8980818F7DB5
:1017C0008083DF91CF91FF90EF90DF90CF90BF901B
:1017D00008951F920F920FB60F9211242F938F939B
:1017E0009F93EF93FF93E0918602F09187028081AF
:1017F000E0918C02F0918D0282FD12C09081809167
:101800008F028F5F8F7320919002821751F0E091C9
:101810008F02F0E0EA58FD4F958F80938F0201C050
:101820008081FF91EF919F918F912F910F900FBE2B
:101830000F901F9018951F920F920FB60F921124C0
:101840002F933F934F935F936F937F938F939F93C8
:10185000AF93BF93EF93FF9386E792E00E94DF0A76
:10186000FF91EF91BF91AF919F918F917F916F9178
:101870005F914F913F912F910F900FBE0F901F904E
:10188000189586E792E00E94A40A21E0892B09F4CA
:1018900020E0822F0895109279021092780288EE4B
:1018A00093E0A0E0B0E080937A0290937B02A09353
:1018B0007C02B0937D0286E691E09093770280935C
:1018C000760285EC90E0909383028093820284EC10
:1018D00090E0909385028093840280EC90E0909356
:1018E00087028093860281EC90E090938902809336
:1018F000880282EC90E090938B0280938A0286ECBF
:1019000090E090938D0280938C0210928F0210923F
:10191000900210929102109292020895CF92DF925B
:10192000EF92FF920F931F93CF93DF937C016A0195
:10193000EB0100E010E00C151D0571F06991D70175
:10194000ED91FC910190F081E02DC7010995892B63
:1019500019F00F5F1F4FEFCFC801DF91CF911F919B
:101960000F91FF90EF90DF90CF9008956115710572
:1019700081F0DB010D900020E9F7AD0141505109E4
:10198000461B570BDC01ED91FC910280F381E02DA9
:10199000099480E090E00895DC01ED91FC91DB0179
:1019A00014964D915C9115976D917C910280F38115
:1019B000E02D09940C94B60CDC01ED91FC910190A2
:1019C000F081E02D099462E771E00C94B60C0F935E
:1019D0001F93CF93DF93EC010E94CC0C8C01CE01BE
:1019E0000E94E30C800F911FDF91CF911F910F9107
:1019F00008958F929F92AF92BF92CF92DF92EF9213
:101A0000FF920F931F93CF93DF93CDB7DEB7A197CC
:101A10000FB6F894DEBF0FBECDBF7C01C42EE52FFC
:101A2000CB01D22E19A221E02D1510F02AE0D22EE2
:101A30008E010F5D1F4F8D2C912CA12CB12C6C2D84
:101A40007E2FA50194010E942F148C2DD29E801907
:101A50001124015011098A3014F4805D01C0895CA1
:101A6000F8018083211531054105510521F0C22E71
:101A7000E32FCA01E4CFB801C7010E94B60CA196BA
:101A80000FB6F894DEBF0FBECDBFDF91CF911F918F
:101A90000F91FF90EF90DF90CF90BF90AF909F900D
:101AA0008F900895CF92DF92EF92FF920F931F9342
:101AB000CF93DF93EC016A017B012115310579F4A5
:101AC000E881F9810190F081E02D642FDF91CF91C1
:101AD0001F910F91FF90EF90DF90CF9009942A30E3
:101AE0003105E9F477FF1AC06DE20E94DC0C8C012D
:101AF00044275527BA014C195D096E097F092AE070
:101B0000CE010E94F90C800F911FDF91CF911F91A0
:101B10000F91FF90EF90DF90CF9008952AE0B701EA
:101B2000A601CE01DF91CF911F910F91FF90EF9011
:101B3000DF90CF900C94F90C0F931F93CF93DF930A
:101B4000EC019A01AB01662757FD6095762F0E9444
:101B5000520D8C01CE010E94E30C800F911FDF918A
:101B6000CF911F910F9108954F925F926F927F9244
:101B70008F929F92AF92BF92CF92DF92EF92FF929D
:101B80000F931F93CF93DF93EC016A017B01B22E79
:101B90009A01AB01C701B6010E941B14882319F0FA
:101BA00065E771E027C026013701E89477F82FEF49
:101BB0003FEF4FE75FE7C301B2010E941B148111A1
:101BC0000DC02FEF3FEF4FE75FE7C301B2010E9467
:101BD000651218161CF469E771E00CC02FEF3FEF97
:101BE0004FE75FE4C701B6010E94B4131816ACF4C6
:101BF0006DE771E0CE01DF91CF911F910F91FF90C2
:101C0000EF90DF90CF90BF90AF909F908F907F909C
:101C10006F905F904F900C94B60C2FEF3FEF4FE713
:101C20005FECC701B6010E94651287FDE1CF20E09D
:101C300030E0A901C701B6010E94651287FF0AC002
:101C40006DE2CE010E94DC0C8C01F7FAF094F7F8FB
:101C5000F09402C000E010E0A12C60E070E080E0B1
:101C60009FE3AB1441F020E030E040E251E40E94F9
:101C70006912A394F6CF9B01AC01C701B6010E9483
:101C800001126B017C010E94D6122B013C010E94C3
:101C900002139B01AC01C701B6010E9400126B0147
:101CA0007C012AE0B301A201CE010E94F90C080FC9
:101CB000191FBB2039F061E871E0CE010E94B60C1B
:101CC000080F191F7B2C772041F120E030E040E223
:101CD00051E4C701B6010E94B8136B017C010E9458
:101CE000D1124B01AA2497FCA094BA2C2AE030E030
:101CF000B501A401CE010E94520D080F191FC501A4
:101D0000B4010E9404139B01AC01C701B6010E94FB
:101D100000126B017C017A94D6CFC801DF91CF917C
:101D20001F910F91FF90EF90DF90CF90BF90AF90F9
:101D30009F908F907F906F905F904F9008950F933A
:101D40001F93CF93DF93EC010E94B40D8C01CE0161
:101D50000E94E30C800F911FDF91CF911F910F9193
:101D600008954F925F926F927F92AF92BF92CF92FF
:101D7000DF92EF92FF920F931F93CF93DF93CDB734
:101D8000DEB729013A01621B730B840B950B29897D
:101D90003A894B895C892A193B094C095D09298BD1
:101DA0003A8B4B8B5C8B9B01AC0169897A898B895F
:101DB0009C890E941F14E418F50806091709A80158
:101DC00097010E9451142A0D3B1D4C1D5D1DCA0137
:101DD000B901DF91CF911F910F91FF90EF90DF90AC
:101DE000CF90BF90AF907F906F905F904F9008958D
:101DF000FC01808191810C944915CF93DF93EC0114
:101E000088819981009711F00E94491519821882E2
:101E10001D821C821B821A82DF91CF9108950F933D
:101E20001F93CF93DF93EC018B016F5F7F4F88810E
:101E300099810E94D815009731F0998388831B837C
:101E40000A8381E001C080E0DF91CF911F910F9163
:101E50000895CF93DF93EC0188819981892B29F034
:101E60008A819B818617970760F4CE010E940F0F2D
:101E7000882341F08C819D81892B19F4E881F981B7
:101E8000108281E0DF91CF910895EF92FF920F933E
:101E90001F93CF93DF93EC017B018A01BA010E946B
:101EA000290F811104C0CE010E94FD0E07C01D83C1
:101EB0000C83B701888199810E94C916CE01DF91F8
:101EC000CF911F910F91FF90EF900895FC01118227
:101ED000108213821282158214826115710559F0E5
:101EE000FB0101900020E9F7AF0141505109461B69
:101EF000570B0C94450F0895CF93DF93EC01FB0132
:101F00008617970761F0608171816115710529F06D
:101F1000448155810E94450F02C00E94FD0ECE01F2
:101F2000DF91CF910895FC011182108213821282F9
:101F3000158214820C947C0FCF93DF93EC01611512
:101F4000710561F0FB0101900020E9F7AF014150FC
:101F50005109461B570B0E94450F02C00E94FD0EFF
:101F6000CE01DF91CF910895EF92FF920F931F93CF
:101F7000CF93DF93CDB7DEB7A1970FB6F894DEBF4E
:101F80000FBECDBF7C01CB01BA01F70111821082D7
:101F9000138212821582148242E0420F8E010F5F7B
:101FA0001F4F0E949014BC01C7010E949C0FA19674
:101FB0000FB6F894DEBF0FBECDBFDF91CF911F915A
:101FC0000F91FF90EF900895EF92FF920F931F9360
:101FD000CF93DF93EC017B010C811D8161157105AD
:101FE00011F480E016C04115510591F0040F151F42
:101FF000B8010E94290F8823A1F3288139818C819F
:102000009D81B701820F931F0E94C9161D830C8307
:1020100081E0DF91CF911F910F91FF90EF90089594
:10202000CF93DF9300D0CDB7DEB769831A8241E04A
:1020300050E0BE016F5F7F4F0E94E40F0F900F9042
:10204000DF91CF91089508950E94E3100E9423101C
:102050000E945201C1EDDAE00E94F9012097E1F3FC
:102060000E94D10AF9CF0C94B1140C9449151F9217
:102070000F920FB60F9211242F933F938F939F933C
:10208000AF93BF938091140390911503A091160311
:10209000B09117033091130323E0230F2D3720F461
:1020A0000196A11DB11D05C026E8230F0296A11DB2
:1020B000B11D209313038093140390931503A093F1
:1020C0001603B09317038091180390911903A09100
:1020D0001A03B0911B030196A11DB11D8093180333
:1020E00090931903A0931A03B0931B03BF91AF9170
:1020F0009F918F913F912F910F900FBE0F901F9046
:1021000018952FB7F894609114037091150380917E
:102110001603909117032FBF08953FB7F89480914D
:10212000180390911903A0911A03B0911B0326B5CF
:10213000A89B05C02F3F19F00196A11DB11D3FBFFF
:102140006627782F892F9A2F620F711D811D911D8F
:1021500042E0660F771F881F991F4A95D1F70895AF
:10216000CF92DF92EF92FF92CF93DF936B017C01CE
:102170000E948D10EB01C114D104E104F10489F037
:102180000E94FF110E948D106C1B7D0B683E7340F6
:1021900090F381E0C81AD108E108F108C851DC4F7A
:1021A000EACFDF91CF91FF90EF90DF90CF9008952D
:1021B0008230910538F0880F991F880F991F059775
:1021C0000197F1F70895789484B5826084BD84B551
:1021D000816084BD85B5826085BD85B5816085BD22
:1021E000EEE6F0E0808181608083E1E8F0E010823B
:1021F000808182608083808181608083E0E8F0E07C
:10220000808181608083E1EBF0E080818460808365
:10221000E0EBF0E0808181608083EAE7F0E080819C
:1022200084608083808182608083808181608083FC
:102230008081806880831092C10008958E3008F0FC
:102240008E50877020910A0190E4299F90011124FB
:10225000822B80937C0080917A00806480937A0046
:1022600080917A0086FDFCCF8091780020917900E2
:1022700090E0922B0895833081F028F4813099F01A
:102280008230A1F008958730A9F08830B9F0843009
:10229000D1F4809180008F7D03C0809180008F7782
:1022A00080938000089584B58F7702C084B58F7DB8
:1022B00084BD08958091B0008F7703C08091B000F5
:1022C0008F7D8093B0000895CF93DF9390E0FC0161
:1022D000E458FF4F2491FC01E057FF4F849188237D
:1022E00049F190E0880F991FFC01E854FF4FA59138
:1022F000B49182559F4FFC01C591D4919FB7611154
:1023000008C0F8948C91209582238C938881822335
:102310000AC0623051F4F8948C91322F30958323A7
:102320008C938881822B888304C0F8948C91822BB3
:102330008C939FBFDF91CF9108950F931F93CF93FD
:10234000DF931F92CDB7DEB7282F30E0F901E859AF
:10235000FF4F8491F901E458FF4F1491F901E057C0
:10236000FF4F04910023C9F0882321F069830E9464
:102370003B116981E02FF0E0EE0FFF1FE255FF4FA8
:10238000A591B4919FB7F8948C91611103C01095F9
:10239000812301C0812B8C939FBF0F90DF91CF9140
:1023A0001F910F9108950F931F93762F90E0FC01DA
:1023B000E458FF4F6491FC01E057FF4FE491711125
:1023C000762FF0E0EE0FFF1FEC55FF4F85919491B3
:1023D00089019A013F70472F0E940D016115710517
:1023E0008105910531F06F5F7F4F8F4F9F4F9F7039
:1023F00003C060E070E0CB011F910F910895089534
:102400005058BB27AA270ED075C166D130F06BD1CA
:1024100020F031F49F3F11F41EF45BC10EF4E095FF
:10242000E7FB51C1E92F77D180F3BA176207730731
:102430008407950718F071F49EF58FC10EF4E095AE
:102440000B2EBA2FA02D0B01B90190010C01CA016E
:10245000A0011124FF27591B99F0593F50F4503E19
:1024600068F11A16F040A22F232F342F4427585F0B
:10247000F3CF469537952795A795F0405395C9F723
:102480007EF41F16BA0B620B730B840BBAF09150DB
:10249000A1F0FF0FBB1F661F771F881FC2F70EC07A
:1024A000BA0F621F731F841F48F48795779567954D
:1024B000B795F7959E3F08F0B3CF9395880F08F036
:1024C0009927EE0F979587950895D9D008F481E064
:1024D00008950CD00FC107D140F0FED030F021F4A8
:1024E0005F3F19F0F0C0511139C1F3C014D198F316
:1024F0009923C9F35523B1F3951B550BBB27AA2785
:1025000062177307840738F09F5F5F4F220F331FF6
:10251000441FAA1FA9F333D00E2E3AF0E0E830D0C2
:1025200091505040E695001CCAF729D0FE2F27D0C5
:10253000660F771F881FBB1F261737074807AB0793
:10254000B0E809F0BB0B802DBF01FF2793585F4F08
:102550002AF09E3F510568F0B6C000C15F3FECF322
:10256000983EDCF3869577956795B795F7959F5FCD
:10257000C9F7880F911D9695879597F90895E1E021
:10258000660F771F881FBB1F621773078407BA0780
:1025900020F0621B730B840BBA0BEE1F88F7E095DB
:1025A000089504D06894B111D9C00895BCD088F0C2
:1025B0009F5790F0B92F9927B751A0F0D1F0660F2F
:1025C000771F881F991F1AF0BA95C9F712C0B1304A
:1025D00081F0C3D0B1E00895C0C0672F782F88275D
:1025E000B85F39F0B93FCCF3869577956795B39589
:1025F000D9F73EF490958095709561957F4F8F4FF8
:102600009F4F0895E89409C097FB3EF490958095FC
:10261000709561957F4F8F4F9F4F9923A9F0F92FA8
:1026200096E9BB279395F695879577956795B79526
:10263000F111F8CFFAF4BB0F11F460FF1BC06F5F0C
:102640007F4F8F4F9F4F16C0882311F096E911C01E
:10265000772321F09EE8872F762F05C0662371F03F
:1026600096E8862F70E060E02AF09A95660F771F53
:10267000881FDAF7880F9695879597F90895990F2F
:102680000008550FAA0BE0E8FEEF16161706E8073C
:10269000F907C0F012161306E407F50798F0621B5D
:1026A000730B840B950B39F40A2661F0232B242B32
:1026B000252B21F408950A2609F4A140A6958FEF51
:1026C000811D811D089597F99F6780E870E060E0A3
:1026D00008959FEF80EC089500240A9416161706BB
:1026E00018060906089500240A9412161306140603
:1026F00005060895092E0394000C11F4882352F066
:10270000BB0F40F4BF2B11F460FF04C06F5F7F4F1D
:102710008F4F9F4F089557FD9058440F551F59F004
:102720005F3F71F04795880F97FB991F61F09F3FBE
:1027300079F087950895121613061406551FF2CFE7
:102740004695F1DF08C0161617061806991FF1CF37
:1027500086957105610508940895E894BB2766275E
:102760007727CB0197F908958ADF08F48FEF089552
:102770000BD0C0CFB1DF28F0B6DF18F0952309F0F9
:10278000A2CFA7CF1124EACFC6DFA0F3959FD1F344
:10279000950F50E0551F629FF001729FBB27F00D0F
:1027A000B11D639FAA27F00DB11DAA1F649F662764
:1027B000B00DA11D661F829F2227B00DA11D621FB3
:1027C000739FB00DA11D621F839FA00D611D221F6D
:1027D000749F3327A00D611D231F849F600D211D51
:1027E000822F762F6A2F11249F5750408AF0E1F0F4
:1027F00088234AF0EE0FFF1FBB1F661F771F881F3D
:1028000091505040A9F79E3F510570F05CCFA6CF84
:102810005F3FECF3983EDCF3869577956795B79527
:10282000F795E7959F5FC1F7FE2B880F911D969551
:10283000879597F9089523DF880B990B0895DB019D
:102840008F939F930E947014BF91AF91A29F800DB0
:10285000911DA39F900DB29F900D11240895A1E2A8
:102860001A2EAA1BBB1BFD010DC0AA1FBB1FEE1F0A
:10287000FF1FA217B307E407F50720F0A21BB30B55
:10288000E40BF50B661F771F881F991F1A9469F7D1
:1028900060957095809590959B01AC01BD01CF012D
:1028A0000895052E97FB1EF400940E94681457FDAE
:1028B00007D00E942F1407FC03D04EF40C94681428
:1028C00050954095309521953F4F4F4F5F4F08955C
:1028D00090958095709561957F4F8F4F9F4F08958C
:1028E0000E948114A59F900DB49F900DA49F800D10
:1028F000911D11240895EE0FFF1F0590F491E02D16
:102900000994A29FB001B39FC001A39F700D811DC8
:102910001124911DB29F700D811D1124911D0895E8
:10292000EF920F931F93CF93DF93E80147FF02C00D
:1029300034E101C034E0E42FFF27E7FDF095F7FF15
:1029400003C0F195E195F109E32E022F2E2FAE0180
:102950000E94D816CE01DF91CF911F910F91EF9079
:102960000895CF93DF938230910510F482E090E0D8
:10297000E0911E03F0911F0320E030E0A0E0B0E002
:10298000309739F14081518148175907B8F04817FD
:10299000590771F482819381109729F013969C93C3
:1029A0008E9312972CC090931F0380931E0327C011
:1029B0002115310531F04217530718F0A901DB0149
:1029C00001C0EF019A01BD01DF010280F381E02D1A
:1029D000D7CF21153105F9F0281B390B24303105EB
:1029E00080F48A819B816115710521F0FB0193833D
:1029F000828304C090931F0380931E03FE013296CE
:102A000044C0FE01E20FF31F8193919322503109DC
:102A1000398328833AC020911C0330911D03232B56
:102A200041F4209102013091030130931D03209362
:102A30001C0320910001309101012115310541F461
:102A40002DB73EB74091040150910501241B350B71
:102A5000E0911C03F0911D03E217F307A0F42E1B75
:102A60003F0B2817390778F0AC014E5F5F4F2417F2
:102A7000350748F04E0F5F1F50931D0340931C0312
:102A80008193919302C0E0E0F0E0CF01DF91CF911C
:102A90000895CF93DF93009709F487C0FC01329724
:102AA00013821282C0911E03D0911F03209781F4DC
:102AB00020813181280F391F80911C0390911D03C3
:102AC0008217930779F5F0931D03E0931C036DC003
:102AD000DE0120E030E0AE17BF0750F412964D91B2
:102AE0005C9113979D014115510509F1DA01F3CF6E
:102AF000B383A28340815181840F951F8A179B075E
:102B000071F48D919C911197840F951F029691837A
:102B1000808312968D919C911397938382832115C4
:102B2000310529F4F0931F03E0931E033EC0D90141
:102B30001396FC93EE9312974D915D91A40FB51FE0
:102B4000EA17FB0779F480819181840F951F029623
:102B5000D90111969C938E938281938113969C93B5
:102B60008E931297E0E0F0E08A819B81009719F044
:102B7000FE01EC01F9CFCE01029628813981820F46
:102B8000931F20911C0330911D032817390769F406
:102B9000309729F410921F0310921E0302C0138273
:102BA0001282D0931D03C0931C03DF91CF9108952F
:102BB000A0E0B0E0EEEDF5E10C943219EC01CB01B0
:102BC000209719F40E94B114B8C0FE01E60FF71F58
:102BD0009E0122503109E217F30708F4ACC0D90175
:102BE0000D911C91119706171707B8F005301105C4
:102BF00008F49FC0A801445051094617570708F42C
:102C000098C002501109061B170B019311936D9385
:102C10007C93CF010E9449158CC05B01A01AB10AB8
:102C20004E01800E911EA0911E03B0911F03612CD6
:102C3000712C60E070E0109709F449C0A815B9053F
:102C4000C9F5ED90FC901197670142E0C40ED11CCC
:102C5000CA14DB0478F147018A189B08640142E03A
:102C6000C40ED11C1296BC9012971396AC91B5E08D
:102C7000CB16D10440F0B282A38391828082D90125
:102C80008D939C9309C00E5F1F4F0E0D1F1DF90100
:102C900011830083EB2DFA2F6115710531F0DB01F3
:102CA0001396FC93EE93129744C0F0931F03E093A6
:102CB0001E033FC06D917C9111976616770608F44C
:102CC0003B01BD0112960D90BC91A02DB4CF609137
:102CD0001C0370911D0368157905E9F468167906DF
:102CE000D0F440910001509101014115510541F48A
:102CF0004DB75EB76091040170910501461B570BFB
:102D0000E417F507C0F4F0931D03E0931C03F901E9
:102D1000918380830EC00E94B1147C01009759F00A
:102D2000A801BE010E94C016CE010E944915C7012C
:102D300004C0CE0102C080E090E0CDB7DEB7EEE087
:102D40000C944E19FC0188279927E8942191203290
:102D5000E9F3293010F02E30C8F32B3241F02D3238
:102D600039F4689404C00E94D016820F911D2191FD
:102D700020532A30C0F31EF4909581959F4F0895FB
:102D8000FB01DC0102C001900D9241505040D8F788
:102D90000895FB01DC0101900D920020E1F70895F8
:102DA0007AE0979F902D879F802D910D1124089593
:102DB0006F927F929F92AF92BF92CF92DF92EF92EB
:102DC000FF920F931F93CF93DF93CDB7DEB7299771
:102DD0000FB6F894DEBF0FBECDBF6A01B22E102F22
:102DE0000C3320F4FF24F394F00E02C04CE3F42ED5
:102DF0000F2D27E0AE014F5F5F4F0E94561879817B
:102E0000272F2970213031F0E1FC06C0E0FC06C01C
:102E100060E005C06DE203C06BE201C060E2AE2D70
:102E2000A07173FF36C0662311F084E001C083E017
:102E30008B1510F4B81A01C0B12CA1110BC0F6010A
:102E40008B2D90E2882319F091938150FBCFCB0C0E
:102E5000D11CB12C662331F0F601608396012F5FFF
:102E60003F4F6901C6010396E2FE05C02EE4F6015C
:102E7000208331E404C02EE6F601208331E631835D
:102E80002283FC012B2D30E22223F1F131932150DA
:102E9000FBCF72FF40C0662311F084E001C083E0E5
:102EA0008B1510F4B81A01C0B12CA1110BC0F6019A
:102EB0008B2D90E2882319F091938150FBCFCB0C9E
:102EC000D11CB12C662331F0F601608396012F5F8F
:102ED0003F4F6901C6010396E2FE07C029E4F601EF
:102EE00020832EE4218326E406C029E6F601208310
:102EF0002EE6218326E62283FC012B2D30E22223BD
:102F000019F031932150FBCFFC01EB0DF11D108224
:102F10008EEF9FEFB7C0B1E0611101C0B0E04B2F61
:102F200050E01816190624F49C012F5F3F4F02C091
:102F300021E030E0240F351F112329F0412F50E00C
:102F40004F5F5F4F02C040E050E0420F531F2B2DF8
:102F500030E04217530714F4B41A01C0B12C2E2DDF
:102F6000287159F4F6012B2D30E2222319F0319308
:102F70002150FBCFCB0CD11CB12CBB2331F0F6017F
:102F8000608396012F5F3F4F6901A1110BC0F601CD
:102F90002B2D30E3222319F031932150FBCFCB0CA2
:102FA000D11CB12CF80E0A81372F3071A32E74FF7B
:102FB00003C0013309F4FA941F142CF42F2D293087
:102FC00018F028E001C021E0682F392F97FF02C0D8
:102FD00060E030E0462F532F612C712C3EE2932E9F
:102FE000BC01621B71099B01DC01A41BB50BE1E074
:102FF000F0E0EC0FFD1FAE0FBF1FE12EF12CF1949E
:10300000E194F1084F3FFFEF5F0731F4F601908242
:10301000B6016F5F7F4F6B01841795074CF0241743
:10302000350734F4BD01660D771DFB01118101C028
:1030300010E341505109FFEF6F1A7F0AB6016F5F2D
:103040007F4F4E155F0524F0F60110836B01DACF38
:103050004817590739F4063320F4053319F4A11041
:1030600001C011E3F6011083FB018B2D90E2882350
:1030700019F091938150FBCFFB01EB0DF11D1082F4
:1030800080E090E029960FB6F894DEBF0FBECDBF6A
:10309000DF91CF911F910F91FF90EF90DF90CF9034
:1030A000BF90AF909F907F906F900895283008F068
:1030B00027E03327DA01990F311D87FD91600096D3
:1030C0006105710539F432602E5F3D9330E32A9536
:1030D000E1F708959F3F30F080387105610509F0F0
:1030E0003C5F3C5F3D93913008F08068911DDF9319
:1030F000CF931F930F93FF92EF92192F987F96957E
:10310000E92F96959695E90FFF27E45EFE4F9927E4
:103110003327EE24FF24A701E701059008940794C4
:1031200028F4360FE71EF81E491F511D660F771F42
:10313000881F991F0694A1F70590079428F4E70EBD
:10314000F81E491F561FC11D770F881F991F661F44
:103150000694A1F70590079428F4F80E491F561F0E
:10316000C71FD11D880F991F661F771F0694A1F7EF
:103170000590079420F4490F561FC71FD81F990FB9
:10318000661F771F881F0694A9F784911095177002
:1031900041F0D695C79557954795F794E7941A95BA
:1031A000C1F7E2ECF0E068941590159135916591C6
:1031B000959105907FE27395E118F10A430B560B48
:1031C000C90BD009C0F7E10CF11E431F561FC91FE0
:1031D000D01D7EF4703311F48A95E6CFE894015047
:1031E00030F0080F0AF40027021708F4202F239567
:1031F000022F7A3328F079E37D932A95E9F710C0FE
:103200007D932A9589F60694979567953795179536
:103210001794E118F10A430B560BC90BD00998F02B
:1032200023957E9173957A3308F070E37C93201395
:10323000B8F77E9170617D9330F0839571E37D9353
:1032400070E32A95E1F71124EF90FF900F911F9101
:10325000CF91DF91992787FD909508952F923F9206
:103260004F925F926F927F928F929F92AF92BF9296
:10327000CF92DF92EF92FF920F931F93CF93DF9342
:10328000CDB7DEB7CA1BDB0B0FB6F894DEBF0FBE9F
:10329000CDBF09942A88398848885F846E847D84EC
:1032A0008C849B84AA84B984C884DF80EE80FD80EE
:1032B0000C811B81AA81B981CE0FD11D0FB6F89464
:1032C000DEBF0FBECDBFED01089511E0C4ECD1E02B
:1032D00004C0FE010E947D142296C63CD107C9F7A6
:0432E000F894FFCF90
:1032E40000002003800001000000016369616F0099
:1032F400000000003902630200000000AA02C702B5
:103304000000000070038903000000005F04000057
:103314000000B704A004F604000000008B085E0857
:1033240033083B084E085D080000000066090000F1
:103334000000AE09B30900000000C309000000004A
:10334400FD0900000000220B8E0CA40ABD0AAF0A7E
:10335400000B0D0A006E616E00696E66006F766682
:04336400002E000037
:00000001FF
