:100000000C9463000C948B000C948B000C948B006C
:100010000C948B000C948B000C948B000C948B0034
:100020000C948B000C948B000C948B000C94850624
:100030000C948B000C948B000C948B000C948B0014
:100040000C94C00A0C948B000C94D9070C940B08E8
:100050000C948B000C948B000C948B000C948B00F4
:100060000C9416030C948B000000000800020100A1
:100070000003040700000000000000000102040863
:100080001020408001020408102001020408102002
:10009000040404040404040402020202020203032E
:1000A00003030303000000002300260029000000D2
:1000B0000000250028002B0000000000240027007D
:1000C0002A006A053B0811241FBECFEFD8E0DEBF2F
:1000D000CDBF11E0A0E0B1E0E4EDFFE102C005908A
:1000E0000D92A23AB107D9F723E0A2EAB1E001C02C
:1000F0001D92AC32B207E1F710E0C6ECD0E004C0CC
:100100002297FE010E94AE0EC23CD107C9F70E94A1
:10011000AF0A0C94E80F0C940000CF92DF92EF929C
:10012000FF920F931F93E82FF92F05C0015011097B
:100130002109310961F1908196239417B9F305C023
:10014000015011092109310911F19081962394136D
:10015000F7CFC12CD12CE12CF12C0AC08FEFC81A9B
:10016000D80AE80AF80A0C151D052E053F0579F096
:1001700080818623841791F36C2D7D2D8E2D9F2DEC
:100180001F910F91FF90EF90DF90CF90089560E066
:1001900070E080E090E01F910F91FF90EF90DF9072
:1001A000CF900895CF93DF9326E040E855E260E0DA
:1001B00070E082E892E00E9477078FE292E00E946E
:1001C000DA048AE090E00E94BE0AEC014BE050E0C5
:1001D0006CE070E00E945B06D093C001C093BF0149
:1001E0008AE090E00E94BE0AEC0149E050E06AE03B
:1001F00070E00E945B06D093BE01C093BD018AE00F
:1002000090E00E94BE0AEC0147E050E068E070E038
:100210000E945B06D093BC01C093BB0184E090E0D8
:100220000E94BE0AEC016DE070E00E94B405D0931C
:10023000BA01C093B90184E090E00E94BE0AEC01CB
:100240006EE070E00E94F105D093B801C093B70151
:1002500084E090E00E94BE0AEC0168E470E00E9435
:100260006E05D093B601C093B501DF91CF9108958B
:100270008091B5019091B601DC01ED91FC91019066
:10028000F081E02D0995AB01BC014093B101509381
:10029000B2016093B3017093B4018091BD0190915C
:1002A000BE01DC01ED91FC910190F081E02D0995FA
:1002B0006093AD017093AE018093AF019093B00154
:1002C0008091BF019091C001DC01ED91FC914091C2
:1002D000B1015091B2016091B3017091B4010190EC
:1002E000F081E02D09956093A9017093AA01809394
:1002F000AB019093AC018091BB019091BC01DC01FA
:10030000ED91FC914091B1015091B2016091B30126
:100310007091B4010190F081E02D09956093A501E1
:100320007093A6018093A7019093A8018091B701D3
:100330009091B801DC01ED91FC910190F081E02DEC
:1003400009959093A4018093A3016BE071E082E88A
:1003500092E00E94C7084091AD015091AE016091BA
:10036000AF017091B00122E030E082E892E00E949B
:10037000650A6DE171E082E892E00E94C708409151
:10038000A9015091AA016091AB017091AC0122E0EA
:1003900030E082E892E00E94650A6DE271E082E856
:1003A00092E00E94C7084091A5015091A60160917A
:1003B000A7017091A80122E030E082E892E00E945B
:1003C000650A6FE371E082E892E00E94C7086091DD
:1003D000A3017091A4014AE050E082E892E00E94FB
:1003E00072096AE471E082E892E00E94C7084091D5
:1003F000B1015091B2016091B3017091B40122E05A
:1004000030E082E892E00E94650A2091A20180918A
:10041000A3019091A401211112C085369105FCF42D
:100420008091B9019091BA01DC01ED91FC910190AC
:10043000F081E02D099581E08093A2010895853631
:1004400091056CF08091B9019091BA01DC01ED91B8
:10045000FC910280F381E02D09951092A20108958C
:1004600010922E0281E080932C0210922B0261E008
:1004700082E10E94CF0B61E083E10E94CF0BE9EBA8
:10048000F0E080818E7F808380818D7F808388E40F
:100490008093B80085E48093BC000895413208F051
:1004A00043C090912E029111FCCF91E090932E02C7
:1004B00020932C022FEF2093C10110920602240FEB
:1004C0002093050290932D0290912D02880F892B85
:1004D00080932D0280912B02813061F410922B02C7
:1004E00080912D028093BB008091BC0083FDF8CFEA
:1004F00085EC01C085EE8093BC0080912E02813096
:10050000E1F380910602841710F44091060227E07F
:1005100032E0FB01D9018A2F821B841718F48D91D8
:100520008193F9CF842F089580E008950F9341328D
:1005300008F04AC090912E029111FCCF92E0909366
:100540002E0200932C029FEF9093C101109206029D
:1005500040930502FB0167E072E0DB019A2F961BD6
:10056000941718F491919D93F9CF10922D029091C8
:100570002D02880F892B80932D0280912B028130D0
:1005800061F410922B0280912D028093BB00809128
:10059000BC0083FDF8CF85EC01C085EE8093BC00E4
:1005A000222321F080912E028230E1F38091C1015B
:1005B0008F3F61F08091C101803251F08091C10183
:1005C000803341F483E007C081E005C080E003C0D0
:1005D00082E001C084E00F910895613298F4209187
:1005E0002E02243089F46093E301FC0185EE91E052
:1005F000DC012A2F281B261718F421912D93F9CFFF
:1006000080E0089581E0089582E0089585ED80936B
:10061000BC008091BC0084FDFCCF10922E02089596
:1006200085EC8093BC0010922E0208951F920F92C9
:100630000FB60F9211242F933F934F935F936F93B5
:100640007F938F939F93AF93BF93EF93FF9380918B
:10065000B900887F803609F49EC078F5883209F4A5
:100660005DC090F4803109F456C038F4882309F451
:10067000F5C0883009F44FC0F5C0883109F44EC088
:10068000803209F45FC0EEC0803409F46AC058F4C7
:10069000803309F457C0883309F0E4C08093C10166
:1006A0000E941003DFC0803509F44FC0883509F47B
:1006B0005DC0883409F0D6C0D3C0883909F4C4C0FD
:1006C000A8F4883709F467C038F4883609F463C0A1
:1006D000803709F460C0C6C0883809F4B5C08039D5
:1006E00009F45FC0803809F0BDC05BC0803B09F4ED
:1006F00083C038F4803A09F466C0883A09F47CC0B3
:10070000B1C0803C09F4A4C0883C09F4A1C0883B76
:1007100009F487C0A7C080912D0210C090910602F5
:1007200080910502981770F5E091060281E08E0F26
:1007300080930602F0E0E95FFD4F80818093BB006B
:1007400085EC83C08093C1018BC0E091060281E0FB
:100750008E0F809306028091BB00F0E0E95FFD4FB1
:10076000808390910602809105026BC0E0910602A1
:1007700081E08E0F809306028091BB00F0E0E95F7C
:10078000FD4F808380912C0281116AC081E08093AB
:100790002B0284EA5EC083E080932E021092C20195
:1007A000CFCF8091C201803208F04EC0E091C201EB
:1007B00081E08E0F8093C2018091BB00F0E0ED5389
:1007C000FE4F8083BDCF0E9410038091C201803212
:1007D00030F4E091C201F0E0ED53FE4F10826091E1
:1007E000C20170E0E0912702F091280283EC91E0D1
:1007F00009951092C20136C084E080932E021092B7
:10080000E4011092E301E0912902F0912A02099596
:100810008091E301811105C081E08093E301109292
:10082000E501E091E40181E08E0F8093E401F0E0C6
:10083000EB51FE4F80818093BB009091E401809149
:10084000E301981708F47CCF85E88093BC000AC0C8
:1008500085EC8093BC0010922E0204C01092C1015E
:100860000E940603FF91EF91BF91AF919F918F91ED
:100870007F916F915F914F913F912F910F900FBE9C
:100880000F901F90189580915F0290E02091600278
:10089000821B910908952091600280915F022817C0
:1008A00050F4E22FF0E0EF59FD4F808190E02F5F90
:1008B0002093600208958FEF9FEF0895E09160020A
:1008C00080915F02E81730F4F0E0EF59FD4F80812E
:1008D00090E008958FEF9FEF08950895CF92DF92F3
:1008E000EF92FF920F931F93CF93DF937C01CB0185
:1008F0008A0120913B02222389F0EB016B01C40E97
:10090000D51ECC15DD0569F06991D701ED91FC91FB
:100910000190F081E02DC7010995F3CF642F0E946B
:10092000ED02C801DF91CF911F910F91FF90EF90E1
:10093000DF90CF900895CF93DF931F92CDB7DEB7AE
:10094000698320913B022223D1F020913C02203286
:1009500040F021E030E0FC013383228380E090E02E
:1009600015C080913D02E82FF0E0E25CFD4F9981D7
:1009700090838F5F80933D0280933C0205C061E0CD
:10098000CE0101960E94ED0281E090E00F90DF9190
:10099000CF910895FC011382128248EE53E060E08B
:1009A00070E044835583668377838AE591E0918381
:1009B000808308951092600210925F0210923D02AF
:1009C00010923C020C94300281E080933B026093D1
:1009D0005E0210923D0210923C0208950C94E404D1
:1009E0000F93062F21E040913C026EE372E080916C
:1009F0005E020E94960210923D0210923C021092FA
:100A00003B020F9108958F929F92AF92BF92CF9227
:100A1000DF92EF92FF920F931F93CF93DF93EC013E
:100A2000F62ED42E48015901EE2019F10E94E4045B
:100A30001E2D143008F013E01150B8F0E881F98150
:100A400028E0129FB0011124A501940104C056951D
:100A50004795379527956A95D2F7CA01B901019054
:100A6000F081E02DCE010995E7CF60E0CE010E9434
:100A7000F0044D2D413208F040E22C2D61E672E089
:100A80008F2D0E944E021092600280935F02DF91D0
:100A9000CF911F910F91FF90EF90DF90CF90BF907B
:100AA000AF909F908F900895CF92EF920F931F93E6
:100AB000C22EE12C00E010E098010E9403051F9176
:100AC0000F91EF90CF90089521E00C94540561E0D0
:100AD0000C94F0048FE292E00C94CA042AE631E010
:100AE000FC0131832083738362830895CF93DF9366
:100AF000EC016A817B818FE292E00E94EE04E0913A
:100B00002F02F09130020190F081E02D60E08FE241
:100B100092E009958FE292E00E9467056A817B81ED
:100B200041E050E08FE292E00E9464058FE292E0A3
:100B30000E944304892BD1F38FE292E00E944B0480
:100B4000BC01882777FD8095982F0E94350DDF9195
:100B5000CF91089561E0FC0182810C94CF0B60E09D
:100B6000FC0182810C94CF0BFC01862F20E731E041
:100B7000318320836283738361E00C94960BAF9280
:100B8000BF92CF92DF92EF92FF920F931F93FC01DF
:100B900082810E94500BBC01882777FD8095982F99
:100BA0001F921F921F922FEF2F93A12CB12C650142
:100BB000EE24EA9413E0F12E00E010E020E030E0B3
:100BC000A9010E94670A0F900F900F900F90CB0120
:100BD0001F910F91FF90EF90DF90CF90BF90AF905B
:100BE000089528E731E0FC01318320837383628319
:100BF00008958F929F92AF92BF92CF92DF92EF9221
:100C0000FF92CF93DF93EC016A017B014E835F83F8
:100C10006887798760E08A810E94CF0B83E090E04B
:100C20000E940A0B61E08A810E94CF0B85E090E070
:100C30000E940A0B60E08A810E94CF0B20E432E41C
:100C40004FE050E061E08C810E94050C0E94330D62
:100C500020E030E04AE754E40E949A0C20E030E0C3
:100C60004AE754E40E949A0C20E030E040E05FE361
:100C70000E94E90D4B015C012AE939E949E15FE392
:100C8000C701B6010E94E90D20E030EC45EA53E4CB
:100C90000E94320C9B01AC01C501B4010E94E90D18
:100CA000DF91CF91FF90EF90DF90CF90BF90AF900A
:100CB0009F908F9008950F931F93CF93DF931F9270
:100CC000CDB7DEB78C01862F2EE731E0F8013183F6
:100CD0002083628373834483558361E049830E9448
:100CE000960B60E04981842F0E94960B40E050E013
:100CF00060EA71E4F80146835783608771870F903B
:100D0000DF91CF911F910F9108951F920F920FB60F
:100D10000F9211248F9381E0809381028F910F9025
:100D20000FBE0F901F901895FC01818D228D90E0D1
:100D3000805C9F4F821B91098F7399270895FC0156
:100D4000918D828D981731F0828DE80FF11D858D80
:100D500090E008958FEF9FEF0895FC01918D828DB3
:100D6000981761F0828DDF01A80FB11D5D968C91FF
:100D7000928D9F5F9F73928F90E008958FEF9FEF0A
:100D8000089581E398E0892B49F080E090E0892B79
:100D900029F00E94310881110C9400000895FC0193
:100DA000848DDF01A80FB11DA35ABF4F2C91848DF4
:100DB00090E001968F739927848FA689B7892C9329
:100DC000A089B1898C9180648C93938D848D9813C4
:100DD00006C00288F389E02D80818F7D808308958D
:100DE000CF93DF93EC01888D8823C9F0EA89FB89D2
:100DF000808185FD05C0A889B9898C9186FD0FC0C9
:100E00000FB607FCF5CF808185FFF2CFA889B9899D
:100E10008C9185FFEDCFCE010E94CF06E7CFDF9109
:100E2000CF910895CF92DF92FF920F931F93CF93AC
:100E3000DF931F92CDB7DEB76C0181E0D6015896E3
:100E40008C9358975B969C915B975C968C915C9782
:100E5000981307C05096ED91FC915197808185FDC4
:100E60002EC0F601038D10E00F5F1F4F0F73112787
:100E7000F02EF601848DF81211C00FB607FCF9CFE1
:100E8000D6015096ED91FC915197808185FFF1CF6D
:100E9000C60169830E94CF066981EBCF838DE80F7D
:100EA000F11DE35AFF4F6083D6015B960C935B976D
:100EB0005296ED91FC915397808180620CC0D601CF
:100EC0005696ED91FC91579760835096ED91FC9169
:100ED000519780818064808381E090E00F90DF9162
:100EE000CF911F910F91FF90DF90CF900895BF9207
:100EF000CF92DF92EF92FF92CF93DF93EC016A01E2
:100F00007B01B22EE889F98982E08083411581EE68
:100F1000580761057105A1F060E079E08DE390E08C
:100F2000A70196010E94600E215031094109510923
:100F30005695479537952795211580E1380798F004
:100F4000E889F989108260E874E88EE190E0A701F1
:100F500096010E94600E21503109410951095695B0
:100F6000479537952795EC85FD853083EE85FF8580
:100F70002083188EEC89FD89B082EA89FB89808103
:100F800080618083EA89FB89808188608083EA8927
:100F9000FB89808180688083EA89FB8980818F7DDD
:100FA0008083DF91CF91FF90EF90DF90CF90BF9043
:100FB00008951F920F920FB60F9211242F938F93C3
:100FC0009F93EF93FF93E0919202F09193028081BF
:100FD000E0919802F091990282FD12C09081809177
:100FE0009B028F5F8F7320919C02821751F0E091DA
:100FF0009B02F0E0EE57FD4F958F80939B0201C05E
:101000008081FF91EF919F918F912F910F900FBE53
:101010000F901F9018951F920F920FB60F921124E8
:101020002F933F934F935F936F937F938F939F93F0
:10103000AF93BF93EF93FF9382E892E00E94CF06B5
:10104000FF91EF91BF91AF919F918F917F916F91A0
:101050005F914F913F912F910F900FBE0F901F9076
:10106000189582E892E00E94940621E0892B09F409
:1010700020E0822F0895109285021092840288EE5B
:1010800093E0A0E0B0E08093860290938702A09363
:101090008802B093890284E891E090938302809360
:1010A000820285EC90E090938F0280938E0284EC14
:1010B00090E0909391028093900280EC90E0909366
:1010C00093028093920281EC90E09093950280933A
:1010D000940282EC90E0909397028093960286ECC3
:1010E00090E0909399028093980210929B02109244
:1010F0009C0210929D0210929E020895CF92DF9260
:10110000EF92FF920F931F93CF93DF937C016A01BD
:10111000EB0100E010E00C151D0571F06991D7019D
:10112000ED91FC910190F081E02DC7010995892B8B
:1011300019F00F5F1F4FEFCFC801DF91CF911F91C3
:101140000F91FF90EF90DF90CF900895611571059A
:1011500081F0DB010D900020E9F7AD01415051090C
:10116000461B570BDC01ED91FC910280F381E02DD1
:10117000099480E090E00895DC01ED91FC910190EC
:10118000F081E02D099460E971E00C94A6080F93BA
:101190001F93CF93DF93EC010E94A6088C01CE0130
:1011A0000E94C308800F911FDF91CF911F910F9173
:1011B00008958F929F92AF92BF92DF92EF92FF922B
:1011C0000F931F93CF93DF93CDB7DEB7A1970FB6E1
:1011D000F894DEBF0FBECDBF7C01F42FD52ECB011E
:1011E00019A2223008F42AE08E010F5D1F4F822ED3
:1011F000912CA12CB12C6F2F7D2DA50194010E9463
:10120000600EF22FD32ECA01015011096A3014F476
:10121000E0E301C0E7E3E60FD801EC93232B242B96
:10122000252B49F7B801C7010E94A608A1960FB661
:10123000F894DEBF0FBECDBFDF91CF911F910F910C
:10124000FF90EF90DF90BF90AF909F908F900895A8
:10125000CF92DF92EF92FF920F931F93CF93DF9382
:10126000EC016A017B012115310579F4E881F981EE
:101270000190F081E02D642FDF91CF911F910F91AC
:10128000FF90EF90DF90CF9009942A303105E9F478
:1012900077FF1AC06DE20E94BC088C0144275527D5
:1012A000BA014C195D096E097F092AE0CE010E943E
:1012B000D908800F911FDF91CF911F910F91FF905F
:1012C000EF90DF90CF9008952AE0B701A601CE01FC
:1012D000DF91CF911F910F91FF90EF90DF90CF9012
:1012E0000C94D9089A01AB01662757FD6095762FBB
:1012F0000C9428094F925F926F927F928F929F92E7
:10130000AF92BF92CF92DF92EF92FF920F931F9313
:10131000CF93DF93EC016A017B01B22E9A01AB01FE
:10132000C701B6010E944C0E882319F063E971E0F1
:1013300027C026013701E89477F82FEF3FEF4FE7FA
:101340005FE7C301B2010E944C0E81110DC02FEF67
:101350003FEF4FE75FE7C301B2010E94960C1816FA
:101360001CF467E971E00CC02FEF3FEF4FE75FE43B
:10137000C701B6010E94E50D1816ACF46BE971E0E7
:10138000CE01DF91CF911F910F91FF90EF90DF90F1
:10139000CF90BF90AF909F908F907F906F905F9015
:1013A0004F900C94A6082FEF3FEF4FE75FECC7017B
:1013B000B6010E94960C87FDE1CF20E030E0A90144
:1013C000C701B6010E94960C87FF0AC06DE2CE01EC
:1013D0000E94BC088C01F7FAF094F7F8F09402C070
:1013E00000E010E0A12C60E070E080E09FE3AB142F
:1013F00041F020E030E040E251E40E949A0CA394D6
:10140000F6CF9B01AC01C701B6010E94320C6B0103
:101410007C010E94070D2B013C010E94330D9B01B2
:10142000AC01C701B6010E94310C6B017C012AE0BE
:10143000B301A201CE010E94D908080F191FBB20D9
:1014400039F06FE971E0CE010E94A608080F191F5C
:101450007B2C772041F120E030E040E251E4C701ED
:10146000B6010E94E90D6B017C010E94020D4B0147
:10147000AA2497FCA094BA2C2AE030E0B501A4017C
:10148000CE010E942809080F191FC501B4010E944E
:10149000350D9B01AC01C701B6010E94310C6B01F7
:1014A0007C017A94D6CFC801DF91CF911F910F9123
:1014B000FF90EF90DF90CF90BF90AF909F908F9074
:1014C0007F906F905F904F9008950C947A094F929F
:1014D0005F926F927F92AF92BF92CF92DF92EF9224
:1014E000FF920F931F93CF93DF93CDB7DEB7290100
:1014F0003A01621B730B840B950B29893A894B893E
:101500005C892A193B094C095D09298B3A8B4B8B65
:101510005C8B9B01AC0169897A898B899C890E94CB
:10152000500EE418F50806091709A80197010E9452
:10153000820E2A0D3B1D4C1D5D1DCA01B901DF91B4
:10154000CF911F910F91FF90EF90DF90CF90BF90C0
:10155000AF907F906F905F904F90089508950E9494
:10156000150B0E94AE0A0E94D200C1ECD6E00E9488
:1015700038012097E1F30E94C106F9CF0C94C10E07
:101580001F920F920FB60F9211242F933F938F93B8
:101590009F93AF93BF938091200390912103A091DB
:1015A0002203B091230330911F0323E0230F2D3733
:1015B00020F40196A11DB11D05C026E8230F029657
:1015C000A11DB11D20931F0380932003909321033D
:1015D000A0932203B09323038091240390912503C9
:1015E000A0912603B09127030196A11DB11D809300
:1015F000240390932503A0932603B0932703BF9160
:10160000AF919F918F913F912F910F900FBE0F90AF
:101610001F9018958230910538F0880F991F880F18
:10162000991F05970197F1F70895789484B5826022
:1016300084BD84B5816084BD85B5826085BD85B576
:10164000816085BDEEE6F0E0808181608083E1E825
:10165000F0E010828081826080838081816080835D
:10166000E0E8F0E0808181608083E1EBF0E0808160
:1016700084608083E0EBF0E0808181608083EAE732
:10168000F0E08081846080838081826080838081BB
:10169000816080838081806880831092C10008957A
:1016A0008E3008F08E50877020910A0190E4299FB7
:1016B00090011124822B80937C0080917A008064B9
:1016C00080937A0080917A0086FDFCCF809178002B
:1016D0002091790090E0922B0895833081F028F4D6
:1016E000813099F08230A1F008958730A9F08830D8
:1016F000B9F08430D1F4809180008F7D03C0809157
:1017000080008F7780938000089584B58F7702C022
:1017100084B58F7D84BD08958091B0008F7703C01C
:101720008091B0008F7D8093B0000895CF93DF93B8
:1017300090E0FC01E458FF4F2491FC01E057FF4F7B
:101740008491882349F190E0880F991FFC01E854A7
:10175000FF4FA591B49182559F4FFC01C591D49143
:101760009FB7611108C0F8948C91209582238C93C7
:10177000888182230AC0623051F4F8948C91322F10
:10178000309583238C938881822B888304C0F894BE
:101790008C91822B8C939FBFDF91CF9108950F93F3
:1017A0001F93CF93DF931F92CDB7DEB7282F30E082
:1017B000F901E859FF4F8491F901E458FF4F149162
:1017C000F901E057FF4F04910023C9F0882321F06D
:1017D00069830E946D0B6981E02FF0E0EE0FFF1F1F
:1017E000E255FF4FA591B4919FB7F8948C91611188
:1017F00003C01095812301C0812B8C939FBF0F9054
:10180000DF91CF911F910F9108950F931F93762F22
:1018100090E0FC01E458FF4F6491FC01E057FF4F5A
:10182000E4917111762FF0E0EE0FFF1FEC55FF4FA2
:101830008591949189019A013F70472F0E948D00F4
:10184000611571058105910531F06F5F7F4F8F4FF5
:101850009F4F9F7003C060E070E0CB011F910F911C
:1018600008955058BB27AA270ED075C166D130F015
:101870006BD120F031F49F3F11F41EF45BC10EF4E4
:10188000E095E7FB51C1E92F77D180F3BA176207E2
:1018900073078407950718F071F49EF58FC10EF455
:1018A000E0950B2EBA2FA02D0B01B90190010C0170
:1018B000CA01A0011124FF27591B99F0593F50F488
:1018C000503E68F11A16F040A22F232F342F4427E0
:1018D000585FF3CF469537952795A795F0405395D8
:1018E000C9F77EF41F16BA0B620B730B840BBAF0A8
:1018F0009150A1F0FF0FBB1F661F771F881FC2F713
:101900000EC0BA0F621F731F841F48F48795779526
:101910006795B795F7959E3F08F0B3CF9395880FDD
:1019200008F09927EE0F979587950895D9D008F478
:1019300081E008950CD00FC107D140F0FED030F007
:1019400021F45F3F19F0F0C0511139C1F3C014D137
:1019500098F39923C9F35523B1F3951B550BBB2776
:10196000AA2762177307840738F09F5F5F4F220F23
:10197000331F441FAA1FA9F333D00E2E3AF0E0E81C
:1019800030D091505040E695001CCAF729D0FE2F68
:1019900027D0660F771F881FBB1F261737074807FA
:1019A000AB07B0E809F0BB0B802DBF01FF279358B0
:1019B0005F4F2AF09E3F510568F0B6C000C15F3FFF
:1019C000ECF3983EDCF3869577956795B795F79598
:1019D0009F5FC9F7880F911D9695879597F9089590
:1019E000E1E0660F771F881FBB1F6217730784072C
:1019F000BA0720F0621B730B840BBA0BEE1F88F73B
:101A0000E095089504D06894B111D9C00895BCD070
:101A100088F09F5790F0B92F9927B751A0F0D1F0D7
:101A2000660F771F881F991F1AF0BA95C9F712C061
:101A3000B13081F0C3D0B1E00895C0C0672F782FD6
:101A40008827B85F39F0B93FCCF3869577956795CD
:101A5000B395D9F73EF490958095709561957F4F39
:101A60008F4F9F4F0895E89409C097FB3EF49095DF
:101A70008095709561957F4F8F4F9F4F9923A9F067
:101A8000F92F96E9BB279395F695879577956795F6
:101A9000B795F111F8CFFAF4BB0F11F460FF1BC03A
:101AA0006F5F7F4F8F4F9F4F16C0882311F096E9CD
:101AB00011C0772321F09EE8872F762F05C066237B
:101AC00071F096E8862F70E060E02AF09A95660F34
:101AD000771F881FDAF7880F9695879597F90895ED
:101AE000990F0008550FAA0BE0E8FEEF161617062F
:101AF000E807F907C0F012161306E407F50798F097
:101B0000621B730B840B950B39F40A2661F0232BAF
:101B1000242B252B21F408950A2609F4A140A6952B
:101B20008FEF811D811D089597F99F6780E870E010
:101B300060E008959FEF80EC089500240A94161643
:101B4000170618060906089500240A9412161306AB
:101B5000140605060895092E0394000C11F4882339
:101B600052F0BB0F40F4BF2B11F460FF04C06F5F55
:101B70007F4F8F4F9F4F089557FD9058440F551F2B
:101B800059F05F3F71F04795880F97FB991F61F0FF
:101B90009F3F79F087950895121613061406551F76
:101BA000F2CF4695F1DF08C0161617061806991FE2
:101BB000F1CF86957105610508940895E894BB27D7
:101BC00066277727CB0197F908958ADF08F48FEF0E
:101BD00008950BD0C0CFB1DF28F0B6DF18F0952301
:101BE00009F0A2CFA7CF1124EACFC6DFA0F3959FBB
:101BF000D1F3950F50E0551F629FF001729FBB27F4
:101C0000F00DB11D639FAA27F00DB11DAA1F649F9F
:101C10006627B00DA11D661F829F2227B00DA11D52
:101C2000621F739FB00DA11D621F839FA00D611DD8
:101C3000221F749F3327A00D611D231F849F600DF9
:101C4000211D822F762F6A2F11249F5750408AF032
:101C5000E1F088234AF0EE0FFF1FBB1F661F771FBE
:101C6000881F91505040A9F79E3F510570F05CCFFE
:101C7000A6CF5F3FECF3983EDCF3869577956795AA
:101C8000B795F795E7959F5FC1F7FE2B880F911DDC
:101C90009695879597F9089523DF880B990B0895FA
:101CA000DB018F939F930E94A10EBF91AF91A29FE2
:101CB000800D911DA39F900DB29F900D112408954A
:101CC000A1E21A2EAA1BBB1BFD010DC0AA1FBB1F40
:101CD000EE1FFF1FA217B307E407F50720F0A21BB2
:101CE000B30BE40BF50B661F771F881F991F1A941F
:101CF00069F760957095809590959B01AC01BD0149
:101D0000CF010895052E97FB1EF400940E94990EB2
:101D100057FD07D00E94600E07FC03D04EF40C94D0
:101D2000990E50954095309521953F4F4F4F5F4FFD
:101D3000089590958095709561957F4F8F4F9F4F37
:101D400008950E94B20EA59F900DB49F900DA49F80
:101D5000800D911D11240895EE0FFF1F0590F49141
:101D6000E02D0994A29FB001B39FC001A39F700D05
:101D7000811D1124911DB29F700D811D1124911D93
:101D80000895CF93DF938230910510F482E090E0C4
:101D9000E0912A03F0912B0320E030E0A0E0B0E0D6
:101DA000309739F14081518148175907B8F04817E9
:101DB000590771F482819381109729F013969C93AF
:101DC0008E9312972CC090932B0380932A0327C0E5
:101DD0002115310531F04217530718F0A901DB0135
:101DE00001C0EF019A01BD01DF010280F381E02D06
:101DF000D7CF21153105F9F0281B390B24303105D7
:101E000080F48A819B816115710521F0FB01938328
:101E1000828304C090932B0380932A03FE013296A1
:101E200044C0FE01E20FF31F8193919322503109C8
:101E3000398328833AC02091280330912903232B2A
:101E400041F4209102013091030130932903209342
:101E5000280320910001309101012115310541F441
:101E60002DB73EB74091040150910501241B350B5D
:101E7000E0912803F0912903E217F307A0F42E1B49
:101E80003F0B2817390778F0AC014E5F5F4F2417DE
:101E9000350748F04E0F5F1F5093290340932803E6
:101EA0008193919302C0E0E0F0E0CF01DF91CF9108
:101EB0000895CF93DF93009709F487C0FC01329710
:101EC00013821282C0912A03D0912B03209781F4B0
:101ED00020813181280F391F809128039091290397
:101EE0008217930779F5F0932903E09328036DC0D7
:101EF000DE0120E030E0AE17BF0750F412964D919E
:101F00005C9113979D014115510509F1DA01F3CF59
:101F1000B383A28340815181840F951F8A179B0749
:101F200071F48D919C911197840F951F0296918366
:101F3000808312968D919C911397938382832115B0
:101F4000310529F4F0932B03E0932A033EC0D90115
:101F50001396FC93EE9312974D915D91A40FB51FCC
:101F6000EA17FB0779F480819181840F951F02960F
:101F7000D90111969C938E938281938113969C93A1
:101F80008E931297E0E0F0E08A819B81009719F030
:101F9000FE01EC01F9CFCE01029628813981820F32
:101FA000931F20912803309129032817390769F4DA
:101FB000309729F410922B0310922A0302C0138247
:101FC0001282D0932903C0932803DF91CF91089503
:041FD000F894FFCFB3
:101FD40000002C0380000100000001446973746157
:101FE4006E7A612066726F6E74616C650044697309
:101FF40074616E7A612064657374726100446973FC
:1020040074616E7A612073696E6973747261004CD5
:10201400756D696E6F736974E00054656D706572F7
:10202400617475726100000000009B046E04430437
:102034004B045E046D0400000000760500000000FF
:10204400AA05AF0500000000BF0500000000F90567
:102054000000000012077E089406AD069F06F006F5
:102064000D0A006E616E00696E66006F7666002E62
:0220740000006A
:00000001FF
