:100000000C9464000C948C000C948C000C948C0068
:100010000C948C000C948C000C948C000C948C0030
:100020000C948C000C948C000C948C000C948F0815
:100030000C948C000C948C000C948C000C948C0010
:100040000C942A0E0C948C000C94050B0C94370B1A
:100050000C948C000C948C000C948C000C948C00F0
:100060000C9469040C948C0000000008000201004C
:100070000003040700000000000000000102040863
:100080001020408001020408102001020408102002
:10009000040404040404040402020202020203032E
:1000A00003030303000000002300260029000000D2
:1000B0000000250028002B0000000000240027007D
:1000C0002A00AF01BD06670B11241FBECFEFD8E099
:1000D000DEBFCDBF11E0A0E0B1E0E6E0F7E202C094
:1000E00005900D92AE3AB107D9F723E0AEEAB1E040
:1000F00001C01D92A136B207E1F710E0C8ECD0E0D4
:1001000004C02297FE010E944712C23CD107C9F7E2
:100110000E94190E0C9481130C940000CF92DF9270
:10012000EF92FF920F931F93E82FF92F05C0015014
:1001300011092109310961F1908196239417B9F3CE
:1001400005C0015011092109310911F1908196234F
:100150009413F7CFC12CD12CE12CF12C0AC08FEFD6
:10016000C81AD80AE80AF80A0C151D052E053F051D
:1001700079F080818623841791F36C2D7D2D8E2D4F
:100180009F2D1F910F91FF90EF90DF90CF900895DA
:1001900060E070E080E090E01F910F91FF90EF90A1
:1001A000DF90CF900895EF92FF920F931F93CF931C
:1001B000DF9326E040E855E260E070E087EB92E0F4
:1001C0000E94A30A82E692E00E942D0662E370E09C
:1001D00084EB91E00E946E0887E190E00E94280E77
:1001E000EC01E12CF12C08EC12E426E649E050E0A9
:1001F0006AE070E0CE010E94E802E881F981019096
:10020000F081E02D64E670E0CE010995BE0184EB3B
:1002100091E00E94070887E190E00E94280EEC011F
:1002200022E74BE050E06CE070E00E94E802E881D9
:10023000F9810190F081E02D64E670E0CE0109952E
:10024000BE0184EB91E00E94070887E190E00E94E4
:10025000280EEC012CE647E050E068E070E00E94D8
:10026000E802E881F9810190F081E02D64E670E018
:10027000CE010995BE0184EB91E00E94070882E15E
:1002800090E00E94280EEC0128E730E04EE050E0BC
:100290006DE070E00E944E02E881F9810190F081EA
:1002A000E02D6AEF70E0CE010995BE0184EB91E08C
:1002B0000E9407088AE090E00E94280EEC0168E4A2
:1002C00070E00E947B03D093B301C093B201E88138
:1002D000F9810190F081E02D66E970E0CE01DF91B7
:1002E000CF911F910F91FF90EF9009940F931F935F
:1002F00084EB91E00E945D080E94740E0091AE01B3
:100300001091AF012091B0013091B101601B710BD0
:10031000820B930B643F714081059105E8F00E94C8
:10032000740E6093AE017093AF018093B00190930F
:10033000B1016BE071E087EB92E00E94E80B8091E5
:10034000B2019091B301DC01ED91FC910280F38147
:10035000E02D1F910F9109941F910F91089580E84E
:1003600091E09093B5018093B40108950F931F938A
:10037000CF93DF93EC017B836A831D821C8284E030
:1003800090E00E94280E8C016E817F810E941B07E5
:100390001D870C8788E090E00E94280E8C014A851A
:1003A0005B85688579850E9496091F870E8781E0A5
:1003B00090E0998B888BDF91CF911F910F910895D9
:1003C0000F931F93CF93DF93EC010E94800E6093F5
:1003D000D8017093D9018093DA019093DB01888969
:1003E00099890097C9F0019779F58E859F85DC0181
:1003F000ED91FC910190F081E02D0995882321F188
:100400008C859D85DC01ED91FC910190F081E02DC2
:100410000995198A188A18C08E859F85DC01ED918F
:10042000FC910190F081E02D099581110DC08C8522
:100430009D85DC01ED91FC910280F381E02D099511
:1004400081E090E0998B888B0E94800E6093D401AC
:100450007093D5018093D6019093D7010091D80174
:100460001091D9012091DA013091DB01AB01BC017F
:10047000401B510B620B730B4093D0015093D10181
:100480006093D2017093D3012AE030E087EB92E0D1
:10049000DF91CF911F910F910C94C20CFC0184E16C
:1004A00091E0918380837783668351874087338788
:1004B000228708950F931F93CF93DF93EC017B83E3
:1004C0006A831D821C821C861B8688E090E00E9445
:1004D000280E8C01488559856E817F810E94F50820
:1004E0001E8B0D8BDF91CF911F910F9108950F936C
:1004F0001F93CF93DF93EC010E94800E6093E40181
:100500007093E5018093E6019093E7018B859C85CC
:10051000009719F00197A1F023C009891A892B8946
:100520003C894D855E856F8578898D899E890E947D
:100530002209811115C081E090E09C878B8710C053
:1005400009891A892B893C894D855E856F85788953
:100550008D899E890E942209882311F01C861B86A2
:100560000E94800E6093E0017093E1018093E201AC
:100570009093E3010091E4011091E5012091E601DF
:100580003091E701DC01CB01801B910BA20BB30B77
:100590008093DC019093DD01A093DE01B093DF0135
:1005A00068E171E087EB92E00E94E80B4091DC018A
:1005B0005091DD016091DE017091DF012AE030E0B1
:1005C00087EB92E0DF91CF911F910F910C94C20CB9
:1005D0008F929F92AF92BF92EF92FF920F931F93D1
:1005E000FC0180E391E091838083812C912C80EA4F
:1005F000A82E81E4B82E818A928AA38AB48A77834E
:100600006683518740872287E586F6860787108BA9
:100610001F910F91FF90EF90BF90AF909F908F90A0
:1006200008950F931F93CF93DF93EC017B836A832D
:100630001D821C8284E090E00E94280E8C016E8155
:100640007F810E944B0919870887DF91CF911F9105
:100650000F9108950F931F93CF93DF93EC0164E301
:1006600071E087EB92E00E94F50B0E94800E609390
:10067000F0017093F1018093F2019093F30188856A
:1006800099850E946C090E94800E6093EC01709322
:10069000ED018093EE019093EF010091F001109134
:1006A000F1012091F2013091F301DC01CB01801BBB
:1006B000910BA20BB30B8093E8019093E901A093F7
:1006C000EA01B093EB0169E371E087EB92E00E94ED
:1006D000E80B4091E8015091E9016091EA017091C5
:1006E000EB012AE030E087EB92E0DF91CF911F91A0
:1006F0000F910C94C20C2EE431E0FC013183208375
:100700007783668308951092610281E080935F028F
:1007100010925E0261E082E10E94680F61E083E175
:100720000E94680FE9EBF0E080818E7F80838081FA
:100730008D7F808388E48093B80085E48093BC003B
:100740000895413208F043C0909161029111FCCFAD
:1007500091E09093610220935F022FEF2093F401C8
:1007600010923902240F20933802909360029091E6
:100770006002880F892B8093600280915E02813035
:1007800061F410925E02809160028093BB008091C0
:10079000BC0083FDF8CF85EC01C085EE8093BC00E2
:1007A000809161028130E1F380913902841710F465
:1007B000409139022AE332E0FB01D9018A2F821BE2
:1007C000841718F48D918193F9CF842F089580E0D8
:1007D00008950F93413208F04AC09091610291113F
:1007E000FCCF92E09093610200935F029FEF9093A1
:1007F000F4011092390240933802FB016AE372E07F
:10080000DB019A2F961B941718F491919D93F9CFC1
:100810001092600290916002880F892B8093600291
:1008200080915E02813061F410925E0280916002DC
:100830008093BB008091BC0083FDF8CF85EC01C0A4
:1008400085EE8093BC00222321F0809161028230EA
:10085000E1F38091F4018F3F61F08091F4018032E7
:1008600051F08091F401803341F483E007C081E0CE
:1008700005C080E003C082E001C084E00F910895CC
:10088000613298F420916102243089F46093160259
:10089000FC0188E192E0DC012A2F281B261718F4BE
:1008A00021912D93F9CF80E0089581E0089582E0B1
:1008B000089585ED8093BC008091BC0084FDFCCF41
:1008C00010926102089585EC8093BC001092610241
:1008D00008951F920F920FB60F9211242F933F93FA
:1008E0004F935F936F937F938F939F93AF93BF9338
:1008F000EF93FF938091B900887F803609F49EC002
:1009000078F5883209F45DC090F4803109F456C05E
:1009100038F4882309F4F5C0883009F44FC0F5C0D5
:10092000883109F44EC0803209F45FC0EEC08034D3
:1009300009F46AC058F4803309F457C0883309F0C9
:10094000E4C08093F4010E946304DFC0803509F4A1
:100950004FC0883509F45DC0883409F0D6C0D3C0D3
:10096000883909F4C4C0A8F4883709F467C038F49A
:10097000883609F463C0803709F460C0C6C088387F
:1009800009F4B5C0803909F45FC0803809F0BDC0F2
:100990005BC0803B09F483C038F4803A09F466C038
:1009A000883A09F47CC0B1C0803C09F4A4C0883CFA
:1009B00009F4A1C0883B09F487C0A7C080916002F8
:1009C00010C09091390280913802981770F5E0912B
:1009D000390281E08E0F80933902F0E0E65CFD4F32
:1009E00080818093BB0085EC83C08093F4018BC031
:1009F000E091390281E08E0F809339028091BB0033
:100A0000F0E0E65CFD4F80839091390280913802DE
:100A10006BC0E091390281E08E0F809339028091A2
:100A2000BB00F0E0E65CFD4F808380915F028111A6
:100A30006AC081E080935E0284EA5EC083E08093B6
:100A400061021092F501CFCF8091F501803208F05C
:100A50004EC0E091F50181E08E0F8093F501809109
:100A6000BB00F0E0EA50FE4F8083BDCF0E946304DC
:100A70008091F501803230F4E091F501F0E0EA5028
:100A8000FE4F10826091F50170E0E0915A02F09102
:100A90005B0286EF91E009951092F50136C084E083
:100AA000809361021092170210921602E0915C028C
:100AB000F0915D02099580911602811105C081E0D7
:100AC0008093160210921802E091170281E08E0FB7
:100AD00080931702F0E0E85EFD4F80818093BB00B9
:100AE0009091170280911602981708F47CCF85E840
:100AF0008093BC000AC085EC8093BC001092610218
:100B000004C01092F4010E945904FF91EF91BF912B
:100B1000AF919F918F917F916F915F914F913F9195
:100B20002F910F900FBE0F901F90189580919202F9
:100B300090E020919302821B9109089520919302E5
:100B400080919202281750F4E22FF0E0EC56FD4F0E
:100B5000808190E02F5F2093930208958FEF9FEFA5
:100B60000895E091930280919202E81730F4F0E04A
:100B7000EC56FD4F808190E008958FEF9FEF089530
:100B80000895CF92DF92EF92FF920F931F93CF932E
:100B9000DF937C01CB018A0120916E02222389F030
:100BA000EB016B01C40ED51ECC15DD0569F0699112
:100BB000D701ED91FC910190F081E02DC7010995DD
:100BC000F3CF642F0E944004C801DF91CF911F91A1
:100BD0000F91FF90EF90DF90CF900895CF93DF9328
:100BE0001F92CDB7DEB7698320916E022223D1F028
:100BF00020916F02203240F021E030E0FC0133838D
:100C0000228380E090E015C080917002E82FF0E030
:100C1000EF58FD4F998190838F5F8093700280938E
:100C20006F0205C061E0CE0101960E94400481E0A0
:100C300090E00F90DF91CF910895FC011382128212
:100C400048EE53E060E070E0448355836683778329
:100C500086E591E09183808308951092930210922B
:100C600092021092700210926F020C94830381E042
:100C700080936E02609391021092700210926F0244
:100C800008950C9437060F93062F21E040916F02D0
:100C900061E772E0809191020E94E9031092700274
:100CA00010926F0210926E020F9108958F929F9290
:100CB000AF92BF92CF92DF92EF92FF920F931F936A
:100CC000CF93DF93EC01F62ED42E48015901EE208C
:100CD00019F10E9437061E2D143008F013E0115050
:100CE000B8F0E881F98128E0129FB0011124A50134
:100CF000940104C056954795379527956A95D2F784
:100D0000CA01B9010190F081E02DCE010995E7CF2C
:100D100060E0CE010E9443064D2D413208F040E2D2
:100D20002C2D64E972E08F2D0E94A1031092930292
:100D300080939202DF91CF911F910F91FF90EF90DE
:100D4000DF90CF90BF90AF909F908F900895CF92FB
:100D5000EF920F931F93C22EE12C00E010E0980158
:100D60000E9456061F910F91EF90CF90089521E0B9
:100D70000C94A70661E00C94430682E692E00C9482
:100D80001D0626E631E0FC013183208373836283F4
:100D90000895CF92DF92EF92FF92CF93DF93EC0111
:100DA0006A817B8182E692E00E944106E0916202C4
:100DB000F09163020190F081E02D60E082E692E024
:100DC000099582E692E00E94BA066A817B8141E041
:100DD00050E082E692E00E94B70682E692E00E942E
:100DE0009605892BD1F382E692E00E949E05BC0114
:100DF000882777FD8095982F0E94CE106B017C018B
:100E000022E030E0AB01BC0187EB92E00E94BF0D15
:100E1000C701B601DF91CF91FF90EF90DF90CF90A7
:100E2000089561E0FC0182810C94680F60E0FC0190
:100E300082810C94680FFC01862F2CE631E031830F
:100E400020836283738361E00C942F0FAF92BF9273
:100E5000CF92DF92EF92FF920F931F93FC0182815A
:100E60000E94E90EBC01882777FD8095982F1F927C
:100E70001F921F922FEF2F93A12CB12C6501EE240E
:100E8000EA9413E0F12E00E010E020E030E0A90148
:100E90000E94D10D0F900F900F900F90CB011F91DA
:100EA0000F91FF90EF90DF90CF90BF90AF9008959B
:100EB00024E731E0FC01318320837383628308954A
:100EC0008F929F92AF92BF92CF92DF92EF92FF925A
:100ED000CF93DF93EC016A017B014E835F836887C8
:100EE000798760E08A810E94680F83E090E00E9429
:100EF000A30E61E08A810E94680F85E090E00E9465
:100F0000A30E60E08A810E94680F20E432E44FE083
:100F100050E061E08C810E949E0F0E94CC1020E086
:100F200030E04AE754E40E94331020E030E04AE722
:100F300054E40E94331020E030E040E05FE30E9480
:100F400082114B015C012AE939E949E15FE3C701FC
:100F5000B6010E94821120E030EC45EA53E40E9481
:100F6000CB0F9B01AC01C501B4010E948211DF913E
:100F7000CF91FF90EF90DF90CF90BF90AF909F9078
:100F80008F900895AF92BF92DF92EF92FF920F93EE
:100F90001F93CF93DF931F92CDB7DEB75C01E62E90
:100FA000F42ED52E2AE731E0FC01318320836283C1
:100FB00073834483558361E08E2D79830E942F0FC4
:100FC00060E08F2D0E942F0F00E010E020EA31E456
:100FD000F50106831783208731874AE050E06E2DA4
:100FE000798187EB92E00E94AA0C4AE050E06F2DD5
:100FF0007D2D87EB92E00F90DF91CF911F910F91A4
:10100000FF90EF90DF90BF90AF900C94AA0CFC0182
:1010100024813581293031057CF4F9013396EE0FB6
:10102000FF1FE80FF91F718360832F5F3F4FFC01A3
:101030003583248381E0089580E00895EF92FF9244
:101040000F931F93CF93DF938C017C01C0E0D0E01E
:10105000F80184819581C817D90744F5F701A68165
:10106000B78114962D913C911597F8018281938157
:10107000280F391F15963C932E93149712968D9135
:101080009C9113972817390764F015961C921E92AD
:101090001497ED91FC9111970280F381E02DCD0121
:1010A00009952196F2E0EF0EF11CD2CFDF91CF919E
:1010B0001F910F91FF90EF90089583B7817F83BFB9
:1010C00083B7816083BF83B7816083BF889583B70F
:1010D0008E7F83BF83B78E7F83BF0895EF92FF9289
:1010E0000F931F93CF93DF93EC017B017B836A8384
:1010F00081E090E00E94280E8C01BE010E94C10890
:101100001B8F0A8FB701C8010E94C8081D821C826C
:10111000DF91CF911F910F91FF90EF9008951F9253
:101120000F920FB60F9211242F933F934F935F931B
:101130006F937F938F939F93AF93BF93EF93FF939F
:1011400081E08093B6028091B4029091B50200973D
:1011500039F0DC01ED91FC910190F081E02D0995D1
:10116000FF91EF91BF91AF919F918F917F916F917F
:101170005F914F913F912F910F900FBE0F901F9055
:1011800018951092B6027093B5026093B402089558
:10119000CF93DF93F89410928000C1E8D0E01882DA
:1011A0001092850010928400882777FD8095982FF3
:1011B0000E94CE102FE632E143E851E40E948211F2
:1011C0000E94A010709389006093880088818860D5
:1011D0008883888185608883EFE6F0E08081826083
:1011E00080837894DF91CF910895EF92FF920F93CF
:1011F0001F93CF93DF9300D000D0CDB7DEB77C0133
:10120000FC0171836083538342838AE090E04B83C7
:101210005C8369837A830E94280E8C014B815C81F8
:1012200069817A810E94C207F701178306830F90B4
:101230000F900F900F90DF91CF911F910F91FF9022
:10124000EF900895CF92DF92EF92FF920F931F934A
:10125000CF936A017B01B901A801DC0116968D913B
:101260009C911797DC01ED91FC910190F081E02DAC
:101270000995C1E0A70196010E942F1018160CF4E1
:10128000C0E081E08C27CF911F910F91FF90EF90EC
:10129000DF90CF900895EF92FF920F931F93CF931B
:1012A000DF9300D0CDB7DEB78C0184E090E0698396
:1012B0007A830E94280E7C0169817A810E94C1068E
:1012C000F801F382E2820F900F90DF91CF911F918E
:1012D0000F91FF90EF900895CF93DF93EC018A81F7
:1012E0009B81DC01ED91FC910190F081E02D09954D
:1012F0000E949B1079836883DF91CF910895CF93EB
:10130000DF93EC018A819B81DC01ED91FC910190DE
:10131000F081E02D099541E02E813F8128173907A2
:101320000CF440E0842FDF91CF910895EF92FF926B
:101330000F931F93CF93DF9300D0CDB7DEB77C011F
:101340008AE891E0F70191838083758364835783F2
:10135000468384E090E069837A830E94280E8C01A2
:1013600069817A810E945807F701138302830F90E5
:101370000F90DF91CF911F910F91FF90EF90089503
:10138000FC01818D228D90E0805C9F4F821B910932
:101390008F7399270895FC01918D828D981731F0F4
:1013A000828DE80FF11D858D90E008958FEF9FEFFE
:1013B0000895FC01918D828D981761F0828DDF0177
:1013C000A80FB11D5D968C91928D9F5F9F73928F38
:1013D00090E008958FEF9FEF08958DE59BE0892BB6
:1013E00049F080E090E0892B29F00E945D0B81118B
:1013F0000C9400000895FC01848DDF01A80FB11D3D
:10140000A35ABF4F2C91848D90E001968F7399273A
:10141000848FA689B7892C93A089B1898C91806427
:101420008C93938D848D981306C00288F389E02DE8
:1014300080818F7D80830895CF93DF93EC01888D29
:101440008823C9F0EA89FB89808185FD05C0A889C8
:10145000B9898C9186FD0FC00FB607FCF5CF80814E
:1014600085FFF2CFA889B9898C9185FFEDCFCE0198
:101470000E94FB09E7CFDF91CF910895CF92DF92D1
:10148000FF920F931F93CF93DF931F92CDB7DEB7D9
:101490006C0181E0D60158968C9358975B969C918D
:1014A0005B975C968C915C97981307C05096ED9172
:1014B000FC915197808185FD2EC0F601038D10E0CF
:1014C0000F5F1F4F0F731127F02EF601848DF81256
:1014D00011C00FB607FCF9CFD6015096ED91FC91E3
:1014E0005197808185FFF1CFC60169830E94FB0976
:1014F0006981EBCF838DE80FF11DE35AFF4F6083C5
:10150000D6015B960C935B975296ED91FC915397A5
:10151000808180620CC0D6015696ED91FC91579760
:1015200060835096ED91FC91519780818064808317
:1015300081E090E00F90DF91CF911F910F91FF908C
:10154000DF90CF900895BF92CF92DF92EF92FF92FB
:10155000CF93DF93EC016A017B01B22EE889F98910
:1015600082E08083411581EE580761057105A1F085
:1015700060E079E08DE390E0A70196010E94F91107
:1015800021503109410951095695479537952795BD
:10159000211580E1380798F0E889F989108260E820
:1015A00074E88EE190E0A70196010E94F9112150A4
:1015B0003109410951095695479537952795EC858D
:1015C000FD853083EE85FF852083188EEC89FD89AB
:1015D000B082EA89FB89808180618083EA89FB8906
:1015E000808188608083EA89FB898081806880832C
:1015F000EA89FB8980818F7D8083DF91CF91FF9085
:10160000EF90DF90CF90BF9008951F920F920FB68A
:101610000F9211242F938F939F93EF93FF93E09159
:10162000C702F091C8028081E091CD02F091CE0214
:1016300082FD12C090818091D0028F5F8F732091C4
:10164000D102821751F0E091D002F0E0E954FD4F51
:10165000958F8093D00201C08081FF91EF919F917F
:101660008F912F910F900FBE0F901F9018951F9282
:101670000F920FB60F9211242F933F934F935F93C6
:101680006F937F938F939F93AF93BF93EF93FF934A
:1016900087EB92E00E94FB09FF91EF91BF91AF9120
:1016A0009F918F917F916F915F914F913F912F917A
:1016B0000F900FBE0F901F90189587EB92E00E943D
:1016C000C00921E0892B09F420E0822F08951092AF
:1016D000BA021092B90288EE93E0A0E0B0E08093E5
:1016E000BB029093BC02A093BD02B093BE0280E9FE
:1016F00091E09093B8028093B70285EC90E09093CC
:10170000C4028093C30284EC90E09093C60280935D
:10171000C50280EC90E09093C8028093C70281ECF0
:1017200090E09093CA028093C90282EC90E090937B
:10173000CC028093CB0286EC90E09093CE02809313
:10174000CD021092D0021092D1021092D2021092C9
:10175000D3020895CF92DF92EF92FF920F931F93DF
:10176000CF93DF937C016A01EB0100E010E00C15E0
:101770001D0571F06991D701ED91FC910190F08107
:10178000E02DC7010995892B19F00F5F1F4FEFCF8F
:10179000C801DF91CF911F910F91FF90EF90DF90E3
:1017A000CF9008956115710581F0DB010D90002047
:1017B000E9F7AD0141505109461B570BDC01ED9192
:1017C000FC910280F381E02D099480E090E008957F
:1017D0000C94D20BDC01ED91FC910190F081E02D95
:1017E00009946CE971E00C94D20B0F931F93CF9383
:1017F000DF93EC010E94D20B8C01CE010E94F10B11
:10180000800F911FDF91CF911F910F9108958F92BB
:101810009F92AF92BF92CF92DF92EF92FF920F937F
:101820001F93CF93DF93CDB7DEB7A1970FB6F89490
:10183000DEBF0FBECDBF7C01C42EE52FCB01D22E63
:1018400019A221E02D1510F02AE0D22E8E010F5D95
:101850001F4F8D2C912CA12CB12C6C2D7E2FA5010E
:1018600094010E94F9118C2DD29E801911240150EF
:1018700011098A3014F4805D01C0895CF80180830D
:10188000211531054105510521F0C22EE32FCA0172
:10189000E4CFB801C7010E94D20BA1960FB6F8940D
:1018A000DEBF0FBECDBFDF91CF911F910F91FF9093
:1018B000EF90DF90CF90BF90AF909F908F90089562
:1018C000CF92DF92EF92FF920F931F93CF93DF930C
:1018D000EC016A017B012115310579F4E881F98178
:1018E0000190F081E02D642FDF91CF911F910F9136
:1018F000FF90EF90DF90CF9009942A303105E9F402
:1019000077FF1AC06DE20E94EA0B8C01442755272D
:10191000BA014C195D096E097F092AE0CE010E94C7
:10192000070C800F911FDF91CF911F910F91FF90B6
:10193000EF90DF90CF9008952AE0B701A601CE0185
:10194000DF91CF911F910F91FF90EF90DF90CF909B
:101950000C94070C0F931F93CF93DF93EC019A0124
:10196000AB01662757FD6095762F0E94600C8C01B5
:10197000CE010E94F10B800F911FDF91CF911F913B
:101980000F9108950F931F93CF93DF93EC010E9463
:10199000600C8C01CE010E94F10B800F911FDF9132
:1019A000CF911F910F9108954F925F926F927F9206
:1019B0008F929F92AF92BF92CF92DF92EF92FF925F
:1019C0000F931F93CF93DF93EC016A017B01B22E3B
:1019D0009A01AB01C701B6010E94E511882319F0F5
:1019E0006FE971E027C026013701E89477F82FEFFF
:1019F0003FEF4FE75FE7C301B2010E94E51181119C
:101A00000DC02FEF3FEF4FE75FE7C301B2010E9428
:101A10002F1018161CF463EA71E00CC02FEF3FEF93
:101A20004FE75FE4C701B6010E947E111816ACF4BF
:101A300067EA71E0CE01DF91CF911F910F91FF9086
:101A4000EF90DF90CF90BF90AF909F908F907F905E
:101A50006F905F904F900C94D20B2FEF3FEF4FE7BA
:101A60005FECC701B6010E942F1087FDE1CF20E097
:101A700030E0A901C701B6010E942F1087FF0AC0FC
:101A80006DE2CE010E94EA0B8C01F7FAF094F7F8B0
:101A9000F09402C000E010E0A12C60E070E080E073
:101AA0009FE3AB1441F020E030E040E251E40E94BB
:101AB0003310A394F6CF9B01AC01C701B6010E947D
:101AC000CB0F6B017C010E94A0102B013C010E94F6
:101AD000CC109B01AC01C701B6010E94CA0F6B017B
:101AE0007C012AE0B301A201CE010E94070C080F7D
:101AF000191FBB2039F06BEA71E0CE010E94D20BB6
:101B0000080F191F7B2C772041F120E030E040E2E4
:101B100051E4C701B6010E9482116B017C010E9451
:101B20009B104B01AA2497FCA094BA2C2AE030E029
:101B3000B501A401CE010E94600C080F191FC50158
:101B4000B4010E94CE109B01AC01C701B6010E94F6
:101B5000CA0F6B017C017A94D6CFC801DF91CF9177
:101B60001F910F91FF90EF90DF90CF90BF90AF90BB
:101B70009F908F907F906F905F904F9008950F93FC
:101B80001F93CF93DF93EC010E94D40C8C01CE0104
:101B90000E94F10B800F911FDF91CF911F910F9148
:101BA00008954F925F926F927F92AF92BF92CF92C1
:101BB000DF92EF92FF920F931F93CF93DF93CDB7F6
:101BC000DEB729013A01621B730B840B950B29893F
:101BD0003A894B895C892A193B094C095D09298B93
:101BE0003A8B4B8B5C8B9B01AC0169897A898B8921
:101BF0009C890E94E911E418F50806091709A80153
:101C000097010E941B122A0D3B1D4C1D5D1DCA0130
:101C1000B901DF91CF911F910F91FF90EF90DF906D
:101C2000CF90BF90AF907F906F905F904F9008954E
:101C300008950E94AE0E0E94180E0E94D300CDEEB1
:101C4000D9E00E9476012097E1F30E94ED09F9CFD7
:101C50000C945A121F920F920FB60F9211242F93C9
:101C60003F938F939F93AF93BF9380915503909130
:101C70005603A0915703B09158033091540323E0C9
:101C8000230F2D3720F40196A11DB11D05C026E8B4
:101C9000230F0296A11DB11D209354038093550379
:101CA00090935603A0935703B09358038091590320
:101CB00090915A03A0915B03B0915C030196A11D22
:101CC000B11D8093590390935A03A0935B03B09383
:101CD0005C03BF91AF919F918F913F912F910F9096
:101CE0000FBE0F901F9018952FB7F8946091550371
:101CF0007091560380915703909158032FBF089518
:101D00003FB7F8948091590390915A03A0915B03D7
:101D1000B0915C0326B5A89B05C02F3F19F0019632
:101D2000A11DB11D3FBF6627782F892F9A2F620F03
:101D3000711D811D911D42E0660F771F881F991F3D
:101D40004A95D1F708958230910538F0880F991F90
:101D5000880F991F05970197F1F70895789484B536
:101D6000826084BD84B5816084BD85B5826085BD97
:101D700085B5816085BDEEE6F0E08081816080837D
:101D8000E1E8F0E010828081826080838081816060
:101D90008083E0E8F0E0808181608083E1EBF0E027
:101DA000808184608083E0EBF0E0808181608083CB
:101DB000EAE7F0E0808184608083808182608083B4
:101DC0008081816080838081806880831092C100DF
:101DD00008958E3008F08E50877020910A0190E4AB
:101DE000299F90011124822B80937C0080917A009E
:101DF000806480937A0080917A0086FDFCCF809188
:101E000078002091790090E0922B0895833081F042
:101E100028F4813099F08230A1F008958730A9F03C
:101E20008830B9F08430D1F4809180008F7D03C078
:101E3000809180008F7780938000089584B58F779C
:101E400002C084B58F7D84BD08958091B0008F77E6
:101E500003C08091B0008F7D8093B0000895CF9330
:101E6000DF9390E0FC01E458FF4F2491FC01E05720
:101E7000FF4F8491882349F190E0880F991FFC015E
:101E8000E854FF4FA591B49182559F4FFC01C59135
:101E9000D4919FB7611108C0F8948C91209582234A
:101EA0008C93888182230AC0623051F4F8948C911B
:101EB000322F309583238C938881822B888304C0B2
:101EC000F8948C91822B8C939FBFDF91CF910895D2
:101ED0000F931F93CF93DF931F92CDB7DEB7282FB9
:101EE00030E0F901E859FF4F8491F901E458FF4FC0
:101EF0001491F901E057FF4F04910023C9F08823A2
:101F000021F069830E94060F6981E02FF0E0EE0F57
:101F1000FF1FE255FF4FA591B4919FB7F8948C91A4
:101F2000611103C01095812301C0812B8C939FBF49
:101F30000F90DF91CF911F910F9108950F931F93F1
:101F4000762F90E0FC01E458FF4F6491FC01E057CC
:101F5000FF4FE4917111762FF0E0EE0FFF1FEC556B
:101F6000FF4F8591949189019A013F70472F0E94FC
:101F70008E00611571058105910531F06F5F7F4F0E
:101F80008F4F9F4F9F7003C060E070E0CB011F91A7
:101F90000F9108955058BB27AA270ED075C166D15E
:101FA00030F06BD120F031F49F3F11F41EF45BC18F
:101FB0000EF4E095E7FB51C1E92F77D180F3BA1712
:101FC000620773078407950718F071F49EF58FC1B7
:101FD0000EF4E0950B2EBA2FA02D0B01B901900144
:101FE0000C01CA01A0011124FF27591B99F0593F88
:101FF00050F4503E68F11A16F040A22F232F342FD0
:102000004427585FF3CF469537952795A795F0401D
:102010005395C9F77EF41F16BA0B620B730B840B32
:10202000BAF09150A1F0FF0FBB1F661F771F881FEA
:10203000C2F70EC0BA0F621F731F841F48F4879542
:1020400077956795B795F7959E3F08F0B3CF939531
:10205000880F08F09927EE0F979587950895D9D0A6
:1020600008F481E008950CD00FC107D140F0FED0F4
:1020700030F021F45F3F19F0F0C0511139C1F3C0C5
:1020800014D198F39923C9F35523B1F3951B550B3C
:10209000BB27AA2762177307840738F09F5F5F4F3B
:1020A000220F331F441FAA1FA9F333D00E2E3AF07C
:1020B000E0E830D091505040E695001CCAF729D096
:1020C000FE2F27D0660F771F881FBB1F26173707E5
:1020D0004807AB07B0E809F0BB0B802DBF01FF2715
:1020E00093585F4F2AF09E3F510568F0B6C000C17B
:1020F0005F3FECF3983EDCF3869577956795B7954F
:10210000F7959F5FC9F7880F911D9695879597F969
:102110000895E1E0660F771F881FBB1F62177307E2
:102120008407BA0720F0621B730B840BBA0BEE1FF7
:1021300088F7E095089504D06894B111D9C0089546
:10214000BCD088F09F5790F0B92F9927B751A0F0D5
:10215000D1F0660F771F881F991F1AF0BA95C9F73B
:1021600012C0B13081F0C3D0B1E00895C0C0672F74
:10217000782F8827B85F39F0B93FCCF386957795EB
:102180006795B395D9F73EF49095809570956195D4
:102190007F4F8F4F9F4F0895E89409C097FB3EF4FF
:1021A00090958095709561957F4F8F4F9F4F9923A4
:1021B000A9F0F92F96E9BB279395F6958795779522
:1021C0006795B795F111F8CFFAF4BB0F11F460FFE2
:1021D0001BC06F5F7F4F8F4F9F4F16C0882311F03A
:1021E00096E911C0772321F09EE8872F762F05C04E
:1021F000662371F096E8862F70E060E02AF09A95E9
:10220000660F771F881FDAF7880F9695879597F9DD
:102210000895990F0008550FAA0BE0E8FEEF161677
:102220001706E807F907C0F012161306E407F507CA
:1022300098F0621B730B840B950B39F40A2661F03E
:10224000232B242B252B21F408950A2609F4A140E1
:10225000A6958FEF811D811D089597F99F6780E8EE
:1022600070E060E008959FEF80EC089500240A94E8
:102270001616170618060906089500240A94121661
:102280001306140605060895092E0394000C11F494
:10229000882352F0BB0F40F4BF2B11F460FF04C041
:1022A0006F5F7F4F8F4F9F4F089557FD9058440F9A
:1022B000551F59F05F3F71F04795880F97FB991FA5
:1022C00061F09F3F79F08795089512161306140662
:1022D000551FF2CF4695F1DF08C0161617061806EF
:1022E000991FF1CF86957105610508940895E894CA
:1022F000BB2766277727CB0197F908958ADF08F473
:102300008FEF08950BD0C0CFB1DF28F0B6DF18F003
:10231000952309F0A2CFA7CF1124EACFC6DFA0F3FF
:10232000959FD1F3950F50E0551F629FF001729F6A
:10233000BB27F00DB11D639FAA27F00DB11DAA1F89
:10234000649F6627B00DA11D661F829F2227B00DD6
:10235000A11D621F739FB00DA11D621F839FA00D61
:10236000611D221F749F3327A00D611D231F849FB1
:10237000600D211D822F762F6A2F11249F57504008
:102380008AF0E1F088234AF0EE0FFF1FBB1F661FA3
:10239000771F881F91505040A9F79E3F510570F05C
:1023A0005CCFA6CF5F3FECF3983EDCF38695779544
:1023B0006795B795F795E7959F5FC1F7FE2B880F57
:1023C000911D9695879597F9089523DF880B990BB2
:1023D0000895DB018F939F930E943A12BF91AF91B2
:1023E000A29F800D911DA39F900DB29F900D11246F
:1023F0000895A1E21A2EAA1BBB1BFD010DC0AA1F46
:10240000BB1FEE1FFF1FA217B307E407F50720F05D
:10241000A21BB30BE40BF50B661F771F881F991FD8
:102420001A9469F760957095809590959B01AC0121
:10243000BD01CF010895052E97FB1EF400940E9464
:10244000321257FD07D00E94F91107FC03D04EF459
:102450000C94321250954095309521953F4F4F4F37
:102460005F4F089590958095709561957F4F8F4F40
:102470009F4F08950E944B12A59F900DB49F900D01
:10248000A49F800D911D11240895EE0FFF1F05904C
:10249000F491E02D0994A29FB001B39FC001A39FC6
:1024A000700D811D1124911DB29F700D811D11248D
:1024B000911D0895CF93DF938230910510F482E04F
:1024C00090E0E0915F03F091600320E030E0A0E055
:1024D000B0E0309739F14081518148175907B8F081
:1024E0004817590771F482819381109729F0139648
:1024F0009C938E9312972CC09093600380935F03FC
:1025000027C02115310531F04217530718F0A901F2
:10251000DB0101C0EF019A01BD01DF010280F381FF
:10252000E02DD7CF21153105F9F0281B390B2430C8
:10253000310580F48A819B816115710521F0FB01D1
:102540009383828304C09093600380935F03FE01B2
:10255000329644C0FE01E20FF31F81939193225003
:102560003109398328833AC020915D0330915E039D
:10257000232B41F4209102013091030130935E033B
:1025800020935D0320910001309101012115310557
:1025900041F42DB73EB74091040150910501241B31
:1025A000350BE0915D03F0915E03E217F307A0F4B1
:1025B0002E1B3F0B2817390778F0AC014E5F5F4F99
:1025C0002417350748F04E0F5F1F50935E0340936A
:1025D0005D038193919302C0E0E0F0E0CF01DF91D1
:1025E000CF910895CF93DF93009709F487C0FC0142
:1025F000329713821282C0915F03D09160032097BB
:1026000081F420813181280F391F80915D039091E1
:102610005E038217930779F5F0935E03E0935D0301
:102620006DC0DE0120E030E0AE17BF0750F4129617
:102630004D915C9113979D014115510509F1DA0106
:10264000F3CFB383A28340815181840F951F8A17F2
:102650009B0771F48D919C911197840F951F0296A1
:102660009183808312968D919C911397938382839B
:102670002115310529F4F0936003E0935F033EC018
:10268000D9011396FC93EE9312974D915D91A40F8F
:10269000B51FEA17FB0779F480819181840F951F9C
:1026A0000296D90111969C938E9382819381139601
:1026B0009C938E931297E0E0F0E08A819B810097D3
:1026C00019F0FE01EC01F9CFCE0102962881398183
:1026D000820F931F20915D0330915E032817390705
:1026E00069F4309729F41092600310925F0302C0DE
:1026F00013821282D0935E03C0935D03DF91CF916A
:062700000895F894FFCFDC
:1027060000006103800001000000016369616F0041
:1027160000000000B601E00164697374616E6365D0
:10272600207461736B2074696D65200000000000E1
:102736005A0277027469636B0074656D7020746168
:10274600736B2074696D653A200000000000110368
:102756002A0300000000EE05C10596059E05B10599
:10276600C00500000000C90600000000110716079A
:1027760000000000260700000000600700000000BF
:102786001E0807085D08000000007F090000000021
:102796003E0AAA0BC009D909CB091C0A0D0A006E0C
:0E27A600616E00696E66006F7666002E0000A0
:00000001FF
