:100000000C9464000C948C000C948C000C948C0068
:100010000C948C000C948C000C948C000C948C0030
:100020000C948C000C948C000C948C000C9498070D
:100030000C948C000C948C000C948C000C948C0010
:100040000C94300D0C948C000C943B0A0C946D0AAB
:100050000C948C000C948C000C948C000C948C00F0
:100060000C947A030C948C0000000008000201003C
:100070000003040700000000000000000102040863
:100080001020408001020408102001020408102002
:10009000040404040404040402020202020203032E
:1000A00003030303000000002300260029000000D2
:1000B0000000250028002B0000000000240027007D
:1000C0002A007C01CE059D0A11241FBECFEFD8E087
:1000D000DEBFCDBF11E0A0E0B1E0E4EBF4E202C08E
:1000E00005900D92AE37B107D9F723E0AEE7B1E046
:1000F00001C01D92A730B207E1F710E0C8ECD0E0D4
:1001000004C02297FE010E941E11C23CD107C9F70C
:100110000E941F0D0C9458120C940000CF92DF9295
:10012000EF92FF920F931F93E82FF92F05C0015014
:1001300011092109310961F1908196239417B9F3CE
:1001400005C0015011092109310911F1908196234F
:100150009413F7CFC12CD12CE12CF12C0AC08FEFD6
:10016000C81AD80AE80AF80A0C151D052E053F051D
:1001700079F080818623841791F36C2D7D2D8E2D4F
:100180009F2D1F910F91FF90EF90DF90CF900895DA
:1001900060E070E080E090E01F910F91FF90EF90A1
:1001A000DF90CF900895EF92FF920F931F93CF931C
:1001B000DF9326E040E855E260E070E08DE592E0F4
:1001C0000E94D90988E092E00E943E0562E370E057
:1001D0008EE791E00E94770787E190E00E942E0D64
:1001E000EC01E12CF12C08EC12E426E649E050E0A9
:1001F0006AE070E0CE010E944502E881F981019039
:10020000F081E02D62E370E0CE010995BE018EE73A
:1002100091E00E94100787E190E00E942E0DEC0112
:1002200022E74BE050E06CE070E00E944502E8817C
:10023000F9810190F081E02D62E370E0CE01099533
:10024000BE018EE791E00E94100787E190E00E94D6
:100250002E0DEC012CE647E050E068E070E00E94D3
:100260004502E881F9810190F081E02D62E370E0C0
:10027000CE010995BE018EE791E00E94100782E150
:1002800090E00E942E0DEC0128E730E04EE050E0B7
:100290006DE070E00E94E801E881F9810190F08151
:1002A000E02D64EF71E0CE010995BE018EE791E08B
:1002B0000E9410078AE090E00E942E0D8C0168E4F5
:1002C00070E00E948C02D801ED91FC910190F081C8
:1002D000E02D68EE73E0C8010995BE018EE791E05C
:1002E000DF91CF911F910F91FF90EF900C94100729
:1002F0008EE791E00C94660781E591E090937F0191
:1003000080937E0108950F931F93CF93DF93EC01A9
:100310007B836A831D821C8284E090E00E942E0D04
:100320008C016E817F810E9418061D870C8788E0F2
:1003300090E00E942E0D8C014A855B856885798549
:100340000E94CC081F870E8781E090E0998B888BF4
:10035000DF91CF911F910F910895CF93DF93EC011F
:10036000888999890097C9F0019779F58E859F85CD
:10037000DC01ED91FC910190F081E02D099588233D
:1003800021F18C859D85DC01ED91FC910190F0813E
:10039000E02D0995198A188A18C08E859F85DC0181
:1003A000ED91FC910190F081E02D099581110DC036
:1003B0008C859D85DC01ED91FC910280F381E02D1F
:1003C000099581E090E0998B888BDF91CF9108951A
:1003D000FC018FE091E0918380837783668351876E
:1003E00040873387228708950F931F93CF93DF931E
:1003F000EC017B836A831D821C821C861B8688E03D
:1004000090E00E942E0D8C01488559856E817F8178
:100410000E94FE071E8B0D8BDF91CF911F910F91D4
:1004200008950F931F93CF93DF93EC018B859C85E9
:10043000009719F00197A1F023C009891A892B8927
:100440003C894D855E856F8578898D899E890E945E
:100450002B08811115C081E090E09C878B8710C02C
:1004600009891A892B893C894D855E856F85788934
:100470008D899E890E942B08882311F01C861B867B
:10048000DF91CF911F910F9108958F929F92AF921C
:10049000BF92EF92FF920F931F93FC0187E191E0CF
:1004A00091838083812C912C80EAA82E81E4B82E40
:1004B000818A928AA38AB48A778366835187408728
:1004C0002287E586F6860787108B1F910F91FF9094
:1004D000EF90BF90AF909F908F9008950F931F93D0
:1004E000CF93DF93EC017B836A831D821C8284E0BF
:1004F00090E00E942E0D8C016E817F810E94710818
:1005000019870887DF91CF911F910F910895FC0102
:10051000808591850C9492082FE131E0FC013183B4
:1005200020837783668308951092070281E0809389
:1005300005021092040261E082E10E943F0E61E038
:1005400083E10E943F0EE9EBF0E080818E7F8083A3
:1005500080818D7F808388E48093B80085E48093D8
:10056000BC000895413208F043C0909107029111F8
:10057000FCCF91E090930702209305022FEF209388
:100580009A011092DF01240F2093DE01909306025E
:1005900090910602880F892B8093060280910402B5
:1005A000813061F410920402809106028093BB00B6
:1005B0008091BC0083FDF8CF85EC01C085EE80936F
:1005C000BC00809107028130E1F38091DF01841744
:1005D00010F44091DF0120EE31E0FB01D9018A2FB8
:1005E000821B841718F48D918193F9CF842F08957D
:1005F00080E008950F93413208F04AC090910702BD
:100600009111FCCF92E090930702009305029FEFB7
:1006100090939A011092DF014093DE01FB0160EE9E
:1006200071E0DB019A2F961B941718F491919D931A
:10063000F9CF1092060290910602880F892B8093C1
:10064000060280910402813061F4109204028091CC
:1006500006028093BB008091BC0083FDF8CF85EC3F
:1006600001C085EE8093BC00222321F08091070217
:100670008230E1F380919A018F3F61F080919A017D
:10068000803251F080919A01803341F483E007C0B9
:1006900081E005C080E003C082E001C084E00F91EA
:1006A0000895613298F420910702243089F4609310
:1006B000BC01FC018EEB91E0DC012A2F281B2617E0
:1006C00018F421912D93F9CF80E0089581E00895E9
:1006D00082E0089585ED8093BC008091BC0084FD8C
:1006E000FCCF10920702089585EC8093BC00109215
:1006F000070208951F920F920FB60F9211242F93A5
:100700003F934F935F936F937F938F939F93AF9399
:10071000BF93EF93FF938091B900887F803609F4EF
:100720009EC078F5883209F45DC090F4803109F4F8
:1007300056C038F4882309F4F5C0883009F44FC056
:10074000F5C0883109F44EC0803209F45FC0EEC0B4
:10075000803409F46AC058F4803309F457C08833F0
:1007600009F0E4C080939A010E947403DFC08035D1
:1007700009F44FC0883509F45DC0883409F0D6C04B
:10078000D3C0883909F4C4C0A8F4883709F467C015
:1007900038F4883609F463C0803709F460C0C6C0F5
:1007A000883809F4B5C0803909F45FC0803809F091
:1007B000BDC05BC0803B09F483C038F4803A09F4C3
:1007C00066C0883A09F47CC0B1C0803C09F4A4C07A
:1007D000883C09F4A1C0883B09F487C0A7C0809178
:1007E000060210C09091DF018091DE01981770F52C
:1007F000E091DF0181E08E0F8093DF01F0E0E052B5
:10080000FE4F80818093BB0085EC83C080939A016A
:100810008BC0E091DF0181E08E0F8093DF0180913A
:10082000BB00F0E0E052FE4F80839091DF018091A9
:10083000DE016BC0E091DF0181E08E0F8093DF016C
:100840008091BB00F0E0E052FE4F80838091050272
:1008500081116AC081E08093040284EA5EC083E073
:100860008093070210929B01CFCF80919B01803231
:1008700008F04EC0E0919B0181E08E0F80939B01B8
:100880008091BB00F0E0E456FE4F8083BDCF0E9414
:10089000740380919B01803230F4E0919B01F0E081
:1008A000E456FE4F108260919B0170E0E0910002DF
:1008B000F09101028CE991E0099510929B0136C0FC
:1008C00084E0809307021092BD011092BC01E09178
:1008D0000202F091030209958091BC01811105C0CB
:1008E00081E08093BC011092BE01E091BD0181E0E6
:1008F0008E0F8093BD01F0E0E254FE4F8081809323
:10090000BB009091BD018091BC01981708F47CCF89
:1009100085E88093BC000AC085EC8093BC001092EF
:10092000070204C010929A010E946A03FF91EF919E
:10093000BF91AF919F918F917F916F915F914F91F7
:100940003F912F910F900FBE0F901F90189580919F
:10095000380290E020913902821B9109089520917C
:10096000390280913802281750F4E22FF0E0E65C5B
:10097000FD4F808190E02F5F2093390208958FEF23
:100980009FEF0895E091390280913802E81730F422
:10099000F0E0E65CFD4F808190E008958FEF9FEFDF
:1009A00008950895CF92DF92EF92FF920F931F93D5
:1009B000CF93DF937C01CB018A0120911402222383
:1009C00089F0EB016B01C40ED51ECC15DD0569F075
:1009D0006991D701ED91FC910190F081E02DC70163
:1009E0000995F3CF642F0E945103C801DF91CF9185
:1009F0001F910F91FF90EF90DF90CF900895CF93CC
:100A0000DF931F92CDB7DEB76983209114022223B2
:100A1000D1F020911502203240F021E030E0FC01BD
:100A20003383228380E090E015C080911602E82F86
:100A3000F0E0E95EFD4F998190838F5F809316020D
:100A40008093150205C061E0CE0101960E9451031A
:100A500081E090E00F90DF91CF910895FC01138227
:100A6000128248EE53E060E070E044835583668371
:100A7000778387E291E09183808308951092390211
:100A80001092380210921602109215020C949402E1
:100A900081E0809314026093370210921602109244
:100AA000150208950C9448050F93062F21E04091FC
:100AB000150267E172E0809137020E94FA021092FB
:100AC000160210921502109214020F9108958F923F
:100AD0009F92AF92BF92CF92DF92EF92FF920F93CD
:100AE0001F93CF93DF93EC01F62ED42E48015901CA
:100AF000EE2019F10E9448051E2D143008F013E075
:100B00001150B8F0E881F98128E0129FB00111245A
:100B1000A501940104C056954795379527956A9588
:100B2000D2F7CA01B9010190F081E02DCE010995FB
:100B3000E7CF60E0CE010E9454054D2D413208F010
:100B400040E22C2D6AE372E08F2D0E94B2021092D7
:100B5000390280933802DF91CF911F910F91FF905E
:100B6000EF90DF90CF90BF90AF909F908F900895BF
:100B7000CF92EF920F931F93C22EE12C00E010E072
:100B800098010E9467051F910F91EF90CF900895F3
:100B900021E00C94B80561E00C94540588E092E0E3
:100BA0000C942E0527E331E0FC013183208373830D
:100BB00062830895CF93DF93EC016A817B8188E0A3
:100BC00092E00E945205E0910802F0910902019022
:100BD000F081E02D60E088E092E0099588E092E005
:100BE0000E94CB056A817B8141E050E088E092E081
:100BF0000E94C80588E092E00E94A704892BD1F3E7
:100C000088E092E00E94AF04BC01882777FD8095C0
:100C1000982F0E94A50FDF91CF91089561E0FC010C
:100C200082810C943F0E60E0FC0182810C943F0EA7
:100C3000FC01862F2DE331E03183208362837383AF
:100C400061E00C94060EAF92BF92CF92DF92EF92CA
:100C5000FF920F931F93FC0182810E94C00DBC0183
:100C6000882777FD8095982F1F921F921F922FEF54
:100C70002F93A12CB12C6501EE24EA9413E0F12E00
:100C800000E010E020E030E0A9010E94D70C0F90B6
:100C90000F900F900F90CB011F910F91FF90EF904D
:100CA000DF90CF90BF90AF90089525E431E0FC0134
:100CB000318320837383628308958F929F92AF92D2
:100CC000BF92CF92DF92EF92FF92CF93DF93EC012E
:100CD0006A017B014E835F836887798760E08A8140
:100CE0000E943F0E83E090E00E947A0D61E08A81CD
:100CF0000E943F0E85E090E00E947A0D60E08A81BC
:100D00000E943F0E20E432E44FE050E061E08C812D
:100D10000E94750E0E94A30F20E030E04AE754E4E1
:100D20000E940A0F20E030E04AE754E40E940A0FD4
:100D300020E030E040E05FE30E9459104B015C018D
:100D40002AE939E949E15FE3C701B6010E94591078
:100D500020E030EC45EA53E40E94A20E9B01AC0176
:100D6000C501B4010E9459106B017C0122E030E002
:100D7000AB01BC018DE592E00E94C50CC701B60134
:100D8000DF91CF91FF90EF90DF90CF90BF90AF9029
:100D90009F908F900895AF92BF92DF92EF92FF9253
:100DA0000F931F93CF93DF931F92CDB7DEB75C01F4
:100DB000E62EF42ED52E2BE431E0FC013183208386
:100DC000628373834483558361E08E2D79830E940F
:100DD000060E60E08F2D0E94060E00E010E020EA73
:100DE00031E4F50106831783208731874AE050E01C
:100DF0006E2D79818DE592E00E94C20B4AE050E0B1
:100E00006F2D7D2D8DE592E00F90DF91CF911F9199
:100E10000F91FF90EF90DF90BF90AF900C94C20BBA
:100E2000FC0124813581293031057CF4F9013396A8
:100E3000EE0FFF1FE80FF91F718360832F5F3F4F95
:100E4000FC013583248381E0089580E00895EF92CA
:100E5000FF920F931F93CF93DF938C017C01C0E02F
:100E6000D0E0F80184819581C817D90744F5F701CE
:100E7000A681B78114962D913C911597F801828136
:100E80009381280F391F15963C932E931497129631
:100E90008D919C9113972817390764F015961C9231
:100EA0001E921497ED91FC9111970280F381E02D31
:100EB000CD0109952196F2E0EF0EF11CD2CFDF9122
:100EC000CF911F910F91FF90EF90089583B7817F8D
:100ED00083BF83B7816083BF83B7816083BF8895F9
:100EE00083B78E7F83BF83B78E7F83BF0895EF92D2
:100EF000FF920F931F93CF93DF93EC017B017B83D2
:100F00006A8381E090E00E942E0D8C01BE010E9458
:100F1000CA071B8F0A8FB701C8010E94D1071D8223
:100F20001C82DF91CF911F910F91FF90EF90089558
:100F30001F920F920FB60F9211242F933F934F934E
:100F40005F936F937F938F939F93AF93BF93EF9331
:100F5000FF9381E080935C0280915A0290915B0242
:100F6000009739F0DC01ED91FC910190F081E02DCA
:100F70000995FF91EF91BF91AF919F918F917F91D3
:100F80006F915F914F913F912F910F900FBE0F90F6
:100F90001F90189510925C0270935B0260935A0246
:100FA0000895CF93DF93F89410928000C1E8D0E0C9
:100FB00018821092850010928400882777FD809512
:100FC000982F0E94A50F2FE632E143E851E40E94DA
:100FD00059100E94770F7093890060938800888170
:100FE00088608883888185608883EFE6F0E080816F
:100FF000826080837894DF91CF910895EF92FF9281
:101000000F931F93CF93DF9300D000D0CDB7DEB7FF
:101010007C01FC0171836083538342838AE090E00A
:101020004B835C8369837A830E942E0D8C014B81F4
:101030005C8169817A810E94CB06F7011783068360
:101040000F900F900F900F90DF91CF911F910F9104
:10105000FF90EF9008958F929F92AF92BF92CF92A0
:10106000DF92EF92FF920F931F93CF93DF93EC01E8
:101070004A015B01680179018E819F81DC01ED915C
:10108000FC910190F081E02DB901A8010995AB0117
:10109000BC0122E030E08DE592E00E94C50C8E811B
:1010A0009F81DC01ED91FC910190F081E02DB70171
:1010B000A6010995C1E0A50194010E94060F18162A
:1010C0000CF4C0E081E08C27DF91CF911F910F914C
:1010D000FF90EF90DF90CF90BF90AF909F908F9058
:1010E0000895EF92FF920F931F93CF93DF9300D059
:1010F000CDB7DEB78C0184E090E069837A830E94EB
:101100002E0D7C0169817A810E94D205F801F3825B
:10111000E2820F900F90DF91CF911F910F91FF907E
:10112000EF900895CF93DF93EC018A819B81DC01DE
:10113000ED91FC910190F081E02D09950E94720FD4
:1011400079836883DF91CF910895CF93DF93EC018A
:101150008A819B81DC01ED91FC910190F081E02D71
:1011600009954AE050E0BC018DE592E00E94C20B77
:101170008A819B81DC01ED91FC910190F081E02D51
:10118000099541E02E813F81281739070CF440E092
:10119000842FDF91CF910895EF92FF920F931F93C9
:1011A000CF93DF9300D0CDB7DEB77C018BE591E024
:1011B000F70191838083758364835783468384E03A
:1011C00090E069837A830E942E0D8C0169817A8177
:1011D0000E945506F701138302830F900F90DF9151
:1011E000CF911F910F91FF90EF900895FC01818D99
:1011F000228D90E0805C9F4F821B91098F7399270D
:101200000895FC01918D828D981731F0828DE80F41
:10121000F11D858D90E008958FEF9FEF0895FC01FB
:10122000918D828D981761F0828DDF01A80FB11D1D
:101230005D968C91928D9F5F9F73928F90E0089541
:101240008FEF9FEF089583E99AE0892B49F080E0C2
:1012500090E0892B29F00E94930A81110C940000E0
:101260000895FC01848DDF01A80FB11DA35ABF4F63
:101270002C91848D90E001968F739927848FA68995
:10128000B7892C93A089B1898C9180648C93938DBC
:10129000848D981306C00288F389E02D80818F7DAC
:1012A00080830895CF93DF93EC01888D8823C9F064
:1012B000EA89FB89808185FD05C0A889B9898C915F
:1012C00086FD0FC00FB607FCF5CF808185FFF2CFFA
:1012D000A889B9898C9185FFEDCFCE010E94310993
:1012E000E7CFDF91CF910895CF92DF92FF920F93D6
:1012F0001F93CF93DF931F92CDB7DEB76C0181E0D0
:10130000D60158968C9358975B969C915B975C9608
:101310008C915C97981307C05096ED91FC91519772
:10132000808185FD2EC0F601038D10E00F5F1F4FF9
:101330000F731127F02EF601848DF81211C00FB62D
:1013400007FCF9CFD6015096ED91FC915197808121
:1013500085FFF1CFC60169830E9431096981EBCF16
:10136000838DE80FF11DE35AFF4F6083D6015B9632
:101370000C935B975296ED91FC915397808180621C
:101380000CC0D6015696ED91FC915797608350960C
:10139000ED91FC91519780818064808381E090E0A1
:1013A0000F90DF91CF911F910F91FF90DF90CF9021
:1013B0000895BF92CF92DF92EF92FF92CF93DF9387
:1013C000EC016A017B01B22EE889F98982E0808311
:1013D000411581EE580761057105A1F060E079E0E3
:1013E0008DE390E0A70196010E94D01021503109B1
:1013F000410951095695479537952795211580E163
:10140000380798F0E889F989108260E874E88EE17D
:1014100090E0A70196010E94D010215031094109A6
:1014200051095695479537952795EC85FD8530836D
:10143000EE85FF852083188EEC89FD89B082EA89CC
:10144000FB89808180618083EA89FB898081886053
:101450008083EA89FB89808180688083EA89FB89AF
:1014600080818F7D8083DF91CF91FF90EF90DF901F
:10147000CF90BF9008951F920F920FB60F92112434
:101480002F938F939F93EF93FF93E0916D02F091D1
:101490006E028081E0917302F091740282FD12C0AD
:1014A0009081809176028F5F8F73209177028217EF
:1014B00051F0E0917602F0E0E35AFD4F958F809372
:1014C000760201C08081FF91EF919F918F912F91C2
:1014D0000F900FBE0F901F9018951F920F920FB68E
:1014E0000F9211242F933F934F935F936F937F93AA
:1014F0008F939F93AF93BF93EF93FF938DE592E00C
:101500000E943109FF91EF91BF91AF919F918F910F
:101510007F916F915F914F913F912F910F900FBEEF
:101520000F901F9018958DE592E00E94F60821E03B
:10153000892B09F420E0822F089510926002109206
:101540005F0288EE93E0A0E0B0E0809361029093A8
:101550006202A0936302B093640281E691E09093EB
:101560005E0280935D0285EC90E090936A02809326
:10157000690284EC90E090936C0280936B0280ECA3
:1015800090E090936E0280936D0281EC90E09093D6
:10159000700280936F0282EC90E0909372028093CD
:1015A000710286EC90E09093740280937302109223
:1015B00076021092770210927802109279020895C2
:1015C000CF92DF92EF92FF920F931F93CF93DF930F
:1015D0007C016A01EB0100E010E00C151D0571F0C3
:1015E0006991D701ED91FC910190F081E02DC70147
:1015F0000995892B19F00F5F1F4FEFCFC801DF91BD
:10160000CF911F910F91FF90EF90DF90CF900895B1
:101610006115710581F0DB010D900020E9F7AD0146
:1016200041505109461B570BDC01ED91FC910280A2
:10163000F381E02D099480E090E00895DC01ED91C4
:10164000FC910190F081E02D09946DE671E00C941D
:10165000080B8F929F92AF92BF92DF92EF92FF9210
:101660000F931F93CF93DF93CDB7DEB7A1970FB63C
:10167000F894DEBF0FBECDBF7C01F42FD52ECB0179
:1016800019A2223008F42AE08E010F5D1F4F822E2E
:10169000912CA12CB12C6F2F7D2DA50194010E94BE
:1016A000D010F22FD32ECA01015011096A3014F460
:1016B000E0E301C0E7E3E60FD801EC93232B242BF2
:1016C000252B49F7B801C7010E94080BA1960FB658
:1016D000F894DEBF0FBECDBFDF91CF911F910F9168
:1016E000FF90EF90DF90BF90AF909F908F90089504
:1016F000CF92DF92EF92FF920F931F93CF93DF93DE
:10170000EC016A017B012115310579F4E881F98149
:101710000190F081E02D642FDF91CF911F910F9107
:10172000FF90EF90DF90CF9009942A303105E9F4D3
:1017300077FF1AC06DE20E941E0B8C0144275527CB
:10174000BA014C195D096E097F092AE0CE010E9499
:10175000290B800F911FDF91CF911F910F91FF9067
:10176000EF90DF90CF9008952AE0B701A601CE0157
:10177000DF91CF911F910F91FF90EF90DF90CF906D
:101780000C94290B0F931F93CF93DF93EC019A01D5
:10179000AB01662757FD6095762F0E94780B8C0170
:1017A000CE010E94250B800F911FDF91CF911F91D9
:1017B0000F9108954F925F926F927F928F929F92B6
:1017C000AF92BF92CF92DF92EF92FF920F931F934F
:1017D000CF93DF93EC016A017B01B22E9A01AB013A
:1017E000C701B6010E94BC10882319F060E771E0C0
:1017F00027C026013701E89477F82FEF3FEF4FE736
:101800005FE7C301B2010E94BC1081110DC02FEF30
:101810003FEF4FE75FE7C301B2010E94060F1816C2
:101820001CF464E771E00CC02FEF3FEF4FE75FE47B
:10183000C701B6010E9455101816ACF468E771E0B4
:10184000CE01DF91CF911F910F91FF90EF90DF902C
:10185000CF90BF90AF909F908F907F906F905F9050
:101860004F900C94080B2FEF3FEF4FE75FECC70151
:10187000B6010E94060F87FDE1CF20E030E0A9010C
:10188000C701B6010E94060F87FF0AC06DE2CE01B4
:101890000E941E0B8C01F7FAF094F7F8F09402C046
:1018A00000E010E0A12C60E070E080E09FE3AB146A
:1018B00041F020E030E040E251E40E940A0FA3949E
:1018C000F6CF9B01AC01C701B6010E94A20E6B01CD
:1018D0007C010E94770F2B013C010E94A30F9B010A
:1018E000AC01C701B6010E94A10E6B017C012AE088
:1018F000B301A201CE010E94290B080F191FBB20C2
:1019000039F06CE771E0CE010E94080B080F191F37
:101910007B2C772041F120E030E040E251E4C70128
:10192000B6010E9459106B017C010E94720F4B019D
:10193000AA2497FCA094BA2C2AE030E0B501A401B7
:10194000CE010E94780B080F191FC501B4010E9437
:10195000A50F9B01AC01C701B6010E94A10E6B014E
:101960007C017A94D6CFC801DF91CF911F910F915E
:10197000FF90EF90DF90CF90BF90AF909F908F90AF
:101980007F906F905F904F9008950F931F93CF9328
:10199000DF93EC010E94DA0B8C01CE010E94250B33
:1019A000800F911FDF91CF911F910F9108954F925A
:1019B0005F926F927F92AF92BF92CF92DF92EF923F
:1019C000FF920F931F93CF93DF93CDB7DEB729011B
:1019D0003A01621B730B840B950B29893A894B8959
:1019E0005C892A193B094C095D09298B3A8B4B8B81
:1019F0005C8B9B01AC0169897A898B899C890E94E7
:101A0000C010E418F50806091709A80197010E94FB
:101A1000F2102A0D3B1D4C1D5D1DCA01B901DF915D
:101A2000CF911F910F91FF90EF90DF90CF90BF90DB
:101A3000AF907F906F905F904F90089508950E94AF
:101A4000850D0E941E0D0E94D300C3E2D9E00E94C2
:101A500078012097E1F30E942309F9CF0C9431110A
:101A60001F920F920FB60F9211242F933F938F93D3
:101A70009F93AF93BF938091FB029091FC02A09142
:101A8000FD02B091FE023091FA0223E0230F2D37C0
:101A900020F40196A11DB11D05C026E8230F029672
:101AA000A11DB11D2093FA028093FB029093FC02CA
:101AB000A093FD02B093FE028091FF02909100037B
:101AC000A0910103B09102030196A11DB11D809365
:101AD000FF0290930003A0930103B0930203BF9110
:101AE000AF919F918F913F912F910F900FBE0F90CB
:101AF0001F9018958230910538F0880F991F880F34
:101B0000991F05970197F1F70895789484B582603D
:101B100084BD84B5816084BD85B5826085BD85B591
:101B2000816085BDEEE6F0E0808181608083E1E840
:101B3000F0E0108280818260808380818160808378
:101B4000E0E8F0E0808181608083E1EBF0E080817B
:101B500084608083E0EBF0E0808181608083EAE74D
:101B6000F0E08081846080838081826080838081D6
:101B7000816080838081806880831092C100089595
:101B80008E3008F08E50877020910A0190E4299FD2
:101B900090011124822B80937C0080917A008064D4
:101BA00080937A0080917A0086FDFCCF8091780046
:101BB0002091790090E0922B0895833081F028F4F1
:101BC000813099F08230A1F008958730A9F08830F3
:101BD000B9F08430D1F4809180008F7D03C0809172
:101BE00080008F7780938000089584B58F7702C03E
:101BF00084B58F7D84BD08958091B0008F7703C038
:101C00008091B0008F7D8093B0000895CF93DF93D3
:101C100090E0FC01E458FF4F2491FC01E057FF4F96
:101C20008491882349F190E0880F991FFC01E854C2
:101C3000FF4FA591B49182559F4FFC01C591D4915E
:101C40009FB7611108C0F8948C91209582238C93E2
:101C5000888182230AC0623051F4F8948C91322F2B
:101C6000309583238C938881822B888304C0F894D9
:101C70008C91822B8C939FBFDF91CF9108950F930E
:101C80001F93CF93DF931F92CDB7DEB7282F30E09D
:101C9000F901E859FF4F8491F901E458FF4F14917D
:101CA000F901E057FF4F04910023C9F0882321F088
:101CB00069830E94DD0D6981E02FF0E0EE0FFF1FC8
:101CC000E255FF4FA591B4919FB7F8948C916111A3
:101CD00003C01095812301C0812B8C939FBF0F906F
:101CE000DF91CF911F910F9108950F931F93762F3E
:101CF00090E0FC01E458FF4F6491FC01E057FF4F76
:101D0000E4917111762FF0E0EE0FFF1FEC55FF4FBD
:101D10008591949189019A013F70472F0E948E000E
:101D2000611571058105910531F06F5F7F4F8F4F10
:101D30009F4F9F7003C060E070E0CB011F910F9137
:101D400008955058BB27AA270ED075C166D130F030
:101D50006BD120F031F49F3F11F41EF45BC10EF4FF
:101D6000E095E7FB51C1E92F77D180F3BA176207FD
:101D700073078407950718F071F49EF58FC10EF470
:101D8000E0950B2EBA2FA02D0B01B90190010C018B
:101D9000CA01A0011124FF27591B99F0593F50F4A3
:101DA000503E68F11A16F040A22F232F342F4427FB
:101DB000585FF3CF469537952795A795F0405395F3
:101DC000C9F77EF41F16BA0B620B730B840BBAF0C3
:101DD0009150A1F0FF0FBB1F661F771F881FC2F72E
:101DE0000EC0BA0F621F731F841F48F48795779542
:101DF0006795B795F7959E3F08F0B3CF9395880FF9
:101E000008F09927EE0F979587950895D9D008F493
:101E100081E008950CD00FC107D140F0FED030F022
:101E200021F45F3F19F0F0C0511139C1F3C014D152
:101E300098F39923C9F35523B1F3951B550BBB2791
:101E4000AA2762177307840738F09F5F5F4F220F3E
:101E5000331F441FAA1FA9F333D00E2E3AF0E0E837
:101E600030D091505040E695001CCAF729D0FE2F83
:101E700027D0660F771F881FBB1F26173707480715
:101E8000AB07B0E809F0BB0B802DBF01FF279358CB
:101E90005F4F2AF09E3F510568F0B6C000C15F3F1A
:101EA000ECF3983EDCF3869577956795B795F795B3
:101EB0009F5FC9F7880F911D9695879597F90895AB
:101EC000E1E0660F771F881FBB1F62177307840747
:101ED000BA0720F0621B730B840BBA0BEE1F88F756
:101EE000E095089504D06894B111D9C00895BCD08C
:101EF00088F09F5790F0B92F9927B751A0F0D1F0F3
:101F0000660F771F881F991F1AF0BA95C9F712C07C
:101F1000B13081F0C3D0B1E00895C0C0672F782FF1
:101F20008827B85F39F0B93FCCF3869577956795E8
:101F3000B395D9F73EF490958095709561957F4F54
:101F40008F4F9F4F0895E89409C097FB3EF49095FA
:101F50008095709561957F4F8F4F9F4F9923A9F082
:101F6000F92F96E9BB279395F69587957795679511
:101F7000B795F111F8CFFAF4BB0F11F460FF1BC055
:101F80006F5F7F4F8F4F9F4F16C0882311F096E9E8
:101F900011C0772321F09EE8872F762F05C0662396
:101FA00071F096E8862F70E060E02AF09A95660F4F
:101FB000771F881FDAF7880F9695879597F9089508
:101FC000990F0008550FAA0BE0E8FEEF161617064A
:101FD000E807F907C0F012161306E407F50798F0B2
:101FE000621B730B840B950B39F40A2661F0232BCB
:101FF000242B252B21F408950A2609F4A140A69547
:102000008FEF811D811D089597F99F6780E870E02B
:1020100060E008959FEF80EC089500240A9416165E
:10202000170618060906089500240A9412161306C6
:10203000140605060895092E0394000C11F4882354
:1020400052F0BB0F40F4BF2B11F460FF04C06F5F70
:102050007F4F8F4F9F4F089557FD9058440F551F46
:1020600059F05F3F71F04795880F97FB991F61F01A
:102070009F3F79F087950895121613061406551F91
:10208000F2CF4695F1DF08C0161617061806991FFD
:10209000F1CF86957105610508940895E894BB27F2
:1020A00066277727CB0197F908958ADF08F48FEF29
:1020B00008950BD0C0CFB1DF28F0B6DF18F095231C
:1020C00009F0A2CFA7CF1124EACFC6DFA0F3959FD6
:1020D000D1F3950F50E0551F629FF001729FBB270F
:1020E000F00DB11D639FAA27F00DB11DAA1F649FBB
:1020F0006627B00DA11D661F829F2227B00DA11D6E
:10210000621F739FB00DA11D621F839FA00D611DF3
:10211000221F749F3327A00D611D231F849F600D14
:10212000211D822F762F6A2F11249F5750408AF04D
:10213000E1F088234AF0EE0FFF1FBB1F661F771FD9
:10214000881F91505040A9F79E3F510570F05CCF19
:10215000A6CF5F3FECF3983EDCF3869577956795C5
:10216000B795F795E7959F5FC1F7FE2B880F911DF7
:102170009695879597F9089523DF880B990B089515
:10218000DB018F939F930E941111BF91AF91A29F8A
:10219000800D911DA39F900DB29F900D1124089565
:1021A000A1E21A2EAA1BBB1BFD010DC0AA1FBB1F5B
:1021B000EE1FFF1FA217B307E407F50720F0A21BCD
:1021C000B30BE40BF50B661F771F881F991F1A943A
:1021D00069F760957095809590959B01AC01BD0164
:1021E000CF010895052E97FB1EF400940E9409115B
:1021F00057FD07D00E94D01007FC03D04EF40C947A
:10220000091150954095309521953F4F4F4F5F4FA5
:10221000089590958095709561957F4F8F4F9F4F52
:1022200008950E942211A59F900DB49F900DA49F28
:10223000800D911D11240895EE0FFF1F0590F4915C
:10224000E02D0994A29FB001B39FC001A39F700D20
:10225000811D1124911DB29F700D811D1124911DAE
:102260000895CF93DF938230910510F482E090E0DF
:10227000E0910503F091060320E030E0A0E0B0E03B
:10228000309739F14081518148175907B8F0481704
:10229000590771F482819381109729F013969C93CA
:1022A0008E9312972CC0909306038093050327C04A
:1022B0002115310531F04217530718F0A901DB0150
:1022C00001C0EF019A01BD01DF010280F381E02D21
:1022D000D7CF21153105F9F0281B390B24303105F2
:1022E00080F48A819B816115710521F0FB01938344
:1022F000828304C09093060380930503FE01329607
:1023000044C0FE01E20FF31F8193919322503109E3
:10231000398328833AC02091030330910403232B8F
:1023200041F4209102013091030130930403209382
:10233000030320910001309101012115310541F481
:102340002DB73EB74091040150910501241B350B78
:10235000E0910303F0910403E217F307A0F42E1BAE
:102360003F0B2817390778F0AC014E5F5F4F2417F9
:10237000350748F04E0F5F1F50930403409303034B
:102380008193919302C0E0E0F0E0CF01DF91CF9123
:102390000895CF93DF93009709F487C0FC0132972B
:1023A00013821282C0910503D0910603209781F415
:1023B00020813181280F391F8091030390910403FC
:1023C0008217930779F5F0930403E09303036DC03C
:1023D000DE0120E030E0AE17BF0750F412964D91B9
:1023E0005C9113979D014115510509F1DA01F3CF75
:1023F000B383A28340815181840F951F8A179B0765
:1024000071F48D919C911197840F951F0296918381
:10241000808312968D919C911397938382832115CB
:10242000310529F4F0930603E09305033EC0D9017A
:102430001396FC93EE9312974D915D91A40FB51FE7
:10244000EA17FB0779F480819181840F951F02962A
:10245000D90111969C938E938281938113969C93BC
:102460008E931297E0E0F0E08A819B81009719F04B
:10247000FE01EC01F9CFCE01029628813981820F4D
:10248000931F20910303309104032817390769F43F
:10249000309729F4109206031092050302C01382AC
:1024A0001282D0930403C0930303DF91CF91089568
:0424B000F894FFCFCE
:1024B4000000070380000100000001000000008309
:1024C40001AD0100000000F4011102000000006EE3
:1024D40002870200000000FF04D204A704AF04C274
:1024E40004D10400000000DA05000000000E061309
:1024F40006000000002306000000005D0600000046
:102504000027071007660700000000A50800000068
:10251400007409E00AF6080F09010952090D0A00BE
:0E2524006E616E00696E66006F7666002E00B6
:00000001FF
