:100000000C9464000C948C000C948C000C948C0068
:100010000C948C000C948C000C948C000C948C0030
:100020000C948C000C948C000C948C000C94620842
:100030000C948C000C948C000C948C000C948C0010
:100040000C94F60C0C948C000C94D80A0C940A0BAB
:100050000C948C000C948C000C948C000C948C00F0
:100060000C9450040C948C00000000080002010065
:100070000003040700000000000000000102040863
:100080001020408001020408102001020408102002
:10009000040404040404040402020202020203032E
:1000A00003030303000000002300260029000000D2
:1000B0000000250028002B0000000000240027007D
:1000C0002A007B01A4063A0B11241FBECFEFD8E013
:1000D000DEBFCDBF11E0A0E0B1E0E6E7F4E202C090
:1000E00005900D92A63CB107D9F723E0A6ECB1E04C
:1000F00001C01D92A337B207E1F710E0C8ECD0E0D1
:1001000004C02297FE010E94FF10C23CD107C9F72C
:100110000E94E50C0C9439120C940000CF92DF92EF
:10012000EF92FF920F931F93E82FF92F05C0015014
:1001300011092109310961F1908196239417B9F3CE
:1001400005C0015011092109310911F1908196234F
:100150009413F7CFC12CD12CE12CF12C0AC08FEFD6
:10016000C81AD80AE80AF80A0C151D052E053F051D
:1001700079F080818623841791F36C2D7D2D8E2D4F
:100180009F2D1F910F91FF90EF90DF90CF900895DA
:1001900060E070E080E090E01F910F91FF90EF90A1
:1001A000DF90CF900895EF92FF920F931F93CF931C
:1001B000DF9326E040E855E260E070E089EC92E0F1
:1001C0000E94760A84E792E00E94140662E370E0DF
:1001D00086EC91E00E94410887E190E00E94F40CD7
:1001E000EC01E12CF12C08EC12E426E649E050E0A9
:1001F0006AE070E0CE010E94B402E881F9810190CA
:10020000F081E02D62E370E0CE010995BE0186EC3D
:1002100091E00E94DA0787E190E00E94F40CEC0183
:1002200022E74BE050E06CE070E00E94B402E8810D
:10023000F9810190F081E02D62E370E0CE01099533
:10024000BE0186EC91E00E94DA0787E190E00E940F
:10025000F40CEC012CE647E050E068E070E00E940E
:10026000B402E881F9810190F081E02D62E370E051
:10027000CE010995BE0186EC91E00E94DA0782E189
:1002800090E00E94F40CEC0128E730E04EE050E0F2
:100290006DE070E00E941A02E881F9810190F0811E
:1002A000E02D6AEF70E0CE010995BE0186EC91E089
:1002B0000E94DA078AE090E00E94F40CEC0168E406
:1002C00070E00E945303E881F9810190F081E02DF4
:1002D0006CED75E0CE010995BE0186EC91E0DF91F1
:1002E000CF911F910F91FF90EF900C94DA0786EC5D
:1002F00091E00C94300888E991E09093C7018093D5
:10030000C60108950F931F93CF93DF93EC017B8376
:100310006A831D821C8284E090E00E94F40C8C01B0
:100320006E817F810E94EE061D870C8788E090E039
:100330000E94F40C8C014A855B85688579850E9452
:1003400069091F870E8781E090E0998B888BDF9188
:10035000CF911F910F9108950F931F93CF93DF9328
:10036000EC010E94400D6093EA017093EB018093D1
:10037000EC019093ED01888999890097C9F0019764
:1003800079F58E859F85DC01ED91FC910190F081DE
:10039000E02D0995882321F18C859D85DC01ED9167
:1003A000FC910190F081E02D0995198A188A18C0F6
:1003B0008E859F85DC01ED91FC910190F081E02D0F
:1003C000099581110DC08C859D85DC01ED91FC9115
:1003D0000280F381E02D099581E090E0998B888B74
:1003E0000E94400D6093E6017093E7018093E8015D
:1003F0009093E9010091EA011091EB012091EC0149
:100400003091ED01AB01BC01401B510B620B730B32
:100410004093E2015093E3016093E4017093E5019E
:100420002AE030E089EC92E0DF91CF911F910F91AB
:100430000C948B0CFC018FE091E091838083778397
:100440006683518740873387228708950F931F93D0
:10045000CF93DF93EC017B836A831D821C821C8611
:100460001B8688E090E00E94F40C8C014885598539
:100470006E817F810E94C8081E8B0D8BDF91CF910A
:100480001F910F9108950F931F93CF93DF93EC016A
:100490000E94400D6093F6017093F7018093F8017C
:1004A0009093F9018B859C85009719F00197A1F035
:1004B00023C009891A892B893C894D855E856F8502
:1004C00078898D899E890E94F508811115C081E087
:1004D00090E09C878B8710C009891A892B893C89F9
:1004E0004D855E856F8578898D899E890E94F50886
:1004F000882311F01C861B860E94400D6093F20138
:100500007093F3018093F4019093F5010091F6014B
:100510001091F7012091F8013091F901DC01CB0134
:10052000801B910BA20BB30B8093EE019093EF0114
:10053000A093F001B093F10163E171E089EC92E0E6
:100540000E94BB0B4091EE015091EF016091F001D0
:100550007091F1012AE030E089EC92E0DF91CF91D7
:100560001F910F910C948B0C8F929F92AF92BF9220
:10057000EF92FF920F931F93FC018BE291E0918326
:100580008083812C912C80EAA82E81E4B82E818A68
:10059000928AA38AB48A77836683518740872287A9
:1005A000E586F6860787108B1F910F91FF90EF90DD
:1005B000BF90AF909F908F9008950F931F93CF930C
:1005C000DF93EC018B016FE271E089EC92E00E9415
:1005D000C80B1B830A831D821C8284E090E00E946A
:1005E000F40C8C016E817F810E941E091987088797
:1005F00064E371E089EC92E0DF91CF911F910F915C
:100600000C94C80B0F931F93CF93DF93EC0160E41E
:1006100071E089EC92E00E94C80B0E94400D60934B
:10062000020270930302809304029093050288856E
:1006300099850E943F090E94400D6093FE017093CE
:10064000FF01809300029093010200910202109139
:1006500003022091040230910502DC01CB01801BD2
:10066000910BA20BB30B8093FA019093FB01A09323
:10067000FC01B093FD0165E471E089EC92E00E9419
:10068000BB0B4091FA015091FB016091FC0170910C
:10069000FD012AE030E089EC92E0DF91CF911F91DB
:1006A0000F910C948B0C0F931F93CF93DF93EC015E
:1006B0008B0186E691E09983888366E571E089EC99
:1006C00092E00E94C80B1F830E83DF91CF911F9190
:1006D0000F9108951092730281E08093710210923D
:1006E000700261E082E10E94280E61E083E10E94D5
:1006F000280EE9EBF0E080818E7F808380818D7F02
:10070000808388E48093B80085E48093BC000895DA
:10071000413208F043C0909173029111FCCF91E0F7
:1007200090937302209371022FEF20930602109290
:100730004B02240F20934A0290937202909172020E
:10074000880F892B8093720280917002813061F44E
:1007500010927002809172028093BB008091BC0065
:1007600083FDF8CF85EC01C085EE8093BC008091BD
:1007700073028130E1F380914B02841710F44091B1
:100780004B022CE432E0FB01D9018A2F821B841733
:1007900018F48D918193F9CF842F089580E0089506
:1007A0000F93413208F04AC0909173029111FCCF2F
:1007B00092E090937302009371029FEF9093060270
:1007C00010924B0240934A02FB016CE472E0DB01A1
:1007D0009A2F961B941718F491919D93F9CF10922C
:1007E000720290917202880F892B8093720280911D
:1007F0007002813061F410927002809172028093D5
:10080000BB008091BC0083FDF8CF85EC01C085EE74
:100810008093BC00222321F0809173028230E1F3A7
:10082000809106028F3F61F080910602803251F084
:1008300080910602803341F483E007C081E005C067
:1008400080E003C082E001C084E00F91089561322E
:1008500098F420917302243089F460932802FC01FB
:100860008AE292E0DC012A2F281B261718F4219136
:100870002D93F9CF80E0089581E0089582E00895F6
:1008800085ED8093BC008091BC0084FDFCCF10926C
:100890007302089585EC8093BC0010927302089552
:1008A0001F920F920FB60F9211242F933F934F93E5
:1008B0005F936F937F938F939F93AF93BF93EF93C8
:1008C000FF938091B900887F803609F49EC078F547
:1008D000883209F45DC090F4803109F456C038F4D0
:1008E000882309F4F5C0883009F44FC0F5C0883179
:1008F00009F44EC0803209F45FC0EEC0803409F4C0
:100900006AC058F4803309F457C0883309F0E4C052
:10091000809306020E944A04DFC0803509F44FC06C
:10092000883509F45DC0883409F0D6C0D3C0883951
:1009300009F4C4C0A8F4883709F467C038F48836CD
:1009400009F463C0803709F460C0C6C0883809F470
:10095000B5C0803909F45FC0803809F0BDC05BC004
:10096000803B09F483C038F4803A09F466C0883AC1
:1009700009F47CC0B1C0803C09F4A4C0883C09F4EF
:10098000A1C0883B09F487C0A7C08091720210C043
:1009900090914B0280914A02981770F5E0914B02BA
:1009A00081E08E0F80934B02F0E0E45BFD4F80818D
:1009B0008093BB0085EC83C0809306028BC0E091DE
:1009C0004B0281E08E0F80934B028091BB00F0E0E0
:1009D000E45BFD4F808390914B0280914A026BC093
:1009E000E0914B0281E08E0F80934B028091BB001F
:1009F000F0E0E45BFD4F80838091710281116AC059
:100A000081E08093700284EA5EC083E08093730289
:100A100010920702CFCF80910702803208F04EC0BB
:100A2000E091070281E08E0F809307028091BB0066
:100A3000F0E0E85FFD4F8083BDCF0E944A048091C3
:100A40000702803230F4E0910702F0E0E85FFD4FEA
:100A500010826091070270E0E0916C02F0916D02EB
:100A600088E092E009951092070236C084E08093F6
:100A700073021092290210922802E0916E02F09106
:100A80006F02099580912802811105C081E0809351
:100A9000280210922A02E091290281E08E0F8093B1
:100AA0002902F0E0E65DFD4F80818093BB009091CC
:100AB000290280912802981708F47CCF85E880935A
:100AC000BC000AC085EC8093BC001092730204C085
:100AD000109206020E944004FF91EF91BF91AF91E6
:100AE0009F918F917F916F915F914F913F912F9146
:100AF0000F900FBE0F901F9018958091A40290E068
:100B00002091A502821B910908952091A502809150
:100B1000A402281750F4E22FF0E0EA55FD4F80813F
:100B200090E02F5F2093A50208958FEF9FEF089527
:100B3000E091A5028091A402E81730F4F0E0EA55B4
:100B4000FD4F808190E008958FEF9FEF0895089505
:100B5000CF92DF92EF92FF920F931F93CF93DF9389
:100B60007C01CB018A0120918002222389F0EB01D4
:100B70006B01C40ED51ECC15DD0569F06991D70156
:100B8000ED91FC910190F081E02DC7010995F3CF23
:100B9000642F0E942704C801DF91CF911F910F910C
:100BA000FF90EF90DF90CF900895CF93DF931F9247
:100BB000CDB7DEB76983209180022223D1F0209146
:100BC0008102203240F021E030E0FC0133832283B7
:100BD00080E090E015C080918202E82FF0E0ED57B0
:100BE000FD4F998190838F5F809382028093810271
:100BF00005C061E0CE0101960E94270481E090E0EB
:100C00000F90DF91CF910895FC011382128248EE7C
:100C100053E060E070E044835583668377838EE61B
:100C200091E09183808308951092A5021092A4020E
:100C300010928202109281020C946A0381E08093E8
:100C400080026093A30210928202109281020895A2
:100C50000C941E060F93062F21E04091810263E859
:100C600072E08091A3020E94D0031092820210923F
:100C70008102109280020F9108958F929F92AF92FD
:100C8000BF92CF92DF92EF92FF920F931F93CF9379
:100C9000DF93EC01F62ED42E48015901EE2019F114
:100CA0000E941E061E2D143008F013E01150B8F0FB
:100CB000E881F98128E0129FB0011124A501940177
:100CC00004C056954795379527956A95D2F7CA017E
:100CD000B9010190F081E02DCE010995E7CF60E0E8
:100CE000CE010E942A064D2D413208F040E22C2D03
:100CF00066EA72E08F2D0E9488031092A50280930D
:100D0000A402DF91CF911F910F91FF90EF90DF90A0
:100D1000CF90BF90AF909F908F900895CF92EF9219
:100D20000F931F93C22EE12C00E010E098010E9467
:100D30003D061F910F91EF90CF90089521E00C9404
:100D40008E0661E00C942A0684E792E00C94040677
:100D50002EE731E0FC0131832083738362830895A1
:100D6000CF93DF93EC016A817B8184E792E00E945C
:100D70002806E0917402F09175020190F081E02D57
:100D800060E084E792E0099584E792E00E94A10682
:100D90006A817B8141E050E084E792E00E949E06F8
:100DA00084E792E00E947D05892BD1F384E792E0ED
:100DB0000E948505BC01882777FD8095982F0E94A9
:100DC0008E0FDF91CF91089561E0FC0182810C9438
:100DD000280E60E0FC0182810C94280EFC01862F15
:100DE00024E831E0318320836283738361E00C94D3
:100DF000EF0DAF92BF92CF92DF92EF92FF920F93DF
:100E00001F93FC0182810E94A90DBC01882777FDF8
:100E10008095982F1F921F921F922FEF2F93A12C36
:100E2000B12C6501EE24EA9413E0F12E00E010E00D
:100E300020E030E0A9010E949D0C0F900F900F90D0
:100E40000F90CB011F910F91FF90EF90DF90CF900B
:100E5000BF90AF9008952CE831E0FC0131832083EE
:100E60007383628308958F929F92AF92BF92CF92C5
:100E7000DF92EF92FF92CF93DF93EC016A017B0147
:100E80004E835F836887798760E08A810E94280E9D
:100E900083E090E00E94630D61E08A810E94280E49
:100EA00085E090E00E94630D60E08A810E94280E38
:100EB00020E432E44FE050E061E08C810E945E0E5D
:100EC0000E948C0F20E030E04AE754E40E94F30EC9
:100ED00020E030E04AE754E40E94F30E20E030E0E6
:100EE00040E05FE30E943E104B015C012AE939E9D2
:100EF00049E15FE3C701B6010E943E1020E030ECFB
:100F000045EA53E40E948B0E9B01AC01C501B4017C
:100F10000E943E10DF91CF91FF90EF90DF90CF9035
:100F2000BF90AF909F908F900895AF92BF92DF9245
:100F3000EF92FF920F931F93CF93DF931F92CDB742
:100F4000DEB75C01E62EF42ED52E22E931E0FC015D
:100F500031832083628373834483558361E08E2DC4
:100F600079830E94EF0D60E08F2D0E94EF0D00E06D
:100F700010E020EA31E4F5010683178320873187EA
:100F80004AE050E06E2D798189EC92E00E94730C6A
:100F90004AE050E06F2D7D2D89EC92E00F90DF91BB
:100FA000CF911F910F91FF90EF90DF90BF90AF9086
:100FB0000C94730CFC0124813581293031057CF4BB
:100FC000F9013396EE0FFF1FE80FF91F718360835D
:100FD0002F5F3F4FFC013583248381E0089580E03B
:100FE0000895EF92FF920F931F93CF93DF938C019D
:100FF0007C01C0E0D0E0F80184819581C817D90751
:1010000044F5F701A681B78114962D913C9115976F
:10101000F80182819381280F391F15963C932E93F6
:10102000149712968D919C9113972817390764F0A5
:1010300015961C921E921497ED91FC9111970280C7
:10104000F381E02DCD0109952196F2E0EF0EF11C20
:10105000D2CFDF91CF911F910F91FF90EF90089524
:1010600083B7817F83BF83B7816083BF83B781608C
:1010700083BF889583B78E7F83BF83B78E7F83BFFF
:101080000895EF92FF920F931F93CF93DF93EC019C
:101090007B017B836A8381E090E00E94F40C8C01E9
:1010A000BE010E9494081B8F0A8FB701C8010E94DD
:1010B0009B081D821C82DF91CF911F910F91FF90A1
:1010C000EF9008951F920F920FB60F9211242F9355
:1010D0003F934F935F936F937F938F939F93AF93C0
:1010E000BF93EF93FF9381E08093C8028091C60283
:1010F0009091C702009739F0DC01ED91FC910190CD
:10110000F081E02D0995FF91EF91BF91AF919F91F3
:101110008F917F916F915F914F913F912F910F90A0
:101120000FBE0F901F9018951092C8027093C702BF
:101130006093C6020895CF93DF93F89410928000D5
:10114000C1E8D0E0188210928500109284008827B0
:1011500077FD8095982F0E948E0F2FE632E143E8AD
:1011600051E40E943E100E94600F709389006093CA
:101170008800888188608883888185608883EFE61D
:10118000F0E08081826080837894DF91CF91089530
:10119000EF92FF920F931F93CF93DF9300D000D075
:1011A000CDB7DEB77C01FC0171836083538342833A
:1011B0008AE090E04B835C8369837A830E94F40C1D
:1011C0008C014B815C8169817A810E949507F701CE
:1011D000178306830F900F900F900F90DF91CF91A0
:1011E0001F910F91FF90EF900895CF92DF92EF92B1
:1011F000FF920F931F93CF936A017B01B901A8015E
:10120000DC0116968D919C911797DC01ED91FC9174
:101210000190F081E02D0995C1E0A70196010E949F
:10122000EF0E18160CF4C0E081E08C27CF911F91CF
:101230000F91FF90EF90DF90CF900895EF92FF9283
:101240000F931F93CF93DF9300D0CDB7DEB78C0100
:1012500084E090E069837A830E94F40C7C016981C8
:101260007A810E94A806F801F382E2820F900F9023
:10127000DF91CF911F910F91FF90EF900895CF9341
:10128000DF93EC018A819B81DC01ED91FC9101905F
:10129000F081E02D09950E945B0F79836883DF91CF
:1012A000CF910895CF93DF93EC018A819B81DC017C
:1012B000ED91FC910190F081E02D099541E02E81A6
:1012C0003F81281739070CF440E0842FDF91CF913C
:1012D0000895EF92FF920F931F93CF93DF9300D067
:1012E000CDB7DEB77C0182EA91E0F701918380837C
:1012F000758364835783468384E090E069837A83AF
:101300000E94F40C8C0169817A810E942B07F701FD
:10131000138302830F900F90DF91CF911F910F9154
:10132000FF90EF900895FC01818D228D90E0805C0C
:101330009F4F821B91098F7399270895FC01918D0E
:10134000828D981731F0828DE80FF11D858D90E028
:1013500008958FEF9FEF0895FC01918D828D98176E
:1013600061F0828DDF01A80FB11D5D968C91928D89
:101370009F5F9F73928F90E008958FEF9FEF089586
:1013800080E39BE0892B49F080E090E0892B29F0F5
:101390000E94300B81110C9400000895FC01848D93
:1013A000DF01A80FB11DA35ABF4F2C91848D90E08F
:1013B00001968F739927848FA689B7892C93A0896A
:1013C000B1898C9180648C93938D848D981306C021
:1013D0000288F389E02D80818F7D80830895CF93EB
:1013E000DF93EC01888D8823C9F0EA89FB8980812D
:1013F00085FD05C0A889B9898C9186FD0FC00FB6FF
:1014000007FCF5CF808185FFF2CFA889B9898C913F
:1014100085FFEDCFCE010E94CE09E7CFDF91CF91BE
:101420000895CF92DF92FF920F931F93CF93DF9394
:101430001F92CDB7DEB76C0181E0D60158968C9330
:1014400058975B969C915B975C968C915C979813F0
:1014500007C05096ED91FC915197808185FD2EC07B
:10146000F601038D10E00F5F1F4F0F731127F02E51
:10147000F601848DF81211C00FB607FCF9CFD60122
:101480005096ED91FC915197808185FFF1CFC60177
:1014900069830E94CE096981EBCF838DE80FF11D2E
:1014A000E35AFF4F6083D6015B960C935B9752968D
:1014B000ED91FC915397808180620CC0D6015696C5
:1014C000ED91FC91579760835096ED91FC91519767
:1014D00080818064808381E090E00F90DF91CF91E4
:1014E0001F910F91FF90DF90CF900895BF92CF9200
:1014F000DF92EF92FF92CF93DF93EC016A017B01C1
:10150000B22EE889F98982E08083411581EE58077F
:1015100061057105A1F060E079E08DE390E0A7013D
:1015200096010E94B1102150310941095109569587
:10153000479537952795211580E1380798F0E88978
:10154000F989108260E874E88EE190E0A7019601C5
:101550000E94B11021503109410951095695479512
:1015600037952795EC85FD853083EE85FF852083B3
:10157000188EEC89FD89B082EA89FB8980818061BF
:101580008083EA89FB89808188608083EA89FB897E
:10159000808180688083EA89FB8980818F7D808358
:1015A000DF91CF91FF90EF90DF90CF90BF900895A3
:1015B0001F920F920FB60F9211242F938F939F9328
:1015C000EF93FF93E091D902F091DA028081E091EC
:1015D000DF02F091E00282FD12C090818091E20270
:1015E0008F5F8F732091E302821751F0E091E20246
:1015F000F0E0E753FD4F958F8093E20201C08081B8
:10160000FF91EF919F918F912F910F900FBE0F90AF
:101610001F9018951F920F920FB60F9211242F93BF
:101620003F934F935F936F937F938F939F93AF936A
:10163000BF93EF93FF9389EC92E00E94CE09FF9154
:10164000EF91BF91AF919F918F917F916F915F913A
:101650004F913F912F910F900FBE0F901F901895B3
:1016600089EC92E00E94930921E0892B09F420E0A3
:10167000822F08951092CC021092CB0288EE93E054
:10168000A0E0B0E08093CD029093CE02A093CF0271
:10169000B093D00288EA91E09093CA028093C90285
:1016A00085EC90E09093D6028093D50284EC90E094
:1016B0009093D8028093D70280EC90E09093DA0266
:1016C0008093D90281EC90E09093DC028093DB025E
:1016D00082EC90E09093DE028093DD0286EC90E055
:1016E0009093E0028093DF021092E2021092E302F4
:1016F0001092E4021092E5020895CF92DF92EF92E9
:10170000FF920F931F93CF93DF937C016A01EB014C
:1017100000E010E00C151D0571F06991D701ED9105
:10172000FC910190F081E02DC7010995892B19F0FA
:101730000F5F1F4FEFCFC801DF91CF911F910F9126
:10174000FF90EF90DF90CF9008956115710581F0C3
:10175000DB010D900020E9F7AD0141505109461B16
:10176000570BDC01ED91FC910280F381E02D09948F
:1017700080E090E008950C94A50BDC01ED91FC91C4
:101780000190F081E02D099464EB71E00C94A50BBD
:101790000F931F93CF93DF93EC010E94A50B8C0155
:1017A000CE010E94C40B800F911FDF91CF911F913A
:1017B0000F9108958F929F92AF92BF92DF92EF9216
:1017C000FF920F931F93CF93DF93CDB7DEB7A1970F
:1017D0000FB6F894DEBF0FBECDBF7C01F42FD52E1F
:1017E000CB0119A2223008F42AE08E010F5D1F4FB1
:1017F000822E912CA12CB12C6F2F7D2DA50194014F
:101800000E94B110F22FD32ECA01015011096A3083
:1018100014F4E0E301C0E7E3E60FD801EC93232BD7
:10182000242B252B49F7B801C7010E94A50BA196CF
:101830000FB6F894DEBF0FBECDBFDF91CF911F91E1
:101840000F91FF90EF90DF90BF90AF909F908F909F
:101850000895CF92DF92EF92FF920F931F93CF9351
:10186000DF93EC016A017B012115310579F4E881F0
:10187000F9810190F081E02D642FDF91CF911F91CC
:101880000F91FF90EF90DF90CF9009942A303105AF
:10189000E9F477FF1AC06DE20E94BD0B8C0144276A
:1018A0005527BA014C195D096E097F092AE0CE015E
:1018B0000E94DA0B800F911FDF91CF911F910F9142
:1018C000FF90EF90DF90CF9008952AE0B701A60136
:1018D000CE01DF91CF911F910F91FF90EF90DF909C
:1018E000CF900C94DA0B0F931F93CF93DF93EC01FF
:1018F0009A01AB01662757FD6095762F0E94290C4F
:101900008C01CE010E94C40B800F911FDF91CF91FB
:101910001F910F9108950F931F93CF93DF93EC01C5
:101920000E94290C8C01CE010E94C40B800F911FD4
:10193000DF91CF911F910F9108954F925F926F9217
:101940007F92AF92BF92CF92DF92EF92FF920F936E
:101950001F93CF93DF93CDB7DEB729013A01621B06
:10196000730B840B950B29893A894B895C892A1959
:101970003B094C095D09298B3A8B4B8B5C8B9B0196
:10198000AC0169897A898B899C890E94A110E4182D
:10199000F50806091709A80197010E94D3102A0D1E
:1019A0003B1D4C1D5D1DCA01B901DF91CF911F91F7
:1019B0000F91FF90EF90DF90CF90BF90AF907F900E
:1019C0006F905F904F90089508950E946E0D0E9451
:1019D000E40C0E94D300C0ECD9E00E94770120976C
:1019E000E1F30E94C009F9CF0C9412111F920F92DB
:1019F0000FB60F9211242F933F938F939F93AF9322
:101A0000BF938091670390916803A0916903B0919F
:101A10006A033091660323E0230F2D3720F40196EB
:101A2000A11DB11D05C026E8230F0296A11DB11D01
:101A3000209366038093670390936803A0936903E0
:101A4000B0936A0380916B0390916C03A0916D0336
:101A5000B0916E030196A11DB11D80936B0390930D
:101A60006C03A0936D03B0936E03BF91AF919F91F0
:101A70008F913F912F910F900FBE0F901F9018954F
:101A80003FB7F89480916B0390916C03A0916D0324
:101A9000B0916E0326B5A89B05C02F3F19F00196A3
:101AA000A11DB11D3FBF6627782F892F9A2F620F86
:101AB000711D811D911D42E0660F771F881F991FC0
:101AC0004A95D1F708958230910538F0880F991F13
:101AD000880F991F05970197F1F70895789484B5B9
:101AE000826084BD84B5816084BD85B5826085BD1A
:101AF00085B5816085BDEEE6F0E080818160808300
:101B0000E1E8F0E0108280818260808380818160E2
:101B10008083E0E8F0E0808181608083E1EBF0E0A9
:101B2000808184608083E0EBF0E08081816080834D
:101B3000EAE7F0E080818460808380818260808336
:101B40008081816080838081806880831092C10061
:101B500008958E3008F08E50877020910A0190E42D
:101B6000299F90011124822B80937C0080917A0020
:101B7000806480937A0080917A0086FDFCCF80910A
:101B800078002091790090E0922B0895833081F0C5
:101B900028F4813099F08230A1F008958730A9F0BF
:101BA0008830B9F08430D1F4809180008F7D03C0FB
:101BB000809180008F7780938000089584B58F771F
:101BC00002C084B58F7D84BD08958091B0008F7769
:101BD00003C08091B0008F7D8093B0000895CF93B3
:101BE000DF9390E0FC01E458FF4F2491FC01E057A3
:101BF000FF4F8491882349F190E0880F991FFC01E1
:101C0000E854FF4FA591B49182559F4FFC01C591B7
:101C1000D4919FB7611108C0F8948C9120958223CC
:101C20008C93888182230AC0623051F4F8948C919D
:101C3000322F309583238C938881822B888304C034
:101C4000F8948C91822B8C939FBFDF91CF91089554
:101C50000F931F93CF93DF931F92CDB7DEB7282F3B
:101C600030E0F901E859FF4F8491F901E458FF4F42
:101C70001491F901E057FF4F04910023C9F0882324
:101C800021F069830E94C60D6981E02FF0E0EE0F1C
:101C9000FF1FE255FF4FA591B4919FB7F8948C9127
:101CA000611103C01095812301C0812B8C939FBFCC
:101CB0000F90DF91CF911F910F9108950F931F9374
:101CC000762F90E0FC01E458FF4F6491FC01E0574F
:101CD000FF4FE4917111762FF0E0EE0FFF1FEC55EE
:101CE000FF4F8591949189019A013F70472F0E947F
:101CF0008E00611571058105910531F06F5F7F4F91
:101D00008F4F9F4F9F7003C060E070E0CB011F9129
:101D10000F9108955058BB27AA270ED075C166D1E0
:101D200030F06BD120F031F49F3F11F41EF45BC111
:101D30000EF4E095E7FB51C1E92F77D180F3BA1794
:101D4000620773078407950718F071F49EF58FC139
:101D50000EF4E0950B2EBA2FA02D0B01B9019001C6
:101D60000C01CA01A0011124FF27591B99F0593F0A
:101D700050F4503E68F11A16F040A22F232F342F52
:101D80004427585FF3CF469537952795A795F040A0
:101D90005395C9F77EF41F16BA0B620B730B840BB5
:101DA000BAF09150A1F0FF0FBB1F661F771F881F6D
:101DB000C2F70EC0BA0F621F731F841F48F48795C5
:101DC00077956795B795F7959E3F08F0B3CF9395B4
:101DD000880F08F09927EE0F979587950895D9D029
:101DE00008F481E008950CD00FC107D140F0FED077
:101DF00030F021F45F3F19F0F0C0511139C1F3C048
:101E000014D198F39923C9F35523B1F3951B550BBE
:101E1000BB27AA2762177307840738F09F5F5F4FBD
:101E2000220F331F441FAA1FA9F333D00E2E3AF0FE
:101E3000E0E830D091505040E695001CCAF729D018
:101E4000FE2F27D0660F771F881FBB1F2617370767
:101E50004807AB07B0E809F0BB0B802DBF01FF2797
:101E600093585F4F2AF09E3F510568F0B6C000C1FD
:101E70005F3FECF3983EDCF3869577956795B795D1
:101E8000F7959F5FC9F7880F911D9695879597F9EC
:101E90000895E1E0660F771F881FBB1F6217730765
:101EA0008407BA0720F0621B730B840BBA0BEE1F7A
:101EB00088F7E095089504D06894B111D9C00895C9
:101EC000BCD088F09F5790F0B92F9927B751A0F058
:101ED000D1F0660F771F881F991F1AF0BA95C9F7BE
:101EE00012C0B13081F0C3D0B1E00895C0C0672FF7
:101EF000782F8827B85F39F0B93FCCF3869577956E
:101F00006795B395D9F73EF4909580957095619556
:101F10007F4F8F4F9F4F0895E89409C097FB3EF481
:101F200090958095709561957F4F8F4F9F4F992326
:101F3000A9F0F92F96E9BB279395F69587957795A4
:101F40006795B795F111F8CFFAF4BB0F11F460FF64
:101F50001BC06F5F7F4F8F4F9F4F16C0882311F0BC
:101F600096E911C0772321F09EE8872F762F05C0D0
:101F7000662371F096E8862F70E060E02AF09A956B
:101F8000660F771F881FDAF7880F9695879597F960
:101F90000895990F0008550FAA0BE0E8FEEF1616FA
:101FA0001706E807F907C0F012161306E407F5074D
:101FB00098F0621B730B840B950B39F40A2661F0C1
:101FC000232B242B252B21F408950A2609F4A14064
:101FD000A6958FEF811D811D089597F99F6780E871
:101FE00070E060E008959FEF80EC089500240A946B
:101FF0001616170618060906089500240A941216E4
:102000001306140605060895092E0394000C11F416
:10201000882352F0BB0F40F4BF2B11F460FF04C0C3
:102020006F5F7F4F8F4F9F4F089557FD9058440F1C
:10203000551F59F05F3F71F04795880F97FB991F27
:1020400061F09F3F79F087950895121613061406E4
:10205000551FF2CF4695F1DF08C016161706180671
:10206000991FF1CF86957105610508940895E8944C
:10207000BB2766277727CB0197F908950BD0C4CFEC
:10208000B5DF28F0BADF18F0952309F0A6CFABCF63
:102090001124EECFCADFA0F3959FD1F3950F50E046
:1020A000551F629FF001729FBB27F00DB11D639F0A
:1020B000AA27F00DB11DAA1F649F6627B00DA11DB0
:1020C000661F829F2227B00DA11D621F739FB00D56
:1020D000A11D621F839FA00D611D221F749F3327C6
:1020E000A00D611D231F849F600D211D822F762F5F
:1020F0006A2F11249F5750408AF0E1F088234AF05C
:10210000EE0FFF1FBB1F661F771F881F91505040A7
:10211000A9F79E3F510570F060CFAACF5F3FECF367
:10212000983EDCF3869577956795B795F795E79593
:102130009F5FC1F7FE2B880F911D9695879597F9A4
:102140000895DB018F939F930E94F210BF91AF918E
:10215000A29F800D911DA39F900DB29F900D112401
:102160000895A1E21A2EAA1BBB1BFD010DC0AA1FD8
:10217000BB1FEE1FFF1FA217B307E407F50720F0F0
:10218000A21BB30BE40BF50B661F771F881F991F6B
:102190001A9469F760957095809590959B01AC01B4
:1021A000BD01CF010895052E97FB1EF400940E94F7
:1021B000EA1057FD07D00E94B11007FC03D04EF47F
:1021C0000C94EA1050954095309521953F4F4F4F14
:1021D0005F4F089590958095709561957F4F8F4FD3
:1021E0009F4F08950E940311A59F900DB49F900DDD
:1021F000A49F800D911D11240895EE0FFF1F0590DF
:10220000F491E02D0994A29FB001B39FC001A39F58
:10221000700D811D1124911DB29F700D811D11241F
:10222000911D0895CF93DF938230910510F482E0E1
:1022300090E0E0917103F091720320E030E0A0E0C3
:10224000B0E0309739F14081518148175907B8F013
:102250004817590771F482819381109729F01396DA
:102260009C938E9312972CC090937203809371036A
:1022700027C02115310531F04217530718F0A90185
:10228000DB0101C0EF019A01BD01DF010280F38192
:10229000E02DD7CF21153105F9F0281B390B24305B
:1022A000310580F48A819B816115710521F0FB0164
:1022B0009383828304C09093720380937103FE0121
:1022C000329644C0FE01E20FF31F81939193225096
:1022D0003109398328833AC020916F03309170030C
:1022E000232B41F4209102013091030130937003BC
:1022F00020936F03209100013091010121153105D8
:1023000041F42DB73EB74091040150910501241BC3
:10231000350BE0916F03F0917003E217F307A0F41F
:102320002E1B3F0B2817390778F0AC014E5F5F4F2B
:102330002417350748F04E0F5F1F509370034093EA
:102340006F038193919302C0E0E0F0E0CF01DF9151
:10235000CF910895CF93DF93009709F487C0FC01D4
:10236000329713821282C0917103D0917203209729
:1023700081F420813181280F391F80916F03909162
:1023800070038217930779F5F0937003E0936F035E
:102390006DC0DE0120E030E0AE17BF0750F41296AA
:1023A0004D915C9113979D014115510509F1DA0199
:1023B000F3CFB383A28340815181840F951F8A1785
:1023C0009B0771F48D919C911197840F951F029634
:1023D0009183808312968D919C911397938382832E
:1023E0002115310529F4F0937203E09371033EC087
:1023F000D9011396FC93EE9312974D915D91A40F22
:10240000B51FEA17FB0779F480819181840F951F2E
:102410000296D90111969C938E9382819381139693
:102420009C938E931297E0E0F0E08A819B81009765
:1024300019F0FE01EC01F9CFCE0102962881398115
:10244000820F931F20916F03309170032817390773
:1024500069F4309729F4109272031092710302C04C
:1024600013821282D0937003C0936F03DF91CF91D8
:062470000895F894FFCF6F
:1024760000007303800001000000010000000082DC
:1024860001AC0164697374616E6365207461736B7A
:102496002074696D65200000000000260243026971
:1024A6006E6974007465726D6D6F6D6574726F0020
:1024B6007469636B0074656D70207461736B20744E
:1024C600696D653A2000636F7374727574746F7208
:1024D600650000000000DD02020300000000D505D3
:1024E600A8057D0585059805A70500000000B0062E
:1024F60000000000E406E90600000000F9060000FE
:102506000000330700000000F107DA07300800007A
:102516000000520900000000110A7D0B9309AC0966
:102526009E09EF090D0A006E616E00696E66006F06
:062536007666002E000095
:00000001FF
