:100000000C9464000C948C000C948C000C948C0068
:100010000C948C000C948C000C948C000C948C0030
:100020000C948C000C948C000C948C000C940A089A
:100030000C948C000C948C000C948C000C948C0010
:100040000C94BB0A0C948C000C9495090C94C70971
:100050000C948C000C948C000C948C000C948C00F0
:100060000C9436040C948C0000000008000201007F
:100070000003040700000000000000000102040863
:100080001020408001020408102001020408102002
:10009000040404040404040402020202020203032E
:1000A00003030303000000002300260029000000D2
:1000B0000000250028002B0000000000240027007D
:1000C0002A007C018A06F70911241FBECFEFD8E071
:1000D000DEBFCDBF11E0A0E0B1E0EAEBFFE102C07E
:1000E00005900D92AC36B107D9F722E0ACE6B1E04D
:1000F00001C01D92A23FB207E1F710E0C8ECD0E0CA
:1001000004C02297FE010E94A10EC23CD107C9F78C
:100110000E94AA0A0C94DB0F0C940000CF92DF928D
:10012000EF92FF920F931F93E82FF92F05C0015014
:1001300011092109310961F1908196239417B9F3CE
:1001400005C0015011092109310911F1908196234F
:100150009413F7CFC12CD12CE12CF12C0AC08FEFD6
:10016000C81AD80AE80AF80A0C151D052E053F051D
:1001700079F080818623841791F36C2D7D2D8E2D4F
:100180009F2D1F910F91FF90EF90DF90CF900895DA
:1001900060E070E080E090E01F910F91FF90EF90A1
:1001A000DF90CF900895EF92FF920F931F93CF931C
:1001B000DF9326E040E855E260E070E088E492E0FA
:1001C0000E94330985EF91E00E94FA0562E370E036
:1001D0008CE691E00E94FD0787E190E00E94B90A59
:1001E000EC01E12CF12C08EC12E426E64AE050E0A8
:1001F0006AE070E0CE010E941303E881F98101906A
:10020000F081E02D62E370E0CE010995BE018CE63D
:1002100091E00E94A50787E190E00E94B90AEC01F5
:1002200022E74CE050E06CE070E00E941303E881AC
:10023000F9810190F081E02D62E370E0CE01099533
:10024000BE018CE691E00E94A50787E190E00E9444
:10025000B90AEC012CE648E050E068E070E00E944A
:100260001303E881F9810190F081E02D62E370E0F1
:10027000CE010995BE018CE691E00E94A50782E1BE
:1002800090E00E94B90AEC0124E630E04EE050E034
:100290006DE070E00E94B602E881F9810190F08182
:1002A000E02D64EF71E0CE010995BE018CE691E08E
:1002B0000E94A5078AE090E00E94B90A8C0168E4D8
:1002C00070E00E944803D801ED91FC910190F0810B
:1002D000E02D68EE73E0C8010995BE018CE691E05F
:1002E000DF91CF911F910F91FF90EF900C94A50794
:1002F0008CE691E00C94BC0787E591E090936D014A
:1003000080936C0186E891E00C941908EF92FF92BB
:100310000F931F93CF93DF9300D000D0CDB7DEB7FC
:100320007C01FC0171836083538342838AE090E007
:100330004B835C8369837A830E94B90A8C014B8169
:100340005C8169817A810E947B07F70117830683AC
:100350000F900F900F900F90DF91CF911F910F9101
:10036000FF90EF900895CF92DF92EF92FF920F935C
:100370001F93CF936A017B01B901A801DC01169696
:100380008D919C911797DC01ED91FC910190F0818A
:10039000E02D0995C1E0A70196010E94910C181665
:1003A0000CF4C0E081E08C27CF911F910F91FF905A
:1003B000EF90DF90CF900895EF92FF920F931F93ED
:1003C000CF93DF9300D0CDB7DEB78C0184E090E00F
:1003D00069837A830E94B90A7C0169817A810E94CB
:1003E0008E06F801F382E2820F900F90DF91CF9199
:1003F0001F910F91FF90EF900895CF93DF93EC0141
:100400008A819B81DC01ED91FC910190F081E02DCE
:1004100009950E94FD0C79836883DF91CF9108953F
:10042000CF93DF93EC018A819B81DC01ED91FC91FC
:100430000190F081E02D099541E02E813F818217E6
:1004400093070CF440E0842FDF91CF910895EF9251
:10045000FF920F931F93CF93DF9300D0CDB7DEB7FA
:100460007C018FE091E0F701918380837583648341
:100470005783468384E090E069837A830E94B90AB7
:100480008C0169817A810E941107F701138302832D
:100490000F900F90DF91CF911F910F91FF90EF90F0
:1004A00008950F931F93CF93DF93EC017B836A83AF
:1004B0001D821C8284E090E00E94B90A8C016E814A
:1004C0007F810E94D4061D870C8788E090E00E94FF
:1004D000B90A8C014A855B85688579850E94270267
:1004E0001F870E8781E090E0998B888BDF91CF91F9
:1004F0001F910F910895CF93DF93EC01888999891B
:100500000097C9F0019779F58E859F85DC01ED9103
:10051000FC910190F081E02D0995882321F18C85D3
:100520009D85DC01ED91FC910190F081E02D099514
:10053000198A188A18C08E859F85DC01ED91FC917F
:100540000190F081E02D099581110DC08C859D856C
:10055000DC01ED91FC910280F381E02D099581E0B1
:1005600090E0998B888BDF91CF910895FC0185E114
:1005700091E09183808377836683518740873387B7
:10058000228708950F931F93CF93DF93EC017B8312
:100590006A831D821C821C861B8688E090E00E9474
:1005A000B90A8C01488559856E817F810E94860138
:1005B0001E8B0D8BDF91CF911F910F9108950F939B
:1005C0001F93CF93DF93EC018B859C85009719F0E7
:1005D0000197A1F023C009891A892B893C894D858F
:1005E0005E856F8578898D899E890E94B30181110E
:1005F00015C081E090E09C878B8710C009891A891B
:100600002B893C894D855E856F8578898D899E898A
:100610000E94B301882311F01C861B86DF91CF91C5
:100620001F910F910895EF92FF920F931F93FC017A
:100630008DE191E091838083778366835187408742
:100640002287E586F6860787108B1F910F91FF9012
:10065000EF9008950F931F93CF93DF93EC017B836B
:100660006A831D821C8284E090E00E94B90A8C019A
:100670006E817F810E94DC0119870887DF91CF910D
:100680001F910F910895FC01808591850C94FD01C7
:1006900025E231E0FC01318320837783668308956E
:1006A0001092F40181E08093F2011092F10161E077
:1006B00082E10E94CA0B61E083E10E94CA0BE9EB70
:1006C000F0E080818E7F808380818D7F808388E4CD
:1006D0008093B80085E48093BC000895413208F00F
:1006E00043C09091F4019111FCCF91E09093F401FB
:1006F0002093F2012FEF209387011092CC01240F59
:100700002093CB019093F3019091F301880F892BF3
:100710008093F3018091F101813061F41092F10135
:100720008091F3018093BB008091BC0083FDF8CFE2
:1007300085EC01C085EE8093BC008091F40181308E
:10074000E1F38091CC01841710F44091CC012DECA1
:1007500031E0FB01D9018A2F821B841718F48D9197
:100760008193F9CF842F089580E008950F9341324B
:1007700008F04AC09091F4019111FCCF92E090935F
:10078000F4010093F2019FEF909387011092CC0146
:100790004093CB01FB016DEC71E0DB019A2F961BBE
:1007A000941718F491919D93F9CF1092F3019091C1
:1007B000F301880F892B8093F3018091F10181303F
:1007C00061F41092F1018091F3018093BB0080915C
:1007D000BC0083FDF8CF85EC01C085EE8093BC00A2
:1007E000222321F08091F4018230E1F3809187018E
:1007F0008F3F61F080918701803251F080918701B5
:10080000803341F483E007C081E005C080E003C08D
:1008100082E001C084E00F910895613298F4209144
:10082000F401243089F46093A901FC018BEA91E082
:10083000DC012A2F281B261718F421912D93F9CFBC
:1008400080E0089581E0089582E0089585ED809329
:10085000BC008091BC0084FDFCCF1092F40108958F
:1008600085EC8093BC001092F40108951F920F92C2
:100870000FB60F9211242F933F934F935F936F9373
:100880007F938F939F93AF93BF93EF93FF93809149
:10089000B900887F803609F49EC078F5883209F463
:1008A0005DC090F4803109F456C038F4882309F40F
:1008B000F5C0883009F44FC0F5C0883109F44EC046
:1008C000803209F45FC0EEC0803409F46AC058F485
:1008D000803309F457C0883309F0E4C0809387015E
:1008E0000E943004DFC0803509F44FC0883509F418
:1008F0005DC0883409F0D6C0D3C0883909F4C4C0BB
:10090000A8F4883709F467C038F4883609F463C05E
:10091000803709F460C0C6C0883809F4B5C0803992
:1009200009F45FC0803809F0BDC05BC0803B09F4AA
:1009300083C038F4803A09F466C0883A09F47CC070
:10094000B1C0803C09F4A4C0883C09F4A1C0883B34
:1009500009F487C0A7C08091F30110C09091CC0129
:100960008091CB01981770F5E091CC0181E08E0F5A
:100970008093CC01F0E0E353FE4F80818093BB0075
:1009800085EC83C0809387018BC0E091CC0181E02E
:100990008E0F8093CC018091BB00F0E0E353FE4FBB
:1009A00080839091CC018091CB016BC0E091CC0110
:1009B00081E08E0F8093CC018091BB00F0E0E35387
:1009C000FE4F80838091F20181116AC081E08093A3
:1009D000F10184EA5EC083E08093F4011092880103
:1009E000CFCF80918801803208F04EC0E09188011D
:1009F00081E08E0F809388018091BB00F0E0E75783
:100A0000FE4F8083BDCF0E943004809188018032E8
:100A100030F4E0918801F0E0E757FE4F10826091DA
:100A2000880170E0E091ED01F091EE0189E891E03C
:100A300009951092880136C084E08093F4011092E9
:100A4000AA011092A901E091EF01F091F00109953E
:100A50008091A901811105C081E08093A9011092C4
:100A6000AB01E091AA0181E08E0F8093AA01F0E032
:100A7000E555FE4F80818093BB009091AA01809143
:100A8000A901981708F47CCF85E88093BC000AC0C0
:100A900085EC8093BC001092F40104C01092870191
:100AA0000E942604FF91EF91BF91AF919F918F918A
:100AB0007F916F915F914F913F912F910F900FBE5A
:100AC0000F901F9018958091250290E020912602AA
:100AD000821B9109089520912602809125022817F2
:100AE00050F4E22FF0E0E95DFD4F808190E02F5F50
:100AF0002093260208958FEF9FEF0895E09126023C
:100B000080912502E81730F4F0E0E95DFD4F808127
:100B100090E008958FEF9FEF08950895CF92DF92B0
:100B2000EF92FF920F931F93CF93DF937C01CB0142
:100B30008A0120910102222389F0EB016B01C40E8E
:100B4000D51ECC15DD0569F06991D701ED91FC91B9
:100B50000190F081E02DC7010995F3CF642F0E9429
:100B60000D04C801DF91CF911F910F91FF90EF907D
:100B7000DF90CF900895CF93DF931F92CDB7DEB76C
:100B80006983209101022223D1F0209102022032B8
:100B900040F021E030E0FC013383228380E090E0EC
:100BA00015C080910302E82FF0E0EC5FFD4F9981C2
:100BB00090838F5F809303028093020205C061E0FF
:100BC000CE0101960E940D0481E090E00F90DF912C
:100BD000CF910895FC011382128248EE53E060E049
:100BE00070E044835583668377838DE291E091833F
:100BF000808308951092260210922502109203021B
:100C0000109202020C94500381E0809301026093E1
:100C10002402109203021092020208950C9404061A
:100C20000F93062F21E04091020264E072E0809170
:100C300024020E94B6031092030210920202109244
:100C400001020F9108958F929F92AF92BF92CF921F
:100C5000DF92EF92FF920F931F93CF93DF93EC01FC
:100C6000F62ED42E48015901EE2019F10E940406F7
:100C70001E2D143008F013E01150B8F0E881F9810E
:100C800028E0129FB0011124A501940104C05695DB
:100C90004795379527956A95D2F7CA01B901019012
:100CA000F081E02DCE010995E7CF60E0CE010E94F2
:100CB00010064D2D413208F040E22C2D67E272E023
:100CC0008F2D0E946E031092260280932502DF91E1
:100CD000CF911F910F91FF90EF90DF90CF90BF9039
:100CE000AF909F908F900895CF92EF920F931F93A4
:100CF000C22EE12C00E010E098010E9423061F9113
:100D00000F91EF90CF90089521E00C94740661E06C
:100D10000C94100685EF91E00C94EA052DE331E088
:100D2000FC0131832083738362830895CF93DF9323
:100D3000EC016A817B8185EF91E00E940E06E091D3
:100D4000F501F091F6010190F081E02D60E085EF72
:100D500091E0099585EF91E00E9487066A817B8189
:100D600041E050E085EF91E00E94840685EF91E03C
:100D70000E946305892BD1F385EF91E00E946B05FA
:100D8000BC01882777FD8095982F0E94300DDF9158
:100D9000CF91089561E0FC0182810C94CA0B60E060
:100DA000FC0182810C94CA0BFC01862F23E431E004
:100DB000318320836283738361E00C94910BAF9243
:100DC000BF92CF92DF92EF92FF920F931F93FC019D
:100DD00082810E944B0BBC01882777FD8095982F5C
:100DE0001F921F921F922FEF2F93A12CB12C650100
:100DF000EE24EA9413E0F12E00E010E020E030E071
:100E0000A9010E94620A0F900F900F900F90CB01E2
:100E10001F910F91FF90EF90DF90CF90BF90AF9018
:100E200008952BE431E0FC013183208373836283D6
:100E300008958F929F92AF92BF92CF92DF92EF92DE
:100E4000FF92CF93DF93EC016A017B014E835F83B6
:100E50006887798760E08A810E94CA0B83E090E00E
:100E60000E94050B61E08A810E94CA0B85E090E038
:100E70000E94050B60E08A810E94CA0B20E432E4E4
:100E80004FE050E061E08C810E94000C0E942E0D2A
:100E900020E030E04AE754E40E94950C20E030E086
:100EA0004AE754E40E94950C20E030E040E05FE324
:100EB0000E94E00D4B015C012AE939E949E15FE359
:100EC000C701B6010E94E00D20E030EC45EA53E492
:100ED0000E942D0C9B01AC01C501B4010E94E00DE4
:100EE000DF91CF91FF90EF90DF90CF90BF90AF90C8
:100EF0009F908F9008950F931F93CF93DF931F922E
:100F0000CDB7DEB78C01862F21E531E0F8013183C2
:100F10002083628373834483558361E049830E9405
:100F2000910B60E04981842F0E94910B40E050E0DA
:100F300060EA71E4F80146835783608771870F90F8
:100F4000DF91CF911F910F910895FC01248135818C
:100F5000293031057CF4F9013396EE0FFF1FE80FBD
:100F6000F91F718360832F5F3F4FFC01358324831A
:100F700081E0089580E00895EF92FF920F931F9310
:100F8000CF93DF93EC014A960E9449087E0100E06E
:100F900010E08C819D810817190744F5F701A6819F
:100FA000B78114968D919C9115972A813B81820F70
:100FB000931F15969C938E93149712962D913C91A6
:100FC00013978217930764F015961C921E9214973C
:100FD000ED91FC9111970280F381E02DCD010995EF
:100FE0000F5F1F4FF2E0EF0EF11CD3CFDF91CF91D7
:100FF0001F910F91FF90EF900895CF93DF93EC0135
:101000007B836A834A960E941C081D821C82DF91A2
:10101000CF9108951F920F920FB60F9211248F93C4
:1010200081E0809347028F910F900FBE0F901F9029
:101030001895109247020895CF93DF93F894109279
:101040008000C1E8D0E018821092850010928400E0
:10105000882777FD8095982F0E94300D2FE632E18A
:1010600043E851E40E94E00D0E94020D7093890054
:101070006093880088818860888388818560888300
:10108000EFE6F0E08081826080837894DF91CF91F9
:101090000895809147028823E1F310924702089552
:1010A000FC01818D228D90E0805C9F4F821B910915
:1010B0008F7399270895FC01918D828D981731F0D7
:1010C000828DE80FF11D858D90E008958FEF9FEFE1
:1010D0000895FC01918D828D981761F0828DDF015A
:1010E000A80FB11D5D968C91928D9F5F9F73928F1B
:1010F00090E008958FEF9FEF08958DEE99E0892B92
:1011000049F080E090E0892B29F00E94ED098111DF
:101110000C9400000895FC01848DDF01A80FB11D1F
:10112000A35ABF4F2C91848D90E001968F7399271D
:10113000848FA689B7892C93A089B1898C9180640A
:101140008C93938D848D981306C00288F389E02DCB
:1011500080818F7D80830895CF93DF93EC01888D0C
:101160008823C9F0EA89FB89808185FD05C0A889AB
:10117000B9898C9186FD0FC00FB607FCF5CF808131
:1011800085FFF2CFA889B9898C9185FFEDCFCE017B
:101190000E948B08E7CFDF91CF910895CF92DF9225
:1011A000FF920F931F93CF93DF931F92CDB7DEB7BC
:1011B0006C0181E0D60158968C9358975B969C9170
:1011C0005B975C968C915C97981307C05096ED9155
:1011D000FC915197808185FD2EC0F601038D10E0B2
:1011E0000F5F1F4F0F731127F02EF601848DF81239
:1011F00011C00FB607FCF9CFD6015096ED91FC91C6
:101200005197808185FFF1CFC60169830E948B08C9
:101210006981EBCF838DE80FF11DE35AFF4F6083A7
:10122000D6015B960C935B975296ED91FC91539788
:10123000808180620CC0D6015696ED91FC91579743
:1012400060835096ED91FC915197808180648083FA
:1012500081E090E00F90DF91CF911F910F91FF906F
:10126000DF90CF900895BF92CF92DF92EF92FF92DE
:10127000CF93DF93EC016A017B01B22EE889F989F3
:1012800082E08083411581EE580761057105A1F068
:1012900060E079E08DE390E0A70196010E94530E93
:1012A00021503109410951095695479537952795A0
:1012B000211580E1380798F0E889F989108260E803
:1012C00074E88EE190E0A70196010E94530E215030
:1012D0003109410951095695479537952795EC8570
:1012E000FD853083EE85FF852083188EEC89FD898E
:1012F000B082EA89FB89808180618083EA89FB89E9
:10130000808188608083EA89FB898081806880830E
:10131000EA89FB8980818F7D8083DF91CF91FF9067
:10132000EF90DF90CF90BF9008951F920F920FB66D
:101330000F9211242F938F939F93EF93FF93E0913C
:101340005802F09159028081E0915E02F0915F02B3
:1013500082FD12C09081809161028F5F8F73209116
:101360006202821751F0E0916102F0E0E85BFD4F0C
:10137000958F8093610201C08081FF91EF919F91D1
:101380008F912F910F900FBE0F901F9018951F9265
:101390000F920FB60F9211242F933F934F935F93A9
:1013A0006F937F938F939F93AF93BF93EF93FF932D
:1013B00088E492E00E948B08FF91EF91BF91AF917A
:1013C0009F918F917F916F915F914F913F912F915D
:1013D0000F900FBE0F901F90189588E492E00E9426
:1013E000500821E0892B09F420E0822F0895109203
:1013F0004B0210924A0288EE93E0A0E0B0E08093A6
:101400004C0290934D02A0934E02B0934F028FE591
:1014100091E0909349028093480285EC90E090938C
:1014200055028093540284EC90E09093570280938D
:10143000560280EC90E0909359028093580281EC20
:1014400090E090935B0280935A0282EC90E090933C
:101450005D0280935C0286EC90E090935F02809343
:101460005E02109261021092620210926302109268
:1014700064020895CF92DF92EF92FF920F931F9331
:10148000CF93DF937C016A01EB0100E010E00C15C3
:101490001D0571F06991D701ED91FC910190F081EA
:1014A000E02DC7010995892B19F00F5F1F4FEFCF72
:1014B000C801DF91CF911F910F91FF90EF90DF90C6
:1014C000CF9008954F925F926F927F92AF92BF92AA
:1014D000CF92DF92EF92FF920F931F93CF93DF9300
:1014E000CDB7DEB729013A01621B730B840B950B54
:1014F00029893A894B895C892A193B094C095D097C
:10150000298B3A8B4B8B5C8B9B01AC0169897A8967
:101510008B899C890E94430EE418F5080609170977
:10152000A80197010E94750E2A0D3B1D4C1D5D1DE3
:10153000CA01B901DF91CF911F910F91FF90EF90F8
:10154000DF90CF90BF90AF907F906F905F904F9063
:10155000089508950E94100B0E94A90A0E94D300CA
:10156000CDE7D8E00E9478012097E1F30E947D0842
:10157000F9CF0C94B40E1F920F920FB60F92112454
:101580002F933F938F939F93AF93BF938091E602E6
:101590009091E702A091E802B091E9023091E50252
:1015A00023E0230F2D3720F40196A11DB11D05C0A6
:1015B00026E8230F0296A11DB11D2093E50280931A
:1015C000E6029093E702A093E802B093E9028091CB
:1015D000EA029091EB02A091EC02B091ED0201962B
:1015E000A11DB11D8093EA029093EB02A093EC023F
:1015F000B093ED02BF91AF919F918F913F912F9149
:101600000F900FBE0F901F9018958230910538F003
:10161000880F991F880F991F05970197F1F7089573
:10162000789484B5826084BD84B5816084BD85B5BD
:10163000826085BD85B5816085BDEEE6F0E0808184
:1016400081608083E1E8F0E01082808182608083A5
:10165000808181608083E0E8F0E080818160808328
:10166000E1EBF0E0808184608083E0EBF0E080815A
:1016700081608083EAE7F0E08081846080838081FC
:1016800082608083808181608083808180688083A4
:101690001092C10008958E3008F08E50877020910E
:1016A0000A0190E4299F90011124822B80937C00F1
:1016B00080917A00806480937A0080917A0086FD20
:1016C000FCCF809178002091790090E0922B0895D2
:1016D000833081F028F4813099F08230A1F00895B0
:1016E0008730A9F08830B9F08430D1F4809180003F
:1016F0008F7D03C0809180008F7780938000089554
:1017000084B58F7702C084B58F7D84BD08958091A4
:10171000B0008F7703C08091B0008F7D8093B000C0
:101720000895CF93DF9390E0FC01E458FF4F24919C
:10173000FC01E057FF4F8491882349F190E0880F26
:10174000991FFC01E854FF4FA591B49182559F4F1A
:10175000FC01C591D4919FB7611108C0F8948C9198
:10176000209582238C93888182230AC0623051F4B1
:10177000F8948C91322F309583238C938881822B1F
:10178000888304C0F8948C91822B8C939FBFDF9147
:10179000CF9108950F931F93CF93DF931F92CDB7EF
:1017A000DEB7282F30E0F901E859FF4F8491F901A5
:1017B000E458FF4F1491F901E057FF4F04910023C3
:1017C000C9F0882321F069830E94680B6981E02FAA
:1017D000F0E0EE0FFF1FE255FF4FA591B4919FB7C8
:1017E000F8948C91611103C01095812301C0812B65
:1017F0008C939FBF0F90DF91CF911F910F91089510
:101800000F931F93762F90E0FC01E458FF4F6491F3
:10181000FC01E057FF4FE4917111762FF0E0EE0FDD
:10182000FF1FEC55FF4F8591949189019A013F70FC
:10183000472F0E948E00611571058105910531F0D9
:101840006F5F7F4F8F4F9F4F9F7003C060E070E0CE
:10185000CB011F910F9108955058BB27AA270ED096
:1018600075C166D130F06BD120F031F49F3F11F497
:101870001EF45BC10EF4E095E7FB51C1E92F77D16F
:1018800080F3BA17620773078407950718F071F49D
:101890009EF58FC10EF4E0950B2EBA2FA02D0B01F3
:1018A000B90190010C01CA01A0011124FF27591BA5
:1018B00099F0593F50F4503E68F11A16F040A22FAB
:1018C000232F342F4427585FF3CF4695379527951C
:1018D000A795F0405395C9F77EF41F16BA0B620B1B
:1018E000730B840BBAF09150A1F0FF0FBB1F661F62
:1018F000771F881FC2F70EC0BA0F621F731F841FA5
:1019000048F4879577956795B795F7959E3F08F0CA
:10191000B3CF9395880F08F09927EE0F9795879589
:101920000895D9D008F481E008950CD00FC107D1F3
:1019300040F0FED030F021F45F3F19F0F0C05111BB
:1019400039C1F3C014D198F39923C9F35523B1F3E6
:10195000951B550BBB27AA2762177307840738F01E
:101960009F5F5F4F220F331F441FAA1FA9F333D07D
:101970000E2E3AF0E0E830D091505040E695001C31
:10198000CAF729D0FE2F27D0660F771F881FBB1FED
:10199000261737074807AB07B0E809F0BB0B802DC7
:1019A000BF01FF2793585F4F2AF09E3F510568F013
:1019B000B6C000C15F3FECF3983EDCF386957795A7
:1019C0006795B795F7959F5FC9F7880F911D969515
:1019D000879597F90895E1E0660F771F881FBB1F71
:1019E000621773078407BA0720F0621B730B840B1E
:1019F000BA0BEE1F88F7E095089504D06894B111F2
:101A0000D9C00895BCD088F09F5790F0B92F99277E
:101A1000B751A0F0D1F0660F771F881F991F1AF0F9
:101A2000BA95C9F712C0B13081F0C3D0B1E00895C2
:101A3000C0C0672F782F8827B85F39F0B93FCCF343
:101A4000869577956795B395D9F73EF490958095EF
:101A5000709561957F4F8F4F9F4F0895E89409C00F
:101A600097FB3EF490958095709561957F4F8F4FD1
:101A70009F4F9923A9F0F92F96E9BB279395F695E7
:101A8000879577956795B795F111F8CFFAF4BB0F65
:101A900011F460FF1BC06F5F7F4F8F4F9F4F16C0C9
:101AA000882311F096E911C0772321F09EE8872F53
:101AB000762F05C0662371F096E8862F70E060E00F
:101AC0002AF09A95660F771F881FDAF7880F969588
:101AD000879597F90895990F0008550FAA0BE0E82C
:101AE000FEEF16161706E807F907C0F012161306E0
:101AF000E407F50798F0621B730B840B950B39F420
:101B00000A2661F0232B242B252B21F408950A2685
:101B100009F4A140A6958FEF811D811D089597F9C5
:101B20009F6780E870E060E008959FEF80EC089583
:101B300000240A94161617061806090608950024AC
:101B40000A9412161306140605060895092E039426
:101B5000000C11F4882352F0BB0F40F4BF2B11F49A
:101B600060FF04C06F5F7F4F8F4F9F4F089557FDF9
:101B70009058440F551F59F05F3F71F04795880FFB
:101B800097FB991F61F09F3F79F087950895121692
:101B900013061406551FF2CF4695F1DF08C016163E
:101BA00017061806991FF1CF8695710561050894EF
:101BB0000895E894BB2766277727CB0197F9089506
:101BC0000BD0C4CFB5DF28F0BADF18F0952309F0A9
:101BD000A6CFABCF1124EECFCADFA0F3959FD1F3F0
:101BE000950F50E0551F629FF001729FBB27F00DCB
:101BF000B11D639FAA27F00DB11DAA1F649F662720
:101C0000B00DA11D661F829F2227B00DA11D621F6E
:101C1000739FB00DA11D621F839FA00D611D221F28
:101C2000749F3327A00D611D231F849F600D211D0C
:101C3000822F762F6A2F11249F5750408AF0E1F0AF
:101C400088234AF0EE0FFF1FBB1F661F771F881FF8
:101C500091505040A9F79E3F510570F060CFAACF38
:101C60005F3FECF3983EDCF3869577956795B795E3
:101C7000F795E7959F5FC1F7FE2B880F911D96950D
:101C8000879597F90895DB018F939F930E94940E97
:101C9000BF91AF91A29F800D911DA39F900DB29F08
:101CA000900D11240895A1E21A2EAA1BBB1BFD0161
:101CB0000DC0AA1FBB1FEE1FFF1FA217B307E4072B
:101CC000F50720F0A21BB30BE40BF50B661F771F83
:101CD000881F991F1A9469F7609570958095909563
:101CE0009B01AC01BD01CF010895052E97FB1EF4A9
:101CF00000940E948C0E57FD07D00E94530E07FCE3
:101D000003D04EF40C948C0E50954095309521954F
:101D10003F4F4F4F5F4F0895909580957095619517
:101D20007F4F8F4F9F4F08950E94A50EA59F900D46
:101D3000B49F900DA49F800D911D11240895EE0F66
:101D4000FF1F0590F491E02D0994A29FB001B39F6D
:101D5000C001A39F700D811D1124911DB29F700DB4
:101D6000811D1124911D0895CF93DF938230910539
:101D700010F482E090E0E091F002F091F10220E0B6
:101D800030E0A0E0B0E0309739F140815181481750
:101D90005907B8F04817590771F482819381109759
:101DA00029F013969C938E9312972CC09093F10276
:101DB0008093F00227C02115310531F042175307F7
:101DC00018F0A901DB0101C0EF019A01BD01DF019B
:101DD0000280F381E02DD7CF21153105F9F0281BC2
:101DE000390B2430310580F48A819B81611571059E
:101DF00021F0FB019383828304C09093F1028093CE
:101E0000F002FE01329644C0FE01E20FF31F8193FF
:101E1000919322503109398328833AC02091EE02F0
:101E20003091EF02232B41F4209102013091030104
:101E30003093EF022093EE022091000130910101D6
:101E40002115310541F42DB73EB740910401509161
:101E50000501241B350BE091EE02F091EF02E21731
:101E6000F307A0F42E1B3F0B2817390778F0AC01BD
:101E70004E5F5F4F2417350748F04E0F5F1F50939A
:101E8000EF024093EE028193919302C0E0E0F0E014
:101E9000CF01DF91CF910895CF93DF93009709F49D
:101EA00087C0FC01329713821282C091F002D09158
:101EB000F102209781F420813181280F391F809110
:101EC000EE029091EF028217930779F5F093EF02FB
:101ED000E093EE026DC0DE0120E030E0AE17BF07F8
:101EE00050F412964D915C9113979D014115510547
:101EF00009F1DA01F3CFB383A28340815181840FCA
:101F0000951F8A179B0771F48D919C911197840FEF
:101F1000951F02969183808312968D919C911397C1
:101F2000938382832115310529F4F093F102E09324
:101F3000F0023EC0D9011396FC93EE9312974D9197
:101F40005D91A40FB51FEA17FB0779F48081918199
:101F5000840F951F0296D90111969C938E938281CE
:101F6000938113969C938E931297E0E0F0E08A8120
:101F70009B81009719F0FE01EC01F9CFCE0102968A
:101F800028813981820F931F2091EE023091EF0258
:101F90002817390769F4309729F41092F10210924A
:101FA000F00202C013821282D093EF02C093EE02BD
:0A1FB000DF91CF910895F894FFCF60
:101FBA000000F20280000100000001000000001091
:101FCA00020000000051027B0200000000C202DF92
:101FDA0002000000002A03430300000000BB058E34
:101FEA000563056B057E058D050000000096060059
:101FFA00000000CA06CF0600000000DF060000004D
:10200A0000190700000000A507BC0700000000CE69
:0C201A00083A0A500869085B08AC08008E
:00000001FF
